:100000000C94C5010C94F6010C94F6010C94F601C5
:100010000C94F6010C94F6010C94F6010C94F60184
:100020000C94F6010C94F6010C94F6010C94F60174
:100030000C94F6010C9422090C94F6010C94F60130
:100040000C94F6010C94F7080C94F6010C94F6014C
:100050000C94F6010C94F6010C94F6010C94DF1745
:100060000C94F6010C9433150C9469150C94F6015C
:100070000C94F6010C94F6010C94F6010C94F60124
:100080000C94F6010C94F6010C94F6010C94F60114
:100090000C94F6010C94F6010C94F6010C94F60104
:1000A0000C94F6010C94F6010C94F6010C94F601F4
:1000B0000C94F6010C94F6010C94F6010C94F601E4
:1000C0000C94F6010C94F6010C94F6010C94F601D4
:1000D0000C94F6010C94F6010C94F6010C94F601C4
:1000E0000C94F601990360039D03640367036A039C
:1000F0006E037103750378037B037E03810385031D
:1001000089038D03900393039E108B108D108F1025
:1001100091109310951097104C164F163E164216DC
:1001200048168616531657165D16611665166B1619
:100130006F167316861679167D1681163F174417AB
:10014000491753175D17D61767176F17771781175A
:100150008B179517A417AE17D617B817C217CC1759
:100160000C94C40E0C9473160C94C8100C9491103B
:100170000C9495100C9497100C9467170C946B16B4
:100180000C944F160C9479160C9453160C94EA1593
:100190000C949E100C94A8130C9490030C949D0343
:1001A0000C9486160C947D160C9493100C944314A6
:1001B0000C947B030C945D170C9481170C9493158D
:1001C0000C94D6130C9453170C9499030C947E033F
:1001D0000C94AE170C943E160C948D100C94CC1706
:1001E0000C9478030C9449170C945D160C94B81772
:1001F0000C94C2170C9481030C9471030C9460034B
:100200000C9465140C9493030C9464030C948D0368
:100210000C9495170C946E030C9485030C948F101A
:100220000C946A030C9442160C94A4170C944C166C
:100230000C94B4130C948B100C946F160C947717C9
:100240000C9467030C9465160C948B170C94811610
:100250000C9475030C94C2130C943F170C94041661
:100260000C9461160C94D6170C946F170C944816C6
:100270000C941F100C9489030C9457160C9444177B
:1002800000000A0B02090C0D0E0807030401000010
:10029000000000000000000000000000000000005E
:1002A000000000000000000000000000121110001B
:1002B000000000000000000000000000000000003E
:1002C000000000000000010210202008081020405B
:1002D000102040800201020108040201010204080A
:1002E0001020408080402010080402018004020198
:1002F00080402010080402010804020101020408E1
:1003000010204080010204081020408005050505EA
:10031000070508080808020202020A0A080804047D
:1003200004040101010101010101030303030303AB
:100330000303040707070C0C0C0C0C0C0C0C02023A
:10034000020206060606060606060B0B0B0B0B0B37
:100350000B0B00002200250028002B002E0031008E
:10036000340002010000050108010B01000021001A
:10037000240027002A002D00300033000101000076
:10038000040107010A01EA15041611241FBECFEF6C
:10039000D1E2DEBFCDBF00E00CBF13E0A0E0B2E0D1
:1003A000E2ECF6E300E00BBF02C007900D92A23C26
:1003B000B107D9F724E0A2ECB3E001C01D92A43C40
:1003C000B207E1F711E0C5ECD1E000E006C02197EB
:1003D0000109802FFE010E94571BC33CD10780E01A
:1003E0000807A9F70E94CF150C945F1B0C9400001E
:1003F0000C949618CF93DF93EC0180E591E00E9476
:100400009D1560E088890E94C31680EC0E94B71594
:1004100061E088890E94C3160E94BE156AE070E000
:1004200080E090E0DF91CF910C945A181F93CF9306
:10043000DF93EC01162F80E591E00E949D1560E0AE
:1004400088890E94C31683E00E94B715812F0E94FD
:10045000B71580E00E94B715182F61E088890E94C7
:10046000C3160E94BE15812FDF91CF911F91089571
:10047000CF92DF92EF92FF920F931F93CF93DF9370
:100480001F921F92CDB7DEB77C01162FC22E80E5DA
:1004900091E049835A830E949D1560E0F7018089AD
:1004A0000E94C31683E00E94B715812F0E94B715E2
:1004B0004981042F5A81152FD12CDC1459F0F8E012
:1004C000DF1641F080E00E94B715F80181938F019B
:1004D000D394F3CF61E0F70180890E94C3160F9097
:1004E0000F90DF91CF911F910F91FF90EF90DF90D0
:1004F000CF900C94BE15EF92FF921F93CF93DF9392
:100500001F92CDB7DEB77C01162F80E591E04983BD
:100510000E949D1560E0F70180890E94C31682E069
:100520000E94B715812F0E94B7154981842F0E9420
:10053000B71561E0F70180890E94C3160F90DF9123
:10054000CF911F91FF90EF900C94BE15CF92DF9248
:10055000EF92FF920F931F93CF93DF931F921F92FF
:10056000CDB7DEB78C01E62EF22E80E591E049830F
:100570005A830E949D1560E0F80180890E94C3168D
:1005800082E00E94B7158E2D0E94B7154981E42E96
:10059000C42E5A81D52E8C2D8E198F1530F4F6016C
:1005A00081916F010E94B715F6CF61E0F801808953
:1005B0000E94C3160F900F90DF91CF911F910F9162
:1005C000FF90EF90DF90CF900C94BE15EF92FF92CA
:1005D0001F93CF93DF931F921F92CDB7DEB77C019D
:1005E000162F80E591E02A8349830E949D1560E0E3
:1005F000F70180890E94C31685E00E94B715812FFC
:100600000E94B7154981842F0E94B7152A81822F35
:100610000E94B71561E0F70180890E94C3160F9010
:100620000F90DF91CF911F91FF90EF900C94BE152A
:100630001F93CF93DF93EC0180E591E00E949D151D
:1006400060E088890E94C31680EA0E94B71580E0A6
:100650000E94B715182F61E088890E94C3160E9476
:10066000BE15812FDF91CF911F9108950F931F9396
:10067000CF938C01C62F262F40EE6FE00E94E6023A
:100680006FE0C8010E941602982F907E81E09C13B3
:1006900001C080E0CF911F910F9108950F931F9398
:1006A000CF93DF938C01462F50E0FA013197E2316E
:1006B000F105E8F58827EE58FF4F8F4F0C94571B34
:1006C000C7E8DFEF4FE13CC0C7E0DAEB38C0C5E870
:1006D000D1EF35C0C7E0DEEB49E032C0C7E8DFEF5D
:1006E00002C0C7E8DAEF47E02BC0C7E8DFEF0BC076
:1006F000C7E0DEEB08C0C7E0DDEA05C0C7E8DAEF17
:1007000002C0C6E8D0EF43E01BC0C7E8DAEF41E023
:1007100017C0C5E8D1EF41E413C0C6E8D0EF05C06B
:10072000C4E0D0EA02C0C2E8D0ED40E009C081E0F8
:1007300016C0C7E8DFEF4FE303C0C7E8DFEF4FE0C5
:100740006AE2C8010E947B024D2F69E2C8010E9443
:100750007B024C2F68E2C8010E947B0280E0DF919F
:10076000CF911F910F9108950F931F93CF938C01F9
:10077000C0E340E06C2FC8010E947B0260E16C0F77
:1007800040E0C8010E947B0260E26C0F40E0C801BB
:100790000E947B02CF5FCE3361F740E060E6C80184
:1007A0000E947B0240E060E7C801CF911F910F914A
:1007B0000C947B020F931F93CF93DF93EC01062FD2
:1007C0000E94FA0160E8CE010E943603182F6AE009
:1007D00070E080E090E011110CC00E945A18602F68
:1007E000CE010E944E03882339F06AE070E080E079
:1007F00090E00E945A1828C06AE070E080E090E023
:100800000E945A18CE010E94B40343E06BE2CE016D
:100810000E947B0224E044E660E6CE010E94E602EC
:1008200020E040E660E7CE010E94E60260E0CE01F3
:100830000E943603C82F8823C1F26AE070E080E08E
:1008400090E00E945A181C2F812FDF91CF911F91A9
:100850000F9108950F931F93CF93DF9300D01F92B2
:10086000CDB7DEB74130B1F40C831B838901222759
:100870003327502F5C71402F437078E0579F400D15
:10088000112448604A8355E0169507955A95E1F77B
:1008900009830DC0A80123E0569547952A95E1F7F5
:1008A00049830295000F007E0A831C821B8224E08C
:1008B000AE014F5F5F4F0E94A6020F900F900F9006
:1008C0000F90DF91CF911F910F910895EF92FF92BA
:1008D0000F931F93CF93DF9300D01F92CDB7DEB756
:1008E0007A018901FA011082F901108211821282C3
:1008F000138224E0AE014F5F5F4F0E9438022A81CD
:100900003981822F90E065E0959587956A95E1F7AA
:10091000F8E03F9F800D911D1124092E000CAA0BB9
:10092000BB0BF80180839183A283B38323FF25C08F
:1009300032E0880F991FAA1FBB1F3A95D1F7237089
:10094000820F911DA11DB11DBA2FA92F982F8827A5
:100950002B81820F911DA11DB11DBA2FA92F982F98
:1009600088272C81820F911DA11DB11D8083918349
:10097000A283B38381E0F70180830F900F900F90E3
:100980000F90DF91CF911F910F91FF90EF900895FD
:10099000FF920F931F93CF93DF93EC01F62E8A0102
:1009A000AC014A5F5F4F65E06F0D2D810E94A6028A
:1009B0000130110519F48D8180648D8364E06F0D21
:1009C0004D81CE010E947B0209811A812B813C81DD
:1009D00048816F2DCE010E942A04DF91CF911F9193
:1009E0000F91FF9008950F931F93CF93DF93EC0126
:1009F000162F9C012F5F3F4FAC010E9466046FEFE2
:100A0000610FCE010E941602082F64E0610FCE0133
:100A10000E94160203FB002700F90E87282F2F7073
:100A20002D83AE014A5F5F4F65E0610FCE01DF911C
:100A3000CF911F910F910C943802615028E048E04B
:100A40000C94E602AF92BF92CF92DF92EF92FF92A8
:100A50000F931F93CF93DF9300D0CDB7DEB75C0128
:100A60006B0180E3898380E48A8380E58B83FB01CB
:100A700010828E010F5F1F4F83E0E82EE00EF80119
:100A8000F1908F016F2DC5010E941602982F98706A
:100A900083FD04C0F394F601F08203C0E012EFCFAF
:100AA00092E0892F0F900F900F90DF91CF911F91BF
:100AB0000F91FF90EF90DF90CF90BF90AF9008958F
:100AC000FC01608B08951F93CF93DF93EC01162FE9
:100AD00061E088890E94871661E088890E94C316B8
:100AE0000E943410612FCE010E94DA0391E081113F
:100AF00001C090E0892FDF91CF911F9108958F92CF
:100B00009F92AF92BF92DF92EF92FF920F931F934B
:100B1000CF93DF931F92CDB7DEB77C01D62E48016D
:100B200059016AE070E080E090E049830E945A1821
:100B300060E8C7010E943603182F4981882329F0F5
:100B40006AE070E080E090E01AC0D11004C0950126
:100B5000840160E206C081E0D81206C095018401DC
:100B600064E2C7010E942A0460E0C7010E943603C4
:100B7000182F6AE070E080E090E0112321F00E94DD
:100B80005A18812F03C00E945A1880E00F90DF91FD
:100B9000CF911F910F91FF90EF90DF90BF90AF909A
:100BA0009F908F9008958F929F92AF92BF92EF92F5
:100BB000FF920F931F93CF93DF931F921F92CDB796
:100BC000DEB77C01562F480159016AE070E080E0F1
:100BD00090E04A8359830E945A1860E8C7010E9436
:100BE0003603182F4A815981882329F06AE070E082
:100BF00080E090E031C05230B1F040F4552379F0FC
:100C00005130F9F49501840164E018C0543099F032
:100C100070F05530B1F49501840168E10FC0950181
:100C2000840160E00BC09501840168E007C0950174
:100C3000840160E103C09501840164E1C7010E9461
:100C40002A0460E0C7010E943603182F6AE070E0B2
:100C500080E090E0112321F00E945A18812F03C0F8
:100C60000E945A1880E00F900F90DF91CF911F9152
:100C70000F91FF90EF90BF90AF909F908F9008954D
:100C8000CF92DF920F931F93FC0120834183528305
:100C900063837483093008F008E005833696D60133
:100CA00010E0CD018C199D09801791071CF48D91DE
:100CB0008193F7CF80E01F910F91DF90CF9008953F
:100CC000EF92FF920F931F93FC0120834183528385
:100CD00063837483093008F008E005833696D701F2
:100CE00010E0CD018E199F09801791071CF48D919A
:100CF0008193F7CF80E01F910F91FF90EF900895BF
:100D0000FC011182128213821482158210821686CF
:100D1000178680E00895CF92DF92EF92FF920F93B3
:100D20001F93CF93DF931F92CDB7DEB77C016B018A
:100D300000E010E0BE016F5F7F4FC7010E942205F7
:100D40000F5F1F4F823021F40233110599F720C045
:100D500002331105E9F0A6016981C7010E94C804A8
:100D60006981C7010E941D0500E010E00F5F1F4F61
:100D700069816150C7010E94160283FF04C00233DB
:100D80001105A1F707C00233110521F080E003C06F
:100D900086E001C087E00F90DF91CF911F910F9106
:100DA000FF90EF90DF90CF900895AF92BF92CF92D7
:100DB000DF92EF920F93CF935C01C02F0E2DEC2E9C
:100DC0000E9440066C2F70E0C501CF910F91EF900B
:100DD000DF90CF90BF90AF900C948B06EF92FF9274
:100DE0000F93CF93DF93EC010E94600660E070E008
:100DF000CE01DF91CF910F91FF90EF900C948B0675
:100E0000CF93DF93EC010E94180380FF07C061E6D7
:100E1000CE010E94F30420E041E008C081FF0CC035
:100E200061E7CE010E94F30420E042E06CE2CE01D3
:100E30000E94E60280E001C084E0DF91CF91089536
:100E4000EF92FF920F931F93CF93DF93EC018B01EF
:100E50007A010E940007811111C09D81F8019083E1
:100E6000DE011696F7012D8130E0BF016E197F0972
:100E7000621773072CF49D919193F5CFF8011082BE
:100E8000DF91CF911F910F91FF90EF900895CF9236
:100E9000DF92EF92FF920F931F93CF93DF931F92F6
:100EA0001F92CDB7DEB76C017B018A0129833A839B
:100EB0000E94000729813A81811123C0F6019581A2
:100EC000F8019083F6014181528163817481F701B9
:100ED0004083518362837383D6011696B90120E063
:100EE00030E0F601458150E02417350764F42830DE
:100EF000310549F09D91FB019193BF012F5F3F4F59
:100F0000F0CFF80110820F900F90DF91CF911F91D9
:100F10000F91FF90EF90DF90CF9008950E941803FB
:100F2000837011F484E0089583E008956DE20E94D7
:100F30001602887F09F085E00895FC0161817281C5
:100F4000838194810895FC0186850895FC01808148
:100F50000895FC01108A118A128A138A148A158A4C
:100F6000168A178A148E158E168E178E408351831B
:100F70006283738308952F923F924F925F926F9294
:100F80007F928F929F92AF92BF92CF92DF92EF9219
:100F9000FF920F931F93CF93DF93CDB7DEB72C97BC
:100FA0000FB6F894DEBF0FBECDBF1C01CB01BA0156
:100FB00028013901A90198010E94F9186D837E83E7
:100FC0008F83988720E030E0A901C701B6010E9415
:100FD000661918160CF09BC0A70196016D817E81E1
:100FE0008F8198850E94C31AD10154962D913D910D
:100FF0004D915C9157970E94FA184B015C01F101E9
:10100000648B758B868B978B8091C2039091C30301
:1010100001969093C3038093C20380819181A28142
:10102000B38189839A83AB83BC83B05889879A87BD
:10103000AB87BC879C01AD01C501B4010E94661954
:1010400087FF05C089859A85AB85BC850EC029813F
:101050003A814B815C81C501B4010E94BE1A181609
:101060004CF489819A81AB81BC81F101848B958B91
:10107000A68BB78BD10114962D913D914D915C912A
:1010800017976D817E818F8198850E94C31A4B01CD
:101090005C01F1012489358946895789608571850C
:1010A000828593850E94C31A9B01AC01C501B401DE
:1010B0000E94FA184B015C01D10150962D913D918F
:1010C0004D915C915397C301B2010E94F918A70199
:1010D00096010E946B19F101248535854685578557
:1010E0000E94C31A9B01AC01C501B4010E94F9180A
:1010F000D10158966D937D938D939C935B97F101ED
:10110000408A518A628A738A80E090E002C081E05E
:1011100090E02C960FB6F894DEBF0FBECDBFDF91E6
:10112000CF911F910F91FF90EF90DF90CF90BF90E4
:10113000AF909F908F907F906F905F904F903F9077
:101140002F90089526E040E052EC61E070E08EE1DF
:1011500094E00E94AC1469E372E08EE194E00C9498
:101160006011CF93DF93EC0160E1CE010E94630533
:10117000882369F062E370E080E090E00E945A18F2
:101180006BE472E08EE194E00E946011EDCF6EE5B9
:1011900072E08EE194E0DF91CF910C946011CF93D7
:1011A000DF9361157105F1F0EB0121E1FB01119273
:1011B0002A95E9F7F8949B01275F3F4FAB014C5FFD
:1011C0005F4F0E944707811109C00E9429186D8353
:1011D0007E838F83988780E090E002C081E090E07A
:1011E000789402C082E090E0DF91CF9108951F9241
:1011F0000F920FB60F9211240BB60F922F933F93BD
:101200004F935F936F937F938F939F93AF93BF930E
:10121000EF93FF93E091C603F091C7031995FF91F7
:10122000EF91BF91AF919F918F917F916F915F915E
:101230004F913F912F910F900BBE0F900FBE0F90CB
:101240001F9018951F920F920FB60F9211240BB694
:101250000F922F933F934F935F936F937F938F934F
:101260009F93AF93BF93EF93FF93E091C403F091EB
:10127000C5031995FF91EF91BF91AF919F918F9108
:101280007F916F915F914F913F912F910F900BBE86
:101290000F900FBE0F901F901895CF92DF92EF9294
:1012A000FF92CF93DF936B017C01EA01F8941092D7
:1012B000800010928100109285001092840020E03E
:1012C00030E040E857E40E94C31A9B01AC0160E0A3
:1012D00074E284E79BE40E946B190E94DD1961307F
:1012E00021E072078105910550F0809181008560B1
:1012F0008093810060E074E080E090E036C061346B
:1013000071058105910550F0809181008460809382
:10131000810060E071E080E090E027C069307105F5
:101320008105910550F08091810083608093810058
:1013300060E470E080E090E018C0623071058105E3
:10134000910550F08091810082608093810068E077
:1013500070E080E090E009C080918100816080931E
:10136000810061E070E080E090E00E940C1A9B0137
:10137000AC01C701B6010E94C31A9B01AC0160E039
:1013800074E284E79BE40E946B1920E030E040E8BF
:101390005FE30E94F9180E94DD196115710521E0D3
:1013A0008207910550F4611571058105910549F495
:1013B00061E070E080E090E004C06FEF7FEF80E0DC
:1013C00090E070938900609388008091810088602C
:1013D0008093810080916F00826080936F00D09332
:1013E000C703C093C6037894DF91CF91FF90EF902D
:1013F000DF90CF900895CF92DF92EF92FF92CF933C
:10140000DF936B017C01EA01F8941092B000109216
:10141000B1001092B20020E030E040E853E40E94B6
:10142000C31A9B01AC0160E074E284E79BE40E9474
:101430006B190E94DD19613021E072078105910569
:1014400050F08091B10087608093B10060E074E05B
:1014500080E090E054C0613871058105910550F03D
:101460008091B10086608093B10060E071E080E01F
:1014700090E045C0613471058105910550F080917F
:10148000B10085608093B10060E870E080E090E09A
:1014900036C0613271058105910550F08091B1002F
:1014A00084608093B10060E470E080E090E027C049
:1014B000693071058105910550F08091B10083601C
:1014C0008093B10060E270E080E090E018C062308C
:1014D00071058105910550F08091B1008260809383
:1014E000B10068E070E080E090E009C08091B10058
:1014F00081608093B10061E070E080E090E00E9444
:101500000C1A9B01AC01C701B6010E94C31A9B01D2
:10151000AC0160E074E284E79BE40E946B1920E078
:1015200030E040E85FE30E94F9180E94DD196F3F48
:1015300071058105910509F050F46115710581056A
:10154000910549F461E070E080E090E004C06FEF45
:1015500070E080E090E06093B3008091B100826021
:101560008093B10080917000826080937000D0936E
:10157000C503C093C4037894DF91CF91FF90EF909F
:10158000DF90CF900895CF92DF92EF92FF920F936A
:101590001F93CF93DF93E901811106C0188219824E
:1015A0001A821B821C821DC06A017B010E942918BD
:1015B0002881211106C021E0288369837A838B83E7
:1015C0009C8309811A812B813C81DC01CB01801B2A
:1015D000910BA20BB30B21E08C159D05AE05BF0549
:1015E00008F420E0822FDF91CF911F910F91FF909F
:1015F000EF90DF90CF9008950F931F93FB01BA01F6
:10160000A9019801892B29F081E0EF2B19F080E0E6
:1016100001C081E01F910F910C94C30AF89460E01F
:1016200081E30E94C3167894089561E081E30E94EB
:1016300087160C940E0BF89461E081E30E94C316A8
:1016400078940895F89489E00E94F31678940C94A5
:10165000A10BCF92DF92EF92FF920E94220B6B01BF
:101660007C0126E636E642E454E40E946619181628
:1016700034F0FF90EF90DF90CF900C941B0B20E0A4
:1016800030E84BE554E4C701B6010E94BE1A87FD5D
:1016900006C0FF90EF90DF90CF900C940E0BFF9060
:1016A000EF90DF90CF9008958F929F92AF92BF926C
:1016B000CF92DF92EF92FF92CF93DF9341155105C6
:1016C00089F1EA0188809980AA80BB80A5019401F4
:1016D0000E94F9186B017C01A50194016C817D8148
:1016E0008E819F810E94F9189B01AC01C701B60150
:1016F0000E946B194B015C01C884D984EA84FB8485
:10170000A70196016C857D858E859F850E94F918BD
:101710009B01AC01C501B4010E94C31AA701960147
:101720000E94FA186B017C01C701B601DF91CF91CD
:10173000FF90EF90DF90CF90BF90AF909F908F90F1
:101740000895CF92DF92EF92FF92BC01990F880B20
:10175000990B0E940E1A2AE939E949E150E40E94E6
:10176000C31A2AE939E14CE753E40E94F9186B01E6
:101770007C0120E030E040E451E40E94661987FDDE
:1017800013C023E333E94BE554E4C701B6010E94DB
:10179000BE1A18167CF493E3C92E93E9D92E9BE563
:1017A000E92E94E4F92E06C0C12CD12C80E4E82E59
:1017B00081E4F82EC701B601FF90EF90DF90CF9043
:1017C0000895F89460E070E082E00E941817789421
:1017D0006BE772E08EE194E00C94601161E082E0CE
:1017E0000E9487160C94E10BF8946FEF70E082E092
:1017F0000E941817789460E972E08EE194E00C94EE
:101800006011EF92FF920F931F93CF93DF93EC0140
:10181000F8948AE00E94F3167C018BE00E94F31694
:101820008C017894C7010E94A10B688379838A8315
:101830009B83C8010E94A10B6C837D838E839F8351
:10184000DF91CF911F910F91FF90EF900895F89441
:1018500060E080E30E94C31678940895CF93DF93ED
:10186000EC01F894BC0185E00E941817BE0187E0E6
:101870000E9418177894DF91CF910895CF93DF934A
:10188000EC01F894BC0186E00E941817BE0188E0C4
:101890000E9418177894DF91CF9108958091E80302
:1018A00081111BC08091E903811117C08091EF0362
:1018B000811113C08091F00381110FC00E94F40BBD
:1018C00080E090E00E943E0C81E08093E80366EAAD
:1018D00072E08EE194E00C94601108958091E80329
:1018E0008823F1F080E090E00E942E0C8FEF90E0D2
:1018F0000E943E0C0E94270C6FE070E080E090E0B8
:101900000E945A180E94E10B80E090E00E943E0C79
:101910001092E80366EB72E08EE194E00C946011A3
:1019200008951F93CF93DF93CDB7DEB728970FB6F7
:10193000F894DEBF0FBECDBF8091E803811105C0D2
:101940008091E903882309F445C0CE0101960E94E5
:10195000010C2DEC3CEC4CE252E469817A818B81E4
:101960009C810E94BE1A87FF0FC011E02DEC3CEC59
:101970004CE252E46D817E818F8198850E94BE1A6F
:1019800087FF03C010E001C011E024E134E044E629
:1019900050E060E070E0812F0E94C30A882399F034
:1019A0000E946E0C8091EA0382608093EA030E9499
:1019B000F80E81E08093E90367EC72E08EE194E039
:1019C0000E94601107C08091EA038D7F8093EA0333
:1019D0001092E90328960FB6F894DEBF0FBECDBF74
:1019E000DF91CF911F9108950F931F93CF93DF93B2
:1019F0008091E803811104C08091EA0380FF84C0D4
:101A0000F8948AE00E94F316EC018BE00E94F31632
:101A10007894CD2B11F0892B69F480911204909168
:101A200013040196909313048093120404970CF00E
:101A300063C004C01092130410921204C0E0F89422
:101A400089E00E94F3167894892B99F48091100410
:101A500090911104019690931104809310040497BF
:101A600064F06DE073E08EE194E00E946011D1E0DB
:101A700005C01092110410921004D0E0F8948EE08A
:101A80000E94F3168C018DE00E94F3167894012BCE
:101A900011F0892B99F480910E0490910F04019616
:101AA00090930F0480930E04049764F06DE373E049
:101AB0008EE194E00E94601181E005C010920F0455
:101AC00010920E0480E0C11104C0D11102C088231D
:101AD00069F00E946E0C8091EA0381608093EA03B2
:101AE000DF91CF911F910F910C94F80E8091EA0332
:101AF0008E7F8093EA0308C069ED72E08EE194E086
:101B00000E946011C1E09BCFDF91CF911F910F9197
:101B10000895F89460E085E00E94C31660E087E0D5
:101B20000E94C31660E086E00E94C31660E088E071
:101B30000E94C31660E08DE00E94C31660E08CE056
:101B40000E94C316789461E085E00E94871661E0E8
:101B500087E00E94871661E086E00E94871661E0B8
:101B600088E00E94871661E08DE00E94871661E0A0
:101B70008CE00E94871680E090E00E943E0C80E09E
:101B800090E00E942E0C0E94270C61E080E30C94F0
:101B900087168F929F92AF92BF92CF92DF92EF9271
:101BA000FF920F931F93CF93DF938091E8038823D5
:101BB00009F4DDC0F8940E9435186B017C01809116
:101BC0000A0490910B04A0910C04B0910D04A7019C
:101BD0009601281B390B4A0B5B0BCA01B9010E9405
:101BE0000C1AC0920A04D0920B04E0920C04F092FA
:101BF0000D0420E030E04AE754E40E946B196B01C9
:101C00007C016091EB037091EC038091ED03909166
:101C1000EE0340E252E00E94540B6093060470937E
:101C200007048093080490930904F8948EE00E94BE
:101C3000F3165C018DE00E94F316EC017894C50167
:101C40000E94A10B4B015C01CE010E94A10B9B01E4
:101C5000AC01C501B4010E94FA1820E030E040E078
:101C60005FE30E94C31A4B015C016093020470930E
:101C70000304809304049093050420E030E04AE7D5
:101C800054E4C701B6010E946B196B017C014091BD
:101C900006045091070460910804709109049501AD
:101CA000840188EC93E00E94BB07892B09F05EC099
:101CB000C090E003D090E103E090E203F090E303F2
:101CC00020E030E040E251ECC701B6010E94661905
:101CD00087FF28C080E090E00E942E0CC701B6016B
:101CE000905840E152E00E94540B0E94DD19CB0154
:101CF0006536710510F084E690E00E943E0C20E00D
:101D000030E040EA51E4609106047091070480914C
:101D10000804909109040E94661987FF27C00E9459
:101D2000270C24C020E030E040E251E4C701B601B6
:101D30000E94BE1A1816D4F4F89461E080E30E9461
:101D4000C316789480E090E00E943E0C40E052E0A0
:101D5000C701B6010E94540B0E94DD19CB016A36FF
:101D6000710510F089E690E00E942E0C7894DF91C6
:101D7000CF911F910F91FF90EF90DF90CF90BF9088
:101D8000AF909F908F900895EF92FF920F93CF9313
:101D9000DF93CDB7DEB728970FB6F894DEBF0FBE3E
:101DA000CDBF85E089838CEC8A83E8EEF3E0808107
:101DB0008B8381818C8382818D83F894CE010196FF
:101DC0007C0108E020E043E750E060E070E081EF54
:101DD00093E00E94EE06789428960FB6F894DEBF42
:101DE0000FBECDBFDF91CF910F91FF90EF9008957F
:101DF000EF92FF920F93CF93DF93CDB7DEB7289783
:101E00000FB6F894DEBF0FBECDBF85E089838CECA2
:101E10008A831B821C821D821E828091EA038F832B
:101E2000F894CE0101967C0108E020E04FEA50E0F2
:101E300060E070E081EF93E00E94EE0678942896CF
:101E40000FB6F894DEBF0FBECDBFDF91CF910F91DB
:101E5000FF90EF900895CF93DF93CDB7DEB76197F2
:101E60000FB6F894DEBF0FBECDBFBE016F5F7F4FD0
:101E700081EF93E00E94CF08892B09F052C08A8538
:101E8000853009F04EC08B858C3C09F04AC08981B1
:101E90009A81AB81BC8180379105A105B10519F408
:101EA0000E944E0C3EC081379105A105B10519F481
:101EB0000E946E0C36C082379105A105B10569F408
:101EC0008C859D85AE85BF858093EB039093EC0355
:101ED000A093ED03B093EE0324C08F3A9105A105C2
:101EE000B105F9F40E946E0C67E673E08EE194E0B0
:101EF0000E9425114C855D856E857F852AE030E046
:101F00008EE194E00E94591264E873E08EE194E05F
:101F10000E9425114AE050E068898EE194E00E9419
:101F20006D1261960FB6F894DEBF0FBECDBFDF9184
:101F3000CF910895E8EEF3E010821182128240E022
:101F400050E060EF71E488EC93E00E94A907E8ECB0
:101F5000F3E086E696E6A6E2BFE384839583A68354
:101F6000B78380E090E0A0EEBFE380879187A287EF
:101F7000B38714861586168617860895E1E9F0E082
:101F80008081887F82608083E1EAF0E08081887FC1
:101F9000826080830E94150B0E94EE0B0E94890DC7
:101FA0000E940E0B0E94E10B80E090E00E943E0C2C
:101FB00080E090E00C942E0C0F931F930E94A208D7
:101FC0006DE873E08EE194E00E94251181EF93E0CB
:101FD0000E94B10800EF17E020E030E040E060E050
:101FE00081EF93E00E947F0500E710E020E030E001
:101FF00040E060E081EF93E00E94D30500EA10E04A
:1020000020E030E040E061E081EF93E00E94D30502
:102010000FEF17E020E030E040E061E081EF93E077
:102020000E947F0501E710E020E030E041E062E03F
:1020300081EF93E00E94D3051F910F910895F894CA
:102040000E94F40C789408954FE150E160E070E054
:1020500080E89FE30E944D0944EC5EE060E070E0A0
:1020600088E492E40C94FB09CF93CFB7F894809165
:102070001C04811127C0E1E4F3E08491EBEFF2E06E
:102080009491E82FF0E0EE0FFF1FE459FC4FA5916B
:10209000B491EC91E92321F461E085E30E94C31639
:1020A00061E085E30E9487168CB580618CBD8CB59C
:1020B00080648CBD61E084E30E94871661E083E365
:1020C0000E94871680911C048F5F80931C04CFBFF1
:1020D000CF9108959FB7F89480911C04882319F03C
:1020E000815080931C0480911C04811105C08CB523
:1020F0008F7B8CBD10921B049FBF08952FB7F8945F
:1021000090E088309105A8F4FC018827EC57FF4F38
:102110008F4F0C94571B80E212C081E010C082E008
:102120000EC084E00CC088E00AC080E408C080E8EB
:1021300006C082E080931B0480E001C080E19091A2
:102140001A04892B80931A0480911B04811103C007
:1021500081E080931B042FBF089590911B0492305F
:10216000B1F02FB7F894883030F4E82FF0E0EF5C4E
:10217000FD4F808101C080E0809590911A048923F1
:1021800080931A04811102C010921B042FBF08957E
:10219000CF92DF92EF92FF920F931F93CF93DF9333
:1021A0006C017A018B01C0E0D0E0CE15DF0589F02B
:1021B000D8016D918D01D601ED91FC910190F081D6
:1021C000E02DC6011995892B11F47E0102C02196DC
:1021D000ECCFC701DF91CF911F910F91FF90EF904E
:1021E000DF90CF900895EF92FF920F931F93CF93BC
:1021F000DF938C017B01C0E0D0E0F701EC0FFD1F05
:102200006491662361F0D801ED91FC910190F08119
:10221000E02DC8011995892B11F02196EECFCE0142
:10222000DF91CF911F910F91FF90EF900895DC0106
:10223000ED91FC91DB0114964D915C9115976D9198
:102240007C910280F381E02D19940C94EF15DC0150
:10225000ED91FC910190F081E02D1994DB01ED915D
:10226000FC9111970190F081E02DBC01CD011994F2
:1022700061EA73E00C94EF150F931F93CF93DF93F4
:10228000EC010E94F3108C01CE010E943811800FE6
:10229000911FDF91CF911F910F9108950F931F937D
:1022A000CF93DF93EC010E9417118C01CE010E94A5
:1022B0003811800F911FDF91CF911F910F910895D9
:1022C0000F931F93CF93DF93EC010E94EF158C01C6
:1022D000CE010E943811800F911FDF91CF911F9185
:1022E0000F9108950F931F93CF93DF93EC010E94FA
:1022F00027118C01CE010E943811800F911FDF91B0
:10230000CF911F910F9108950F931F93CF93DF9358
:10231000EC010E942E118C01CE010E943811800F19
:10232000911FDF91CF911F910F9108954F925F926E
:102330006F927F92EF92FF920F931F93CF93DF9351
:10234000CDB7DEB7A1970FB6F894DEBF0FBECDBFF5
:102350007C01FA01CB0119A2223008F42AE08E0197
:102360000F5D1F4F422E512C612C712CBF01A30118
:1023700092010E94351BF901CA01015011096A300E
:1023800014F4605D01C0695CD8016C93232B242B8D
:10239000252B61F7B801C7010E94EF15A1960FB672
:1023A000F894DEBF0FBECDBFDF91CF911F910F918B
:1023B000FF90EF907F906F905F904F900895CF9235
:1023C000DF92EF92FF920F931F93CF93DF93EC0175
:1023D0006A017B012115310579F4E881F9810190C9
:1023E000F081E02D642FDF91CF911F910F91FF902D
:1023F000EF90DF90CF9019942A303105E9F477FF00
:102400001AC06DE20E9427118C0144275527BA019A
:102410004C195D096E097F092AE0CE010E949611D0
:10242000800F911FDF91CF911F910F91FF90EF903F
:10243000DF90CF9008952AE0B701A601CE01DF9189
:10244000CF911F910F91FF90EF90DF90CF900C9460
:1024500096119A01AB01770F660B770B0C94DF1185
:102460000F931F93CF93DF93EC019A01AB01770F8A
:10247000660B770B0E94DF118C01CE010E94381190
:10248000800F911FDF91CF911F910F9108950F93AE
:102490001F93CF93DF93EC010E94DF118C01CE01DB
:1024A0000E943811800F911FDF91CF911F910F91E2
:1024B00008952115310541F4DC01ED91FC91019065
:1024C000F081E02D642F19940C9496119A01462FF7
:1024D00050E060E070E00C9459120F931F93CF937B
:1024E000DF93EC019A01462F50E060E070E00E941B
:1024F00059128C01CE010E943811800F911FDF917B
:10250000CF911F910F9108959A01AB0160E070E0A7
:102510000C9459120F931F93CF93DF93EC019A0100
:10252000AB0160E070E00E9459128C01CE010E9464
:102530003811800F911FDF91CF911F910F91089556
:102540000F931F93CF93DF93EC010E9459128C01DC
:10255000CE010E943811800F911FDF91CF911F9102
:102560000F9108954F925F926F927F928F929F92F8
:10257000AF92BF92CF92DF92EF92FF92CF93DF9311
:10258000EC016A017B01B22E9A01AB01C701B601D1
:102590000E94301B882319F064EA73E027C02601EB
:1025A0003701E89477F82FEF3FEF4FE75FE7C3017C
:1025B000B2010E94301B81110DC02FEF3FEF4FE79A
:1025C0005FE7C301B2010E94661918161CF468EA9D
:1025D00073E00CC02FEF3FEF4FE75FE4C701B60198
:1025E0000E94BE1A18169CF46CEA73E0CE01DF91CB
:1025F000CF91FF90EF90DF90CF90BF90AF909F90E2
:102600008F907F906F905F904F900C94EF152FEF0D
:102610003FEF4FE75FECC701B6010E94661987FDE7
:10262000E3CF20E030E0A901C701B6010E9466199E
:1026300087FF0AC06DE2CE010E9427114C01F7FA14
:10264000F094F7F8F09402C0812C912CA12C60E05A
:1026500070E080E09FE3AB1441F020E030E040E226
:1026600051E40E946B19A394F6CF9B01AC01C70102
:10267000B6010E94FA182B013C010E94DD196B0182
:102680007C010E940C1A9B01AC01C301B2010E94A3
:10269000F9182B013C012AE0B701A601CE010E94E6
:1026A00096117C01E80CF91CBB2031F06EE2CE01E2
:1026B0000E942711E80EF91EDB2CDD2029F120E015
:1026C00030E040E251E4C301B2010E94C31A2B0181
:1026D0003C010E94DD194B01A12CB12C2AE0B5016F
:1026E000A401CE010E949611E80EF91EC501B401A5
:1026F0000E940C1A9B01AC01C301B2010E94F9189F
:102700002B013C01DA94D9CFC701DF91CF91FF9023
:10271000EF90DF90CF90BF90AF909F908F907F9081
:102720006F905F904F9008950C94B2120F931F9387
:10273000CF93DF93EC010E94B2128C01CE010E9474
:102740003811800F911FDF91CF911F910F91089544
:10275000FC01918D228D892F90E0805C9F4F821B20
:1027600091098F7399270895FC01918D828D981797
:1027700031F0828DE80FF11D858D90E008958FEF87
:102780009FEF0895FC01918D828D981761F0828DE5
:10279000DF01A80FB11D5D968C91928D9F5F9F7395
:1027A000928F90E008958FEF9FEF0895FC01538D75
:1027B000448D252F30E0842F90E0821B930B54171B
:1027C00010F0CF9608950197089583E995E1892B3C
:1027D00041F080E090E0892B21F00E949315811157
:1027E00025C080E090E0892B41F080E090E0892BCB
:1027F00021F00E94000081111CC080E090E0892B34
:1028000041F080E090E0892B21F00E9400008111CE
:1028100013C080E090E0892BA1F080E090E0892B4C
:1028200081F00E94000081110AC008950E940000FA
:10283000D8CF0E940000E1CF0E940000EACF0C94A4
:1028400000000895FC01848DDF01A80FB11DA35A7B
:10285000BF4F2C91848D90E001968F739927848FC0
:10286000A689B7892C93A089B1898C9180648C93B7
:10287000938D848D981306C00288F389E02D8081A2
:102880008F7D80830895CF93DF93EC01888D88231B
:10289000C9F0EA89FB89808185FD05C0A889B989CD
:1028A0008C9186FD0FC00FB607FCF5CF808185FFA8
:1028B000F2CFA889B9898C9185FFEDCFCE010E9416
:1028C0002214E7CFDF91CF910895EF92FF920F93FB
:1028D0001F93CF93DF93EC0181E0888F9B8D8C8DCC
:1028E000981305C0E889F989808185FD24C0F62EFA
:1028F0000B8D10E00F5F1F4F0F731127E02E8C8D93
:10290000E8120CC00FB607FCFACFE889F98980817C
:1029100085FFF5CFCE010E942214F1CF8B8DFE01F1
:10292000E80FF11DE35AFF4FF0820B8FEA89FB8914
:102930008081806207C0EE89FF896083E889F98918
:1029400080818064808381E090E0DF91CF911F914E
:102950000F91FF90EF900895CF92DF92EF92FF9248
:102960001F93CF93DF93EC016A017B01122FE8895B
:10297000F98982E080834115514E61057105B1F0FE
:1029800060E079E08DE390E0A70196010E94351B9D
:10299000DA01C9010197A109B109B695A7959795E3
:1029A0008795AC01411580E15807A8F0E889F989BD
:1029B000108260E874E88EE190E0A70196010E9421
:1029C000351BBA01A9014150510961097109769578
:1029D000679557954795EC85FD855083EE85FF8576
:1029E0004083188EEC89FD891083EA89FB898081F8
:1029F00080618083EA89FB89808188608083EA899D
:102A0000FB89808180688083EA89FB8980818F7D52
:102A10008083DF91CF911F91FF90EF90DF90CF9057
:102A20000895CF93DF93EC01E881F9810680F78167
:102A3000E02D1995EA89FB8980818F7E8083EA8960
:102A4000FB898081877F8083EA89FB8980818F77FA
:102A50008083EA89FB8980818F7D80838A8D898F3D
:102A6000DF91CF9108951F920F920FB60F9211240C
:102A70000BB60F922F938F939F93EF93FF93E09159
:102A80002E04F0912F048081E0913404F0913504FC
:102A900082FD12C09081809137048F5F8F732091E7
:102AA0003804821751F0E0913704F0E0E25EFB4F0A
:102AB000958F8093370401C08081FF91EF919F91A2
:102AC0008F912F910F900BBE0F900FBE0F901F9004
:102AD00018951F920F920FB60F9211240BB60F92FA
:102AE0002F933F934F935F936F937F938F939F9316
:102AF000AF93BF93EF93FF938EE194E00E94221473
:102B0000FF91EF91BF91AF919F918F917F916F91C5
:102B10005F914F913F912F910F900BBE0F900FBE81
:102B20000F901F9018958EE194E00E94A81321E069
:102B3000892B09F420E0822F089520911B04222381
:102B400099F04FB7F89420911B04213059F42DB31C
:102B5000209319043DB320911A04209523232DBB03
:102B60004FBF02C0409319048CBD9DBD08958EBD1A
:102B700000000DB407FEFDCF8EB5089580911B04B3
:102B8000882361F09FB7F89420911B048091190469
:102B9000213019F48DBB9FBF08958FBF08950E9407
:102BA000F8010E94DC0F0E949A0F0E94BE0F0E9443
:102BB000DC0F0E9424106DE672E08EE194E00E942A
:102BC00060110E942B0F0E94290B0E94910C0E9401
:102BD000C90DF7CF65E381EF93E00C9460056115B3
:102BE000710579F0FB0101900020E9F73197AF0101
:102BF000461B570BDC01ED91FC910280F381E02D27
:102C0000199480E090E00895EEE1F4E013821282DE
:102C100088EE93E0A0E0B0E084839583A683B78339
:102C200084EB93E09183808385EC90E095878487A3
:102C300084EC90E09787868780EC90E0918B808B86
:102C400081EC90E0938B828B82EC90E0958B848B6F
:102C500086EC90E0978B868B118E128E138E148EDD
:102C6000089590E0FC013197E231F10508F04EC083
:102C70008827E457FF4F8F4F0C94571B809180009B
:102C80008F7703C0809180008F7D809380000895AE
:102C900080918000877FF9CF84B58F7702C084B59B
:102CA0008F7D84BD08958091B0008F7703C080919F
:102CB000B0008F7D8093B0000895809190008F7751
:102CC00007C0809190008F7D03C080919000877F26
:102CD0008093900008958091A0008F7707C0809125
:102CE000A0008F7D03C08091A000877F8093A0000B
:102CF0000895809120018F7707C0809120018F7DFA
:102D000003C080912001877F809320010895CF9395
:102D1000DF9390E0FC01EA53FD4F2491FC01E45F56
:102D2000FC4F8491882361F190E0880F991FFC018A
:102D3000E459FC4FC591D491FC01EE5AFC4FA5918A
:102D4000B491611109C09FB7F894888120958223BE
:102D50008883EC912E230BC0623061F49FB7F89406
:102D60003881822F809583238883EC912E2B2C939E
:102D70009FBF06C08FB7F894E8812E2B28838FBFA2
:102D8000DF91CF9108951F93CF93DF93282F30E0E9
:102D9000F901E058FD4F8491F901EA53FD4FD491B8
:102DA000F901E45FFC4FC491CC23C9F0162F8111C7
:102DB0000E943116EC2FF0E0EE0FFF1FEE5AFC4F91
:102DC000A591B4918FB7F894111105C09C91ED2F86
:102DD000E095E92302C0EC91ED2BEC938FBFDF91DE
:102DE000CF911F910895863308F0865390917B0010
:102DF000282F2870977F922B90937B0087702091CB
:102E0000300290E4299F90011124822B80937C0052
:102E100080917A00806480937A0080917A0086FDA8
:102E2000FCCF809178002091790090E0922B08955A
:102E30001F93CF93DF93182FEB0161E00E94871659
:102E4000209711F460E004C0CF3FD10529F461E080
:102E5000812F0E94C316AFC0E12FF0E0E058FD4F74
:102E6000E4914E2F50E0FA013197E231F10508F07C
:102E70009DC08827E256FF4F8F4F0C94571B84B597
:102E8000806884BDC7BD97C084B5806284BDC8BD5D
:102E900092C080918000806880938000D0938900E8
:102EA000C093880088C080918000806280938000F9
:102EB000D0938B00C0938A007EC080918000886090
:102EC00080938000D0938D00C0938C0074C080915B
:102ED000B00080688093B000C093B3006CC0809154
:102EE000B00080628093B000C093B40064C0809151
:102EF0009000806880939000D0939900C0939800D0
:102F00005AC080919000806280939000D0939B0083
:102F1000C0939A0050C08091900088608093900088
:102F2000D0939D00C0939C0046C08091A000806813
:102F30008093A0008091A0008F7B8093A000D0930D
:102F4000A900C093A80037C08091A0008062809340
:102F5000A000D093AB00C093AA002DC08091A00028
:102F600088608093A000D093AD00C093AC0023C0D4
:102F700080912001806880932001D0932901C09323
:102F8000280119C080912001806280932001D09394
:102F90002B01C0932A010FC080912001886080938B
:102FA0002001D0932D01C0932C0105C0C038D1055C
:102FB0000CF04DCF47CFDF91CF911F9108951F9215
:102FC0000F920FB60F9211242F933F938F939F93DD
:102FD000AF93BF938091BC049091BD04A091BE04B7
:102FE000B091BF043091BB0423E0230F2D3720F4B0
:102FF0000196A11DB11D05C026E8230F0296A11D53
:10300000B11D2093BB048093BC049093BD04A09396
:10301000BE04B093BF048091C0049091C104A091FC
:10302000C204B091C3040196A11DB11D8093C004D8
:103030009093C104A093C204B093C304BF91AF9115
:103040009F918F913F912F910F900FBE0F901F90E6
:1030500018952FB7F8946091BC047091BD048091CD
:10306000BE049091BF042FBF08953FB7F89480919C
:10307000C0049091C104A091C204B091C30426B5CC
:10308000A89B05C02F3F19F00196A11DB11D3FBFA0
:10309000BA2FA92F982F8827820F911DA11DB11D2E
:1030A000BC01CD0142E0660F771F881F991F4A952A
:1030B000D1F708958F929F92AF92BF92CF92DF92F5
:1030C000EF92FF926B017C010E9435184B015C016D
:1030D000C114D104E104F10401F10E94F8180E9426
:1030E0003518DC01CB0188199909AA09BB09883E6A
:1030F0009340A105B10560F321E0C21AD108E108AF
:10310000F10888EE880E83E0981EA11CB11CC11442
:10311000D104E104F10419F7DBCFFF90EF90DF90C9
:10312000CF90BF90AF909F908F900895789484B582
:10313000826084BD84B5816084BD85B5826085BDB3
:1031400085B5816085BDEEE6F0E080818160808399
:10315000E1E8F0E01082808182608083808181607C
:103160008083E0E8F0E0808181608083E1EBF0E043
:10317000808184608083E0EBF0E0808181608083E7
:10318000E1E9F0E0808182608083808181608083DA
:10319000E0E9F0E0808181608083E1EAF0E0808115
:1031A00082608083808181608083E0EAF0E08081BA
:1031B00081608083E1E2F1E08081826080838081B0
:1031C00081608083E0E2F1E0808181608083EAE7D2
:1031D000F0E0808184608083808182608083808150
:1031E000816080838081806880831092C10008950F
:1031F00008955058BB27AA270E9411190C94841ACD
:103200000E94761A38F00E947D1A20F039F49F3F10
:1032100019F426F40C94731A0EF4E095E7FB0C9461
:103220006D1AE92F0E94951A58F3BA1762077307AF
:103230008407950720F079F4A6F50C94B71A0EF4DC
:10324000E0950B2EBA2FA02D0B01B90190010C01B6
:10325000CA01A0011124FF27591B99F0593F50F4CE
:10326000503E68F11A16F040A22F232F342F442726
:10327000585FF3CF469537952795A795F04053951E
:10328000C9F77EF41F16BA0B620B730B840BBAF0EE
:103290009150A1F0FF0FBB1F661F771F881FC2F759
:1032A0000EC0BA0F621F731F841F48F4879577956D
:1032B0006795B795F7959E3F08F0B0CF9395880F27
:1032C00008F09927EE0F9795879508950E94491A5F
:1032D00008F481E008950E947F190C94841A0E94DA
:1032E0007D1A58F00E94761A40F029F45F3F29F0C9
:1032F0000C946D1A51110C94B81A0C94731A0E9404
:10330000951A68F39923B1F3552391F3951B550B47
:10331000BB27AA2762177307840738F09F5F5F4FA8
:10332000220F331F441FAA1FA9F335D00E2E3AF0E7
:10333000E0E832D091505040E695001CCAF72BD0FF
:10334000FE2F29D0660F771F881FBB1F2617370750
:103350004807AB07B0E809F0BB0B802DBF01FF2782
:1033600093585F4F3AF09E3F510578F00C946D1AD8
:103370000C94B81A5F3FE4F3983ED4F386957795A2
:103380006795B795F7959F5FC9F7880F911D96953B
:10339000879597F90895E1E0660F771F881FBB1F97
:1033A000621773078407BA0720F0621B730B840B44
:1033B000BA0BEE1F88F7E09508950E949D1A88F0D9
:1033C0009F5798F0B92F9927B751B0F0E1F0660FE9
:1033D000771F881F991F1AF0BA95C9F714C0B1302A
:1033E00091F00E94B71AB1E008950C94B71A672FB4
:1033F000782F8827B85F39F0B93FCCF38695779559
:103400006795B395D9F73EF4909580957095619541
:103410007F4F8F4F9F4F0895E89409C097FB3EF46C
:1034200090958095709561957F4F8F4F9F4F992311
:10343000A9F0F92F96E9BB279395F695879577958F
:103440006795B795F111F8CFFAF4BB0F11F460FF4F
:103450001BC06F5F7F4F8F4F9F4F16C0882311F0A7
:1034600096E911C0772321F09EE8872F762F05C0BB
:10347000662371F096E8862F70E060E02AF09A9556
:10348000660F771F881FDAF7880F9695879597F94B
:103490000895990F0008550FAA0BE0E8FEEF1616E5
:1034A0001706E807F907C0F012161306E407F50738
:1034B00098F0621B730B840B950B39F40A2661F0AC
:1034C000232B242B252B21F408950A2609F4A1404F
:1034D000A6958FEF811D811D089597F99F6780E85C
:1034E00070E060E008959FEF80EC089500240A9456
:1034F0001616170618060906089500240A941216CF
:103500001306140605060895092E0394000C11F401
:10351000882352F0BB0F40F4BF2B11F460FF04C0AE
:103520006F5F7F4F8F4F9F4F089557FD9058440F07
:10353000551F59F05F3F71F04795880F97FB991F12
:1035400061F09F3F79F087950895121613061406CF
:10355000551FF2CF4695F1DF08C01616170618065C
:10356000991FF1CF86957105610508940895E89437
:10357000BB2766277727CB0197F908950E94491A40
:1035800008F48FEF08950E94D61A0C94841A0E94B2
:10359000761A38F00E947D1A20F0952311F00C94D1
:1035A0006D1A0C94731A11240C94B81A0E94951A6F
:1035B00070F3959FC1F3950F50E0551F629FF00186
:1035C000729FBB27F00DB11D639FAA27F00DB11D9F
:1035D000AA1F649F6627B00DA11D661F829F222728
:1035E000B00DA11D621F739FB00DA11D621F839FAF
:1035F000A00D611D221F749F3327A00D611D231F85
:10360000849F600D211D822F762F6A2F11249F57D2
:1036100050409AF0F1F088234AF0EE0FFF1FBB1FD5
:10362000661F771F881F91505040A9F79E3F510594
:1036300080F00C946D1A0C94B81A5F3FE4F3983E36
:10364000D4F3869577956795B795F795E7959F5F3E
:10365000C1F7FE2B880F911D9695879597F90895D0
:103660000E94491A880B990B0895A1E21A2EAA1BF1
:10367000BB1BFD010DC0AA1FBB1FEE1FFF1FA21722
:10368000B307E407F50720F0A21BB30BE40BF50B1F
:10369000661F771F881F991F1A9469F760957095A8
:1036A000809590959B01AC01BD01CF010895EE0F6F
:1036B000FF1F881F8BBF0790F691E02D1994F89497
:0236C000FFCF3A
:1036C200000020410000DC420000A0420000D24283
:1036D2000000000000007042000082420000C84268
:1036E200000000000000803F0000404133935B4433
:1036F200011020010204084080696E69745F7365DD
:103702007269616C3A207061737300696E69745FEB
:1037120063616E3A207265747279696E6700696ED0
:1037220069745F63616E3A207061737300696E69D8
:103732007420636F6D706C657465004D61737465A0
:10374200722043796C696E646572204F70656E00F9
:103752004D61737465722043796C696E6465722081
:10376200436C6F736500436F6E74726F6C20656E8D
:1037720061626C656400436F6E74726F6C20646981
:103782007361626C6564004F70657261746F722060
:103792006F76657272696465004261642076616C5D
:1037A200756520726561642066726F6D206D61734C
:1037B2007465722063796C696E64657220707265DB
:1037C20073737572652073656E736F720042616404
:1037D2002076616C756520726561642066726F6D1A
:1037E20020616363756D756C61746F7220707265B0
:1037F20073737572652073656E736F7200426164D4
:103802002076616C756520726561642066726F6DE9
:1038120020776865656C20707265737375726520B8
:1038220073656E736F72004661756C742072657099
:103832006F72742072656365697665642066726F63
:103842006D3A20002020445443733A2000696E6987
:103852007420436F6E74726F6C2043414E202D2092
:10386200000D0A006E616E00696E66006F7666007A
:10387200000000006514C810D6134314A813C21325
:02388200B4137D
:00000001FF
