:100000000C945E000C9486000C9486000C94860080
:100010000C9486000C9486000C9486000C94B20814
:100020000C9486000C9486000C9486000C948B082B
:100030000C9486000C9486000C9486000C94860028
:100040000C9436130C9486000C9427120C945912BD
:100050000C9486000C9486000C9486000C94860008
:100060000C9486000C948600000000080002010039
:100070000003040700000000000000000102040863
:100080001020408001020408102001020408102002
:10009000040404040404040402020202020203032E
:1000A0000303030300000000250028002B000000CC
:1000B0000000240027002A00DF12EE1211241FBEC8
:1000C000CFEFD8E0DEBFCDBF12E0A0E0B1E0ECE7BB
:1000D000FEE202C005900D92AA31B107D9F722E0E5
:1000E000AAE1B2E001C01D92A33FB207E1F710E020
:1000F000CEE5D0E004C02197FE010E943617CC3532
:10010000D107C9F70E94CA120C943C170C94000046
:100110000C94EA13CF93DF93EC01842F1E821F828D
:100120001886E4E0F0E0FA87E98791E09B8748834E
:1001300059833B832A836330710589F048F4613029
:10014000710581F06230710569F11D821C820EC05B
:100150006530710539F130F066307105B1F72CE08A
:1001600030E002C028E030E03D832C8361E00E9453
:100170004F1461E08A810E944F1461E088810E94DF
:100180008B1461E08A810E948B140E94600D8CB5F3
:100190008F7D8CBD8CB5837F8CBD8985DF91CF91A0
:1001A0000C9490122AE030E0DFCFFC0166830895C2
:1001B000FC0160870895FC016387862F08956130F4
:1001C000710521F4FC01178281E008956230710508
:1001D00021F421E0FC012783F7CF80E00895673008
:1001E000710540F4FC0172876187862F0E9490128E
:1001F00081E0089580E00895CF93DF93EC01888536
:100200008823F9F02A988F8171E0872790E0982F52
:1002100088279295990F907E2E8130E030E4239FBD
:10022000302D22271124932B892F0E94891280E0E0
:100230000E9489128885882349F02A9ADF91CF91FC
:10024000089560E088810E948B14DDCF61E0888191
:10025000DF91CF910C948B14DF92EF92FF920F936A
:100260001F93CF93DF938C017B01D42EFC018481FB
:1002700095818C30910509F043C0FFE0FF22F80121
:100280008085882309F447C02A98F801C681D0E008
:10029000D0E4CD9FD02DCC27112480E09D2D9795C3
:1002A00099279795C82BD92B878191E0892790E0D2
:1002B000982F88279295990F907EC82BD92BD061C3
:1002C000248135818CE090E0821B930B02C0EE0C00
:1002D000FF1C8A95E2F7CE29DF298D2F0E94891213
:1002E0008C2F0E948912F80180858823C9F02A9AF0
:1002F000DF91CF911F910F91FF90EF90DF900895C4
:100300008A30910519F483E0F822B9CF089709F0F3
:10031000B6CFFF24B4CF60E080810E948B14B5CFAC
:1003200061E08081DF91CF911F910F91FF90EF905D
:10033000DF900C948B1450E040E00C942C010C9452
:100340009B0141E050E00C942C01CF93DF93EC0132
:100350008A819B8197FD06C02885222331F05F9812
:1003600000005F9ADF91CF91089560E00E948B14A6
:1003700061E08A81DF91CF910C948B140F931F93CE
:10038000CF93DF93EC018A0150E040E00E942C0102
:1003900041E050E0B801CE010E942C018B858823FA
:1003A00039F0CE01DF91CF911F910F910C94A501EF
:1003B000DF91CF911F910F910895CF92DF92EF922D
:1003C000FF920F931F93CF93DF936A017B01E901A3
:1003D00081110EC0188219821A821B821C82DF9141
:1003E000CF911F910F91FF90EF90DF90CF900895E4
:1003F0000E9480132881211106C021E0288369838F
:100400007A838B839C8309811A812B813C81AB0188
:10041000BC01401B510B620B730B81E04C155D0559
:100420006E057F05E0F680E0DACF0F931F93FB01A6
:10043000BA01A9019801892B41F081E0EF2B09F065
:1004400080E01F910F910C94DD0181E0FACFCF93F2
:10045000DF93EC0180E591E00E949F1260E08889C3
:100460000E948B1480EC0E94891261E088890E94AE
:100470008B140E94B9126AE070E080E090E0DF9196
:10048000CF910C94B1131F93CF93DF93EC01162FF0
:1004900080E591E00E949F1260E088890E948B14A1
:1004A00083E00E948912812F0E94891280E00E94BD
:1004B0008912182F61E088890E948B140E94B9125A
:1004C000812FDF91CF911F910895DF92EF92FF92DC
:1004D0000F931F93CF93DF937C01162FD42EC52F3C
:1004E000D22F80E591E00E949F1260E0F7018089A1
:1004F0000E948B1483E00E948912812F0E9489122E
:100500000D2D1C2FC0E0CD1751F0C83041F080E018
:100510000E948912F80181938F01CF5FF4CF61E0CF
:10052000F70180890E948B14DF91CF911F910F9169
:10053000FF90EF90DF900C94B9120F931F93CF931D
:10054000DF93EC01062F142F80E591E00E949F12AB
:1005500060E088890E948B1482E00E948912802FBB
:100560000E948912812F0E94891261E088890E946D
:100570008B14DF91CF911F910F910C94B912DF92E0
:10058000EF92FF920F931F93CF93DF937C01C62FBF
:10059000D42E152F022F80E591E00E949F1260E07B
:1005A000F70180890E948B1482E00E9489128C2FAF
:1005B0000E948912CD2DD12F0C0F1D2F111DC01798
:1005C000D10721F089910E948912F9CF61E0F701EA
:1005D00080890E948B14DF91CF911F910F91FF9022
:1005E000EF90DF900C94B912FF920F931F93CF936B
:1005F000DF93EC01F62E042F122F80E591E00E948C
:100600009F1260E088890E948B1485E00E94891205
:100610008F2D0E948912802F0E948912812F0E94A3
:10062000891261E088890E948B14DF91CF911F911C
:100630000F91FF900C94B9121F93CF93DF93EC01AD
:1006400080E591E00E949F1260E088890E948B14EF
:1006500080EA0E94891280E00E948912182F61E0CE
:1006600088890E948B140E94B912812FDF91CF914B
:100670001F9108950F931F93CF938C01C62F262FA0
:1006800040EE6FE00E94F4026FE0C8010E94430256
:10069000982F907E81E09C1301C080E0CF911F9144
:1006A0000F9108950F931F93CF93DF9361506231A1
:1006B00008F066C0E62FF0E0E05AFC4F0C943617C5
:1006C000BC03C203720389038C038F039303970354
:1006D0009A039E03A103A403A703AA03AE03B203D4
:1006E000B603B903D7E8CFEF4FE08C016AE20E946E
:1006F0009D024C2F69E2C8010E949D024D2F68E2C5
:10070000C8010E949D0280E0DF91CF911F910F915F
:100710000895D7E0CAEBE8CFD5E8C1EFE5CFD7E041
:10072000CEEB49E0E2CFD7E8CFEF47E0DECFD7E826
:10073000CAEFFBCFD7E8CFEF43E0D7CFD7E0CEEB80
:10074000FBCFD7E0CDEAF8CFD7E8CAEFF5CFD6E8B0
:10075000C0EFF2CFD7E8CAEF41E0C7CFD5E8C1EF8D
:1007600041E4C3CFD6E8C0EF40E0BFCFD4E0C0EA59
:10077000FBCFD2E8C0EDF8CFD7E8CFEF4FE3B5CF4E
:1007800081E0C2CFD7E8CFEF4FE1AFCF0F931F93F8
:10079000CF938C01C0E340E06C2FC8010E949D0202
:1007A00060E16C0F40E0C8010E949D0260E26C0FA6
:1007B00040E0C8010E949D02CF5FCE3361F740E068
:1007C00060E6C8010E949D0240E060E7C801CF9149
:1007D0001F910F910C949D020F931F93CF93DF9362
:1007E000EC01062F0E94270260E8CE010E943A0326
:1007F000182F6AE070E080E090E0112341F00E9441
:10080000B113812FDF91CF911F910F9108950E9415
:10081000B113602FCE010E945203882329F06AE0B1
:1008200070E080E090E0EBCF6AE070E080E090E084
:100830000E94B113CE010E94C60343E06BE2CE01D9
:100840000E949D0224E044E660E6CE010E94F4028C
:1008500020E040E660E7CE010E94F40260E0CE01B5
:100860000E943A03C82F8823D1F26AE070E080E04A
:1008700090E00E94B1131C2FC4CF0F931F93CF930E
:10088000DF9300D000D0CDB7DEB7413021F50C8327
:100890001B83890122273327402F440F440F440F25
:1008A000407E502F53705860452B4A8355E0169573
:1008B00007955A95E1F7098324E0AE014F5F5F4F3A
:1008C0000E94BF020F900F900F900F90DF91CF9179
:1008D0001F910F910895A80123E0569547952A95F9
:1008E000E1F749830295000F007E0A831C821B8278
:1008F000E3CFEF92FF920F931F93CF93DF9300D03C
:1009000000D0CDB7DEB77A018901FA011082F90172
:10091000108211821282138224E0AE014F5F5F4F7A
:100920000E9465022A818981F8E08F9FC00111240D
:10093000422F50E065E0559547956A95E1F7840FA1
:10094000951F092E000CAA0BBB0BF8018083918325
:10095000A283B38323FF25C032E0880F991FAA1F0B
:10096000BB1F3A95D1F72370820F911DA11DB11DB8
:10097000BA2FA92F982F88272B81820F911DA11D97
:10098000B11DBA2FA92F982F88272C81820F911D76
:10099000A11DB11D80839183A283B38381E0F70100
:1009A00080830F900F900F900F90DF91CF911F9148
:1009B0000F91FF90EF900895FF920F931F93CF93A5
:1009C000DF93EC01F62E8A01AC014A5F5F4F65E0D0
:1009D0006F0D2D810E94BF020130110519F48D8128
:1009E00080648D8364E06F0D4D81CE010E949D0275
:1009F00009811A812B813C8148816F2DCE010E9493
:100A00003D04DF91CF911F910F91FF9008950F93B7
:100A10001F93CF93DF93EC01162F9C012F5F3F4F65
:100A2000AC010E9479046FEF610FCE010E94430276
:100A3000082F64E0610FCE010E94430203FB0027F0
:100A400000F90E87282F2F702D83AE014A5F5F4F6C
:100A500065E0610FCE01DF91CF911F910F910C9452
:100A60006502615028E048E00C94F4028F929F9256
:100A7000AF92BF92CF92DF92EF92FF921F93CF93EC
:100A8000DF9300D01F92CDB7DEB74C016B01809190
:100A9000020190910301A091040189839A83AB83A1
:100AA000FB011082CE0101967C015E0194E0A90E4B
:100AB000B11CF70111917F01612FC4010E94430213
:100AC00083FD13C01F5FF601108380E00F900F902D
:100AD0000F90DF91CF911F91FF90EF90DF90CF901B
:100AE000BF90AF909F908F900895EA14FB0409F790
:100AF00082E0ECCFFC01608B08951F93CF93DF93CE
:100B0000EC01162F61E088890E944F1461E088890A
:100B10000E948B140E94600D612FCE010E94EC0395
:100B200091E0811101C090E0892FDF91CF911F9159
:100B300008958F929F92AF92BF92DF92EF92FF92B1
:100B40000F931F93CF93DF937C01D62ED42F59019F
:100B50006AE070E080E090E00E94B11360E8C701B5
:100B60000E943A03C82F882399F06AE070E080E081
:100B700090E00E94B1138C2FDF91CF911F910F91C4
:100B8000FF90EF90DF90BF90AF909F908F9008956F
:100B9000D1100CC095014D2F60E2C7010E943D04A9
:100BA00060E0C7010E943A03C82FDFCF81E0D8126E
:100BB000F7CF95014D2F64E2F0CF8F929F92AF92C5
:100BC000BF92EF92FF920F931F93CF93DF93EC01AD
:100BD000F62EE42E480159016AE070E080E090E0D2
:100BE0000E94B11360E8CE010E943A03182F8823B7
:100BF00091F06AE070E080E090E00E94B113812FF4
:100C0000DF91CF911F910F91FF90EF90BF90AF9028
:100C10009F908F90089582E0F81639F18F1558F063
:100C2000FF20B1F081E0F816D9F060E0CE010E941B
:100C30003A03182FDECF84E0F81609F1F816D0F049
:100C400085E0F812F2CF950184014E2D68E104C0D1
:100C5000950184014E2D60E0CE010E943D04E5CF58
:100C6000950184014E2D64E0F7CF950184014E2D4E
:100C700068E0F2CF950184014E2D60E1EDCF950142
:100C800084014E2D64E1E8CFCF92DF920F931F9342
:100C9000FC0120834183528363837483093008F00D
:100CA00008E005833696D60110E0CD018C199D0928
:100CB000801791071CF48D918193F7CF80E01F91ED
:100CC0000F91DF90CF900895EF92FF920F931F93B3
:100CD000FC0120834183528363837483093008F0CD
:100CE00008E005833696D70110E0CD018E199F09E3
:100CF000801791071CF48D918193F7CF80E01F91AD
:100D00000F91FF90EF900895FC01118212821382DF
:100D10001482158210821686178680E00895CF927D
:100D2000DF92EF92FF920F931F93CF93DF931F9267
:100D3000CDB7DEB77C016B0110E000E0BE016F5F54
:100D40007F4FC7010E9436050F5F1F4F823029F485
:100D50000233110599F796E021C002331105D9F34A
:100D6000A6016981C7010E94DC046981C7010E9454
:100D7000310510E000E00F5F1F4F69816150C7012E
:100D80000E944302982F987083FF05C0023311051B
:100D900091F797E003C002331105D9F3892F0F9023
:100DA000DF91CF911F910F91FF90EF90DF90CF9047
:100DB0000895AF92BF92CF92DF92EF920F93CF93AD
:100DC0005C01C02F0E2DEC2E0E9444066C2F70E0AB
:100DD000C501CF910F91EF90DF90CF90BF90AF9072
:100DE0000C948F06EF92FF920F93CF93DF93EC0159
:100DF0000E94640670E060E0CE01DF91CF910F9118
:100E0000FF90EF900C948F06CF93DF93EC010E943C
:100E10001C0380FF0EC061E6CE010E94070520E0A2
:100E200041E06CE2CE010E94F40280E0DF91CF91BC
:100E3000089581FF07C061E7CE010E94070520E009
:100E400042E0EFCF84E0F2CFEF92FF920F931F9337
:100E5000CF93DF93EC018B017A010E94040781118B
:100E600011C09D81F8019083DE011696F7019D81E6
:100E70009F012E193F099217130631F02CF09D9116
:100E80009193F5CFF8011082DF91CF911F910F91CF
:100E9000FF90EF900895CF92DF92EF92FF920F9321
:100EA0001F93CF93DF93EC016B018A0179010E94BC
:100EB000040781111EC09D81F801908349815A81E8
:100EC0006B817C81F6014083518362837383DE01F1
:100ED0001696F70130E020E09D819217130659F035
:100EE00054F02830310539F09D9191932F5F3F4F99
:100EF000F3CFF8011082DF91CF911F910F91FF90F6
:100F0000EF90DF90CF9008950E941C03837011F43E
:100F100084E0089583E008956DE20E944302887F93
:100F200009F085E00895FC016181728183819481DB
:100F30000895FC0186850895FC018081089526E0CE
:100F400040E052EC61E070E08DE492E00E94B20E6D
:100F500065E071E08DE492E00C94E50FCF93DF93B0
:100F6000EC0160E1CE010E947D05882369F062E317
:100F700070E080E090E00E94B11367E171E08DE4E1
:100F800092E00E94E50FEDCF6AE271E08DE492E01D
:100F9000DF91CF910C94E50FCF93DF93611571052D
:100FA00001F1EB0121E1FB0111922A95E9F7F89497
:100FB0009B01275F3F4FAB014C5F5F4F0E944B0788
:100FC00081110CC00E9480136D837E838F8398876C
:100FD00090E080E07894DF91CF91089581E090E0F7
:100FE000F9CF82E090E0F7CF4F925F926F927F92BD
:100FF0008F929F92AF92BF92CF92DF92EF92FF9229
:101000000F931F93CF93DF9300D000D000D0CDB7C4
:10101000DEB79E838D83042F122F6B01770FEE08AE
:10102000FF08412C512C3201812C912C54014C147D
:101030005D046E047F048CF4802F0E941B13092E24
:10104000000CAA0BBB0B880E991EAA1EBB1E8FEFAD
:10105000481A580A680A780AEACFC501B401A701FC
:1010600096010E941717DA01C90132E0880F991F13
:10107000AA1FBB1F3A95D1F789839A83AB83BC83A0
:10108000412C512C3201812C912C54014C145D04C3
:101090006E047F048CF4812F0E941B13092E000C18
:1010A000AA0BBB0B880E991EAA1EBB1E9FEF491AE6
:1010B000590A690A790AEACF69817A818D819E810C
:1010C0000E949F01C501B401A70196010E94171754
:1010D000CA01B90122E0660F771F881F991F2A9560
:1010E000D1F78D819E8126960FB6F894DEBF0FBE94
:1010F000CDBFDF91CF911F910F91FF90EF90DF90C7
:10110000CF90BF90AF909F908F907F906F905F90A7
:101110004F900C94A1011F920F920FB60F921124C1
:101120002F933F934F935F936F937F938F939F93EF
:10113000AF93BF93EF93FF93E0911C02F0911D02D8
:101140000995FF91EF91BF91AF919F918F917F9101
:101150006F915F914F913F912F910F900FBE0F9024
:101160001F9018951F920F920FB60F9211242F9374
:101170003F934F935F936F937F938F939F93AF931F
:10118000BF93EF93FF93E0911A02F0911B02099530
:10119000FF91EF91BF91AF919F918F917F916F914F
:1011A0005F914F913F912F910F900FBE0F901F9025
:1011B0001895CF92DF92EF92FF92CF93DF936B015E
:1011C0007C01EA01F8941092800010928100109244
:1011D00085001092840020E030E040E857E40E944F
:1011E00083169B01AC0160E074E284E79BE40E94FB
:1011F0002B150E949D15613021E072078105910534
:1012000008F449C08091810085608093810060E08E
:1012100074E080E090E00E94CC15A70196010E9446
:1012200083169B01AC0160E074E284E79BE40E94BA
:101230002B1520E030E040E85FE30E94B9140E94E3
:101240009D156115710521E08207910508F05AC0CE
:10125000611571058105910521F461E070E080E080
:1012600090E070938900609388008091810088608D
:101270008093810080916F00826080936F00D09393
:101280001D02C0931C027894DF91CF91FF90EF90E4
:10129000DF90CF900895613471058105910550F07C
:1012A0008091810084608093810060E071E080E043
:1012B00090E0B1CF693071058105910550F08091C2
:1012C000810083608093810060E470E080E090E0C2
:1012D000A2CF623071058105910550F080918100A7
:1012E00082608093810068E070E080E090E093CFBE
:1012F0008091810081608093810061E070E080E0F6
:1013000090E089CF6FEF7FEF80E090E0AACFCF929F
:10131000DF92EF92FF92CF93DF936B017C01EA01A2
:10132000F8941092B0001092B1001092B20020E038
:1013300030E040E853E40E9483169B01AC0160E07A
:1013400074E284E79BE40E942B150E949D15613096
:1013500021E072078105910508F447C08091B10032
:1013600087608093B10060E074E080E090E00E94CC
:10137000CC15A70196010E9483169B01AC0160E089
:1013800074E284E79BE40E942B1520E030E040E803
:101390005FE30E94B9140E949D156F3F710581059E
:1013A000910511F008F076C0611571058105910570
:1013B00021F461E070E080E090E06093B300809100
:1013C000B10082608093B100809170008260809350
:1013D0007000D0931B02C0931A027894DF91CF91D2
:1013E000FF90EF90DF90CF900895613871058105EF
:1013F000910550F08091B10086608093B10060E06B
:1014000071E080E090E0B3CF613471058105910512
:1014100050F08091B10085608093B10060E870E089
:1014200080E090E0A4CF613271058105910550F014
:101430008091B10084608093B10060E470E080E04E
:1014400090E095CF693071058105910550F080914C
:10145000B10083608093B10060E270E080E090E0D2
:1014600086CF623071058105910550F08091B10001
:1014700082608093B10068E070E080E090E077CF18
:101480008091B10081608093B10061E070E080E004
:1014900090E06DCF6FEF70E080E090E08ECF0F9323
:1014A0001F93CF93DF9320911E02222309F43AC0A9
:1014B0008C01843527E0920710F003E517E00C3328
:1014C00022E0120710F40CE312E0613121E0720710
:1014D00088F0D62FC72F663923E0720710F0D5E9C0
:1014E000C3E08935924058F46D32714040F4F8946D
:1014F00060E007C0D1E1C1E089359240C0F3F894C3
:1015000061E085E00E948B147894F894B80182E33E
:1015100092E00E949F016D2F7C2F82E392E00E9457
:10152000A1017894DF91CF911F910F910895CF93EE
:10153000C1E0C093000180911E0281111BC0809107
:101540001F02811117C02EE04FE064E170E082E3DA
:1015500092E00E94F407F89461E086E00E948B1408
:101560007894C0931E0267E471E08DE492E0CF911D
:101570000C94E50FCF91089580911E028823E1F02D
:10158000109200012EE04FE064E170E082E392E00F
:101590000E94F407F89460E086E00E948B1460E0FB
:1015A00085E00E948B14789410921E0267E571E02A
:1015B0008DE492E00C94E50F0895DF92EF92FF9294
:1015C0000F931F93CF93DF93F8948EE00E941B1329
:1015D000EC018FE00E941B137C01809100018823A5
:1015E000D1F068E671E08DE492E00E94A40F4AE039
:1015F00050E0BE018DE492E00E94051167E771E0C2
:101600008DE492E00E94A40F4AE050E0B7018DE41F
:1016100092E00E940B11789480911E02811105C006
:1016200080912002882309F448C081E09E012E0D9C
:101630003F1D2430314008F480E02EE332E044E6E0
:1016400050E060E070E00E94DD01D82E03E412E07B
:1016500024E630E040E050E0B701CE010E941502E0
:101660008823B1F00E94BC0A80912002816080939F
:1016700020020E94990B6CE771E08DE492E0DF910B
:10168000CF911F910F91FF90EF90DF900C94E50F99
:10169000DD2079F00E94BC0A809120028260809354
:1016A00020020E94990B81E080931F026CEA71E096
:1016B000E4CF1092200210921F02DF91CF911F9170
:1016C0000F91FF90EF90DF900895EF92FF920F93AC
:1016D000CF93DF93CDB7DEB728970FB6F894DEBF70
:1016E0000FBECDBF85E089838CEC8A83EEE1F2E00A
:1016F00080818B8381818C8382818D83F894CE015C
:1017000001967C0108E020E043E750E060E070E0F3
:1017100081E292E00E94F206789428960FB6F8943F
:10172000DEBF0FBECDBFDF91CF910F91FF90EF9045
:101730000895EF92FF920F93CF93DF93CDB7DEB76B
:1017400028970FB6F894DEBF0FBECDBF85E0898322
:101750008CEC8A831B821C821D821E828091200257
:101760008F83F894CE0101967C0108E020E04FEAD7
:1017700050E060E070E081E292E00E94F20678942E
:1017800028960FB6F894DEBF0FBECDBFDF91CF9184
:101790000F91FF90EF9008958F929F92AF92BF921A
:1017A000CF92DF92EF92FF92CF93DF93CDB7DEB768
:1017B00061970FB6F894DEBF0FBECDBFBE016F5F5D
:1017C0007F4F81E292E00E94CC07892B89F48A85C1
:1017D000853071F48B858C3C59F489819A81AB8179
:1017E000BC8180379105A105B10599F40E94970A43
:1017F00061960FB6F894DEBF0FBECDBFDF91CF91DB
:10180000FF90EF90DF90CF90BF90AF909F908F9020
:10181000089581379105A105B10519F40E94BC0A0C
:10182000E7CF82379105A105B10509F0A7C0CC84A7
:10183000DD84EE84FF8420E030E0A901C701B60119
:101840000E94261587FD6BC020E030E040E85FE392
:10185000C701B6010E947E1618160CF464C025ED6F
:1018600038E749E45FE3C701B6010E9483162AEF17
:101870003EE74AEA5EE30E94BA144B015C012AEF9C
:101880003EE74AEA5EE30E94261587FD53C029E23F
:101890003CE54FE85FE3C501B4010E947E161816CF
:1018A0000CF451C028EA36EC4BEC5FE3C701B601FB
:1018B0000E94831621E230EB42E35FE30E94BA14F8
:1018C0006B017C0121E230EB42E35FE30E942615CD
:1018D00087FD42C02CE53FE842E150E4C701B60174
:1018E0000E947E1618160CF440C02DEC3CEC4CE423
:1018F00054E4C501B4010E9483160E949D154B015A
:101900002DEC3CEC4CE454E4C701B6010E94831674
:101910000E949D15CB01B4010E944F0A69CFC12CD2
:10192000D12C76019CCFC12CD12C40E8E42E4FE382
:10193000F42E95CF3AEF832E3EE7932E3AEAA32E6C
:101940003EE3B32EAFCF29E2822E2CE5922E2FE874
:10195000A22E2FE3B22EA6CF91E2C92E90EBD92E64
:1019600092E3E92E9FE3F92EC0CF8CE5C82E8FE8D5
:10197000D82E82E1E82E80E4F82EB7CF8F3A910579
:10198000A105B10509F034CF0E94BC0A6EEB71E0ED
:101990008DE492E00E94A40F4C855D856E857F8565
:1019A0002AE030E08DE492E00E94DF106BED71E000
:1019B0008DE492E00E94A40F4AE050E068898DE433
:1019C00092E00E94F31014CFEEE1F2E01082118257
:1019D0001282089561E089E00E944F1460E08EE079
:1019E0000E944F1460E08FE00E944F1460E080E19D
:1019F0000E944F1460E081E10E944F1461E086E094
:101A00000E944F1461E085E00E944F14F89461E059
:101A100089E00E948B1460E086E00E948B1460E0F5
:101A200085E00E948B14789408950F931F930E9471
:101A30009F0764EE71E08DE492E00E94A40F81E2C2
:101A400092E00E94AE0700EF17E020E030E040E0B7
:101A500060E081E292E00E94990500E710E020E05A
:101A600030E040E060E081E292E00E94DD0500EAC3
:101A700010E020E030E040E061E081E292E00E948E
:101A8000DD050FEF17E020E030E040E061E081E2AB
:101A900092E00E94990501E710E020E030E041E08B
:101AA00062E081E292E00E94DD051F910F910895AE
:101AB00045E65BE060E070E088E492E40C94D908CD
:101AC000CF93CFB7F89480914B02811127C0EAE9F8
:101AD000F0E08491E6E8F0E09491E82FF0E0EE0F7A
:101AE000FF1FE255FF4FA591B491EC91E92321F43A
:101AF00061E08AE00E948B1461E08AE00E944F144A
:101B00008CB580618CBD8CB580648CBD61E08DE04E
:101B10000E944F1461E08BE00E944F1480914B02B1
:101B20008F5F80934B02CFBFCF9108959FB7F894FA
:101B300080914B02882319F0815080934B02809151
:101B40004B02811105C08CB58F7B8CBD10924A026F
:101B50009FBF08952FB7F89491E0882339F092E061
:101B6000813021F082E080934A0290E08091490226
:101B7000892B8093490280914A02811103C081E040
:101B800080934A022FBF089590914A029230A1F0AB
:101B90009FB7F894882321F0813079F080E001C06C
:101BA00081E080952091490282238093490281112E
:101BB00002C010924A029FBF089582E0F2CFFC015A
:101BC000918D228D892F90E0805C9F4F821B91091F
:101BD0008F7399270895FC01918D828D981731F0AC
:101BE000828DE80FF11D858D90E008958FEF9FEFB6
:101BF0000895FC01918D828D981761F0A28DAE0F32
:101C0000BF2FB11D5D968C91928D9F5F9F73928FB8
:101C100090E008958FEF9FEF0895FC01538D448D60
:101C2000252F30E0842F90E0821B930B541710F087
:101C3000CF960895019708958FE792E1892B49F097
:101C400080E090E0892B29F00E947F1281110C9492
:101C500000000895FC01A48DA80FB92FB11DA35A4F
:101C6000BF4F2C91848D90E001968F739927848FBC
:101C7000A689B7892C93A089B1898C9180648C93B3
:101C8000938D848D981306C00288F389E02D80819E
:101C90008F7D80830895CF93DF93EC01888D882317
:101CA000B9F0AA89BB89E889F9898C9185FD03C0BF
:101CB000808186FD0DC00FB607FCF7CF8C9185FFA4
:101CC000F2CF808185FFEDCFCE010E942A0EE9CFB1
:101CD000DF91CF910895EF92FF920F931F93CF93CF
:101CE000DF93EC0181E0888F9B8D8C8D981316C05B
:101CF000E889F989808185FF11C0EE89FF896083B9
:101D0000E889F98980818064808381E090E0DF91B7
:101D1000CF911F910F91FF90EF900895F62E0B8DAC
:101D200010E00F5F1F4F0F731127E02E8C8D8E1167
:101D30000CC00FB607FCFACFE889F989808185FFCE
:101D4000F5CFCE010E942A0EF1CFEB8DEC0FFD2FC7
:101D5000F11DE35AFF4FF0820B8FEA89FB898081E6
:101D60008062D2CFCF92DF92EF92FF921F93CF93F8
:101D7000DF93EC016A017B01122FE889F98982E087
:101D80008083C11481EED806E104F104A1F060E083
:101D900079E08DE390E0A70196010E94F5162150AD
:101DA00031094109510956954795379527952115D0
:101DB00080E1380798F0E889F989108260E874E8D2
:101DC0008EE190E0A70196010E94F516215031099D
:101DD000410951095695479537952795EC85FD851D
:101DE0003083EE85FF852083188EEC89FD89108372
:101DF000EA89FB89808180618083EA89FB8980810F
:101E000088608083EA89FB89808180688083EA8991
:101E1000FB8980818F7D8083DF91CF911F91FF901F
:101E2000EF90DF90CF900895CF93DF93EC01E8819E
:101E3000F9810680F781E02D0995EA89FB89808187
:101E40008F7E8083EA89FB898081877F8083EA890E
:101E5000FB8980818F778083EA89FB8980818F7DF0
:101E600080838A8D898FDF91CF910895AF92BF9241
:101E7000CF92DF92EF92FF920F931F93CF93DF9356
:101E80006C017B018B01040F151FEB015E01AE1885
:101E9000BF08C017D10759F06991D601ED91FC91A7
:101EA0000190F081E02DC6010995892B79F7C501D4
:101EB000DF91CF911F910F91FF90EF90DF90CF9026
:101EC000BF90AF900895FB0101900020E9F7319792
:101ED000AF01461B570BDC01ED91FC910280F381B1
:101EE000E02D0994EF92FF920F931F93CF93DF930E
:101EF0008C017B01D0E0C0E0F701EC0FFD1F649185
:101F0000662361F0D801ED91FC910190F081E02D04
:101F1000C8010995892B11F02196EECFCE01DF91F2
:101F2000CF911F910F91FF90EF900895DB011496D0
:101F30004D915C9115976D917C91DC01ED91FC9137
:101F40000280F381E02D09946115710511F00C9464
:101F5000630F90E080E00895DC01ED91FC91019029
:101F6000F081E02D0994DB01ED91FC911197019036
:101F7000F081E02DBC01CD0109946AE072E00C947F
:101F8000630F0F931F93CF93DF93EC010E94720FA7
:101F90008C01CE010E94BD0F800F911FDF91CF9168
:101FA0001F910F9108950F931F93CF93DF93EC012F
:101FB0000E94960F8C01CE010E94BD0F800F911FD1
:101FC000DF91CF911F910F9108950F931F93CF939E
:101FD000DF938C01D0E0C0E06115710519F00E941B
:101FE000630FEC01C8010E94BD0F8C0F9D1FDF9194
:101FF000CF911F910F9108950F931F93CF93DF936C
:10200000EC010E94AC0F8C01CE010E94BD0F800F2D
:10201000911FDF91CF911F910F9108950F931F93FF
:10202000CF93DF93EC010E94B30F8C01CE010E948D
:10203000BD0F800F911FDF91CF911F910F910895D8
:102040008F929F92AF92BF92EF92FF920F931F9346
:10205000CF93DF93CDB7DEB7A1970FB6F894DEBF6D
:102060000FBECDBF7C01FA01CB0119A2223008F4CA
:102070002AE08E010F5D1F4F822E912CB12CA12CD6
:10208000BF01A50194010E94F516F901CA016A3049
:102090000CF5605DD8016E938D01232B242B252B2D
:1020A00079F790E080E0109721F0BD01C7010E9410
:1020B000630FA1960FB6F894DEBF0FBECDBFDF91C0
:1020C000CF911F910F91FF90EF90BF90AF909F9095
:1020D0008F900895695CDECFCF92DF92EF92FF92EE
:1020E0000F931F93CF93DF932115310581F4DC010A
:1020F000ED91FC910190F081E02D642FDF91CF9163
:102100001F910F91FF90EF90DF90CF9009942A30AC
:10211000310501F52AE077FF1DC06A017B01EC0162
:102120006DE20E94AC0F8C0144275527BA014C196F
:102130005D096E097F092AE0CE010E942010800F00
:10214000911FDF91CF911F910F91FF90EF90DF9042
:10215000CF900895DF91CF911F910F91FF90EF9055
:10216000DF90CF900C9420109A01AB01770F660B93
:10217000770B0C946C100F931F93CF93DF93EC01AC
:102180000E94B4108C01CE010E94BD0F800F911FE0
:10219000DF91CF911F910F9108950F931F93CF93CC
:1021A000DF93EC010E946C108C01CE010E94BD0FE8
:1021B000800F911FDF91CF911F910F9108952115ED
:1021C000310541F4DC01ED91FC910190F081E02DAD
:1021D000642F09940C9420109A01462F50E070E06F
:1021E00060E00C94DF100F931F93CF93DF93EC010B
:1021F0000E94EC108C01CE010E94BD0F800F911F38
:10220000DF91CF911F910F9108959A01AB0170E07A
:1022100060E00C94DF100F931F93CF93DF93EC01DA
:102220000E9405118C01CE010E94BD0F800F911FED
:10223000DF91CF911F910F9108950F931F93CF932B
:10224000DF93EC010E94DF108C01CE010E94BD0FD4
:10225000800F911FDF91CF911F910F9108952F92C1
:102260003F924F925F926F927F928F929F92AF9226
:10227000BF92CF92DF92EF92FF921F93CF93DF93A3
:10228000EC016A017B01722EAB019601CB01B60114
:102290000E94F0166DE072E0811126C046015701E0
:1022A000E894B7F82FEF3FEF4FE75FE7C501B401C0
:1022B0000E94F01681110CC02FEF3FEF4FE75FE750
:1022C000C501B4010E94261561E172E0181664F0A0
:1022D0002FEF3FEF4FE75FE4C701B6010E947E1684
:1022E0001816B4F465E172E0CE01DF91CF911F9131
:1022F000FF90EF90DF90CF90BF90AF909F908F9026
:102300007F906F905F904F903F902F900C94630F51
:102310002FEF3FEF4FE75FECC701B6010E94261594
:1023200087FDE0CF20E030E0A901C701B6010E949F
:102330002615312C212C87FF09C06DE2CE010E94A9
:10234000AC0F1C01F7FAF094F7F8F09410E060E09D
:1023500070E080E09FE3711641F020E030E040E261
:1023600051E40E942B151F5FF6CFA70196010E9432
:10237000BA142B013C010E949D154B015C012AE01F
:10238000BC01A401CE010E9420107C01E20CF31CD0
:102390001123B1F1C501B4010E94CC159B01AC0120
:1023A000C301B2010E94B9144B015C016EE2CE017F
:1023B0000E94AC0FE80EF91E115010F120E030E041
:1023C00040E251E4C501B4010E9483162B013C0197
:1023D0000E949D154B014AE050E0CE010E9405117C
:1023E000E80EF91EB40190E080E00E94CC159B013C
:1023F000AC01C301B2010E94B9144B015C01DCCFF6
:10240000C701DF91CF911F91FF90EF90DF90CF90A8
:10241000BF90AF909F908F907F906F905F904F9004
:102420003F902F9008950C942F110F931F93CF93EB
:10243000DF93EC010E942F118C01CE010E94BD0F91
:10244000800F911FDF91CF911F910F9108951F92DF
:102450000F920FB60F9211242F938F939F93EF93A8
:10246000FF93E0915D02F0915E028081E091630252
:10247000F091640282FD1BC09081809166028F5FA3
:102480008F7320916702821741F0E0916602F0E0BD
:10249000E35BFD4F958F80936602FF91EF919F91D3
:1024A0008F912F910F900FBE0F901F9018958081E4
:1024B000F4CF1F920F920FB60F9211242F933F93D8
:1024C0004F935F936F937F938F939F93AF93BF933C
:1024D000EF93FF938DE492E00E942A0EFF91EF911B
:1024E000BF91AF919F918F917F916F915F914F912C
:1024F0003F912F910F900FBE0F901F9018958DE474
:1025000092E00E94DF0D21E0892B09F420E0822F68
:1025100008958EBD00000DB407FEFDCF8EB5089561
:102520009CB59C7F282F2370922B9CBD9DB582FB70
:10253000222720F9892F8E7F822B8DBD089520912F
:102540004A02222381F03FB7F89420914A022130B9
:1025500069F42DB3209348024DB320914902209590
:1025600024232DBB3FBF8CBD9DBD089530934802F1
:10257000FACF80914A02882361F09FB7F8942091A6
:102580004A0280914802213019F48DBB9FBF089503
:102590008FBF08950E9488000E94E40C0E94EA0CFC
:1025A0000E94150D0E94580D69E371E08DE492E0E0
:1025B0000E94E50F0E94CC0B0E94DD0AFBCF2FEF9B
:1025C0003FEF49E050E066E070E082E392E00E9475
:1025D0008A006AE081E292E00C947A05EDE4F2E090
:1025E0001382128288EE93E0A0E0B0E084839583AA
:1025F000A683B7838CEF91E09183808385EC90E094
:102600009587848784EC90E09787868780EC90E0BC
:10261000918B808B81EC90E0938B828B82EC90E0AD
:10262000958B848B86EC90E0978B868B118E128E27
:10263000138E148E08958E3008F08E502091010173
:1026400090E4299F900111248770822B80937C0055
:1026500080917A00806480937A0080917A0086FD70
:10266000FCCF809178009091790008951F920F928D
:102670000FB60F9211242F933F938F939F93AF9395
:10268000BF938091EB029091EC02A091ED02B0918A
:10269000EE023091EA0223E0230F2D3758F5019620
:1026A000A11DB11D2093EA028093EB029093EC02EE
:1026B000A093ED02B093EE028091EF029091F002B0
:1026C000A091F102B091F2020196A11DB11D80937B
:1026D000EF029093F002A093F102B093F202BF9147
:1026E000AF919F918F913F912F910F900FBE0F90BF
:1026F0001F90189526E8230F0296A11DB11DD2CF79
:102700002FB7F8946091EB027091EC028091ED028A
:102710009091EE022FBF08953FB7F8948091EF0299
:102720009091F002A091F102B091F20226B5A89B1F
:1027300005C02F3F19F00196A11DB11D3FBFBA2F53
:10274000A92F982F8827BC01CD01620F711D811D13
:10275000911D42E0660F771F881F991F4A95D1F798
:1027600008958F929F92AF92BF92CF92DF92EF9295
:10277000FF926B017C010E948C134B015C01C11420
:10278000D104E104F104E9F00E9425140E948C13A5
:10279000681979098A099B09683E7340810591058A
:1027A00070F321E0C21AD108E108F10888EE880E22
:1027B00083E0981EA11CB11CC114D104E104F104F2
:1027C00029F7FF90EF90DF90CF90BF90AF909F9050
:1027D0008F900895789484B5826084BD84B58160BB
:1027E00084BD85B5826085BD85B5816085BDEEE619
:1027F000F0E0808181608083E1E8F0E010828081F8
:1028000082608083808181608083E0E8F0E0808165
:1028100081608083E1EBF0E0808184608083E0EB85
:10282000F0E0808181608083EAE7F0E0808184606D
:1028300080838081826080838081816080838081C9
:10284000806880831092C10008950895833081F0DC
:1028500028F4813099F08230A9F008958730A9F0EA
:102860008830C9F08430B1F4809180008F7D03C03E
:10287000809180008F7780938000089584B58F7752
:1028800084BD089584B58F7DFBCF8091B0008F7794
:102890008093B00008958091B0008F7DF9CFCF93E1
:1028A000DF9390E0FC01E458FF4F249180579F4F45
:1028B000FC0184918823C9F090E0880F991FFC01E6
:1028C000E255FF4FA591B491FC01EC55FF4FC59126
:1028D000D49161110DC09FB7F8948C9120958223FB
:1028E0008C938881282328839FBFDF91CF910895FF
:1028F000623051F49FB7F8943C91822F80958323E6
:102900008C93E8812E2BEFCF8FB7F894EC912E2B80
:102910002C938FBFEACF1F93CF93DF93282F30E004
:10292000F901E859FF4F8491F901E458FF4FD49120
:10293000F901E057FF4FC491CC23A9F0162F811164
:102940000E942614EC2FF0E0EE0FFF1FEC55FF4F16
:10295000A591B4918FB7F894EC91111108C0D0955E
:10296000DE23DC938FBFDF91CF911F910895DE2B83
:10297000F8CF5058BB27AA270E94D1140C944416B4
:102980000E94361638F00E943D1620F039F49F3F21
:1029900019F426F40C9433160EF4E095E7FB0C942E
:1029A0002D16E92F0E94551658F3BA1762077307C0
:1029B0008407950720F079F4A6F50C9477160EF4A9
:1029C000E0950B2EBA2FA02D0B01B90190010C013F
:1029D000CA01A0011124FF27591B99F0593F50F457
:1029E000503E68F11A16F040A22F232F342F4427AF
:1029F000585FF3CF469537952795A795F0405395A7
:102A0000C9F77EF41F16BA0B620B730B840BBAF076
:102A10009150A1F0FF0FBB1F661F771F881FC2F7E1
:102A20000EC0BA0F621F731F841F48F487957795F5
:102A30006795B795F7959E3F08F0B0CF9395880FAF
:102A400008F09927EE0F9795879508950E9409162B
:102A500008F481E008950E943F150C9444160E94EA
:102A60003D1658F00E94361640F029F45F3F29F0D9
:102A70000C942D1651110C9478160C9433160E9458
:102A8000551668F39923B1F3552391F3951B550B14
:102A9000BB27AA2762177307840738F09F5F5F4F31
:102AA000220F331F441FAA1FA9F335D00E2E3AF070
:102AB000E0E832D091505040E695001CCAF72BD088
:102AC000FE2F29D0660F771F881FBB1F26173707D9
:102AD0004807AB07B0E809F0BB0B802DBF01FF270B
:102AE00093585F4F3AF09E3F510578F00C942D16A5
:102AF0000C9478165F3FE4F3983ED4F3869577956F
:102B00006795B795F7959F5FC9F7880F911D9695C3
:102B1000879597F90895E1E0660F771F881FBB1F1F
:102B2000621773078407BA0720F0621B730B840BCC
:102B3000BA0BEE1F88F7E09508950E945D1688F0A5
:102B40009F5798F0B92F9927B751B0F0E1F0660F71
:102B5000771F881F991F1AF0BA95C9F714C0B130B2
:102B600091F00E947716B1E008950C947716672FC4
:102B7000782F8827B85F39F0B93FCCF386957795E1
:102B80006795B395D9F73EF49095809570956195CA
:102B90007F4F8F4F9F4F0895E89409C097FB3EF4F5
:102BA00090958095709561957F4F8F4F9F4F99239A
:102BB000A9F0F92F96E9BB279395F6958795779518
:102BC0006795B795F111F8CFFAF4BB0F11F460FFD8
:102BD0001BC06F5F7F4F8F4F9F4F16C0882311F030
:102BE00096E911C0772321F09EE8872F762F05C044
:102BF000662371F096E8862F70E060E02AF09A95DF
:102C0000660F771F881FDAF7880F9695879597F9D3
:102C10000895990F0008550FAA0BE0E8FEEF16166D
:102C20001706E807F907C0F012161306E407F507C0
:102C300098F0621B730B840B950B39F40A2661F034
:102C4000232B242B252B21F408950A2609F4A140D7
:102C5000A6958FEF811D811D089597F99F6780E8E4
:102C600070E060E008959FEF80EC089500240A94DE
:102C70001616170618060906089500240A94121657
:102C80001306140605060895092E0394000C11F48A
:102C9000882352F0BB0F40F4BF2B11F460FF04C037
:102CA0006F5F7F4F8F4F9F4F089557FD9058440F90
:102CB000551F59F05F3F71F04795880F97FB991F9B
:102CC00061F09F3F79F08795089512161306140658
:102CD000551FF2CF4695F1DF08C0161617061806E5
:102CE000991FF1CF86957105610508940895E894C0
:102CF000BB2766277727CB0197F908950E9409160D
:102D000008F48FEF08950E9496160C9444160E94C2
:102D1000361638F00E943D1620F0952311F00C94E1
:102D20002D160C94331611240C9478160E94551607
:102D300070F3959FC1F3950F50E0551F629FF0010E
:102D4000729FBB27F00DB11D639FAA27F00DB11D27
:102D5000AA1F649F6627B00DA11D661F829F2227B0
:102D6000B00DA11D621F739FB00DA11D621F839F37
:102D7000A00D611D221F749F3327A00D611D231F0D
:102D8000849F600D211D822F762F6A2F11249F575B
:102D900050409AF0F1F088234AF0EE0FFF1FBB1F5E
:102DA000661F771F881F91505040A9F79E3F51051D
:102DB00080F00C942D160C9478165F3FE4F3983E47
:102DC000D4F3869577956795B795F795E7959F5FC7
:102DD000C1F7FE2B880F911D9695879597F9089559
:102DE0000E940916880B990B0895A1E21A2EAA1BBE
:102DF000BB1BFD010DC0AA1FBB1FEE1FFF1FA217AB
:102E0000B307E407F50720F0A21BB30BE40BF50BA7
:102E1000661F771F881F991F1A9469F76095709530
:102E2000809590959B01AC01BD01CF010895052EC1
:102E300097FB1EF400940E942E1757FD07D00E94A6
:102E4000F51607FC03D04EF40C942E1750954095C0
:102E5000309521953F4F4F4F5F4F08959095809546
:102E6000709561957F4F8F4F9F4F0895EE0FFF1F15
:0C2E70000590F491E02D0994F894FFCF38
:102E7C000101304050696E69745F73657269616CF1
:102E8C003A207061737300696E69745F63616E3AA6
:102E9C00207265747279696E6700696E69745F631C
:102EAC00616E3A207061737300696E697420636F90
:102EBC006D706C65746500436F6E74726F6C206519
:102ECC006E61626C656400436F6E74726F6C20642B
:102EDC00697361626C6564004272616B65202D20C0
:102EEC00496E20413A200020423A20004261642081
:102EFC0076616C756520726561642066726F6D20F9
:102F0C006272616B6520706564616C20706F7369AF
:102F1C0074696F6E2073656E736F72004F7065729B
:102F2C0061746F72206F76657272696465004661B8
:102F3C00756C74207265706F72742072656365694C
:102F4C007665642066726F6D3A20002020445443ED
:102F5C00733A2000696E697420436F6E74726F6CE3
:102F6C002043414E202D2000000000006B0E360F38
:102F7C000D0E4B0EDF0DF90DEB0D0D0A006E616E93
:0A2F8C0000696E66006F76660000B3
:00000001FF
