:100000000C94DE020C9406030C9406030C94060375
:100010000C9406030C9406030C9406030C94FE083F
:100020000C9406030C9406030C9406030C94D70856
:100030000C9406030C9406030C9406030C9406031C
:100040000C941D190C9406030C941F180C94511851
:100050000C9406030C9406030C9406030C940603FC
:100060000C9406030C94060300000000003E5B4F56
:100070005B3E3E6B4F6B3E1C3E7C3E1C183C7E3C08
:10008000181C577D571C1C5E7F5E1C00183C180016
:10009000FFE7C3E7FF0018241800FFE7DBE7FF30A6
:1000A000483A060E2629792926407F050507407F14
:1000B00005253F5A3CE73C5A7F3E1C1C08081C1C87
:1000C0003E7F14227F22145F5F005F5F06097F017D
:1000D0007F006689956A606060606094A2FFA29468
:1000E00008047E040810207E201008082A1C080836
:1000F0001C2A08081E101010100C1E0C1E0C303884
:100100003E3830060E3E0E06000000000000005F84
:1001100000000007000700147F147F14242A7F2AA0
:100120001223130864623649562050000807030062
:10013000001C2241000041221C002A1C7F1C2A08AE
:10014000083E080800807030000808080808000011
:1001500060600020100804023E5149453E00427F85
:10016000400072494949462141494D331814127FD4
:100170001027454545393C4A494931412111090774
:100180003649494936464949291E000014000000F5
:1001900040340000000814224114141414140041C7
:1001A00022140802015909063E415D594E7C121184
:1001B000127C7F494949363E414141227F414141BC
:1001C0003E7F494949417F090909013E4141517337
:1001D0007F0808087F00417F41002040413F017FA8
:1001E000081422417F404040407F021C027F7F0470
:1001F00008107F3E4141413E7F090909063E4151B9
:10020000215E7F09192946264949493203017F01A8
:10021000033F4040403F1F2040201F3F4038403FA9
:10022000631408146303047804036159494D4300BF
:100230007F4141410204081020004141417F0402F6
:10024000010204404040404000030708002054548D
:1002500078407F284444383844444428384444286B
:100260007F385454541800087E090218A4A49C78BE
:100270007F0804047800447D40002040403D007F1A
:100280001028440000417F40007C047804787C08FA
:100290000404783844444438FC18242418182424CE
:1002A00018FC7C08040408485454542404043F44B3
:1002B000243C4040207C1C2040201C3C4030403CE2
:1002C00044281028444C9090907C4464544C440042
:1002D00008364100000077000000413608000201A6
:1002E0000204023C2623263C1EA1A161123A404092
:1002F000207A38545455592155557941225454780F
:1003000042215554784020545579400C1E527212A7
:100310003955555559395454545939555454580030
:1003200000457C410002457D420001457C407D1234
:1003300011127DF0282528F07C5455450020545496
:100340007C547C0A097F4932494949323A44444441
:100350003A324A4848303A4141217A3A424020787C
:10036000009DA0A07D3D4242423D3D4040403D3C7D
:1003700024FF2424487E4943662B2FFC2F2BFF09A2
:1003800029F620C0887E0903205454794100004496
:100390007D413048484A32384040227A007A0A0A81
:1003A000727D0D19317D2629292F282629292926F4
:1003B00030484D4020380808080808080808382F39
:1003C00010C8ACBA2F102834FA00007B00000814C3
:1003D0002A142222142A14085500550055AA55AA99
:1003E00055AAFF55FF55FF000000FF00101010FF39
:1003F00000141414FF001010FF00FF1010F010F094
:10040000141414FC001414F700FF0000FF00FF1484
:1004100014F404FC141417101F10101F101F1414D0
:10042000141F00101010F0000000001F101010101A
:100430001F10101010F010000000FF10101010100E
:1004400010101010FF10000000FF140000FF00FF4C
:1004500000001F10170000FC04F4141417101714E8
:1004600014F404F40000FF00F7141414141414140A
:10047000F700F7141414171410101F101F1414147D
:10048000F4141010F010F000001F101F0000001FE7
:1004900014000000FC140000F010F01010FF10FF1A
:1004A000141414FF141010101F00000000F010FFAF
:1004B000FFFFFFFFF0F0F0F0F0FFFFFF0000000093
:1004C00000FFFF0F0F0F0F0F3844443844FC4A4A17
:1004D0004A347E02020606027E027E0263554941CC
:1004E000633844443C04407E201E2006027E020203
:1004F00099A5E7A5991C2A492A1C4C7201724C3017
:100500004A4D4D303048784830BC625A463D3E49ED
:100510004949007E0101017E2A2A2A2A2A44445F91
:10052000444440514A444040444A51400000FF0185
:1005300003E080FF000008086B6B08361236243693
:10054000060F090F060000181800000010100030F8
:1005500040FF0101001F01011E00191D1712003C80
:100560003C3C3C00000000000000000800020100CC
:10057000000304070000000000000000010204085E
:1005800010204080010204081020010204081020FD
:100590000404040404040404020202020202030329
:1005A0000303030300000000250028002B000000C7
:1005B0000000240027002A00D518F01811241FBEBF
:1005C000CFEFD8E0DEBFCDBF16E0A0E0B1E0E6E6B9
:1005D000FAE302C005900D92A832B107D9F727E0DF
:1005E000A8E2B6E001C01D92A632B207E1F712E020
:1005F000CEEDD2E004C02197FE010E94121DCC3D39
:10060000D107C9F70E94B7180C94311D0C94000053
:100610000C94D119CF93DF93EC0180E591E00E9417
:10062000811860E088890E94721A80EC0E949B18F1
:1006300061E088890E94721A0E94A2186AE070E044
:1006400080E090E0DF91CF910C9498191F93CF93A5
:10065000DF93EC01162F80E591E00E94811860E0A5
:1006600088890E94721A83E00E949B18812F0E9441
:100670009B1880E00E949B18182F61E088890E94D7
:10068000721A0E94A218812FDF91CF911F910895B5
:10069000DF92EF92FF920F931F93CF93DF937C0132
:1006A000162FD42EC52FD22F80E591E00E948118FD
:1006B00060E0F70180890E94721A83E00E949B1813
:1006C000812F0E949B180D2D1C2FC0E0CD1751F0DB
:1006D000C83041F080E00E949B18F80181938F019F
:1006E000CF5FF4CF61E0F70180890E94721ADF9139
:1006F000CF911F910F91FF90EF90DF900C94A21873
:100700000F931F93CF93DF93EC01062F142F80E5F7
:1007100091E00E94811860E088890E94721A82E04C
:100720000E949B18802F0E949B18812F0E949B186B
:1007300061E088890E94721ADF91CF911F910F9119
:100740000C94A218DF92EF92FF920F931F93CF9316
:10075000DF937C01C62FD42E152F022F80E591E068
:100760000E94811860E0F70180890E94721A82E07D
:100770000E949B188C2F0E949B18CD2DD12F0C0FFF
:100780001D2F111DC017D10721F089910E949B18C0
:10079000F9CF61E0F70180890E94721ADF91CF9151
:1007A0001F910F91FF90EF90DF900C94A218FF9291
:1007B0000F931F93CF93DF93EC01F62E042F122F8C
:1007C00080E591E00E94811860E088890E94721A99
:1007D00085E00E949B188F2D0E949B18802F0E94FD
:1007E0009B18812F0E949B1861E088890E94721AD1
:1007F000DF91CF911F910F91FF900C94A2181F933E
:10080000CF93DF93EC0180E591E00E94811860E0D6
:1008100088890E94721A80EA0E949B1880E00E94D8
:100820009B18182F61E088890E94721A0E94A218F2
:10083000812FDF91CF911F9108950F931F93CF9335
:100840008C01C62F262F40EE6FE00E94D7036FE089
:10085000C8010E942603982F907E81E09C1301C05E
:1008600080E0CF911F910F9108950F931F93CF9325
:10087000DF936150623108F066C0E62FF0E0ED5B77
:10088000FB4F0C94121D9F04A50455046C046F04C7
:10089000720476047A047D048104840487048A0443
:1008A0008D049104950499049C04D7E8CFEF4FE0A0
:1008B0008C016AE20E9480034C2F69E2C8010E9409
:1008C00080034D2F68E2C8010E94800380E0DF9121
:1008D000CF911F910F910895D7E0CAEBE8CFD5E8EB
:1008E000C1EFE5CFD7E0CEEB49E0E2CFD7E8CFEFDD
:1008F00047E0DECFD7E8CAEFFBCFD7E8CFEF43E042
:10090000D7CFD7E0CEEBFBCFD7E0CDEAF8CFD7E813
:10091000CAEFF5CFD6E8C0EFF2CFD7E8CAEF41E093
:10092000C7CFD5E8C1EF41E4C3CFD6E8C0EF40E080
:10093000BFCFD4E0C0EAFBCFD2E8C0EDF8CFD7E814
:10094000CFEF4FE3B5CF81E0C2CFD7E8CFEF4FE194
:10095000AFCF0F931F93CF938C01C0E340E06C2F78
:10096000C8010E94800360E16C0F40E0C8010E9452
:10097000800360E26C0F40E0C8010E948003CF5FFB
:10098000CE3361F740E060E6C8010E94800340E09A
:1009900060E7C801CF911F910F910C9480030F93D2
:1009A0001F93CF93DF93EC01062F0E940A0360E8A8
:1009B000CE010E941D04182F6AE070E080E090E0F4
:1009C000112341F00E949819812FDF91CF911F913F
:1009D0000F9108950E949819602FCE010E9435044E
:1009E000882329F06AE070E080E090E0EBCF6AE0D5
:1009F00070E080E090E00E949819CE010E94A90466
:100A000043E06BE2CE010E94800324E044E660E60E
:100A1000CE010E94D70320E040E660E7CE010E94AD
:100A2000D70360E0CE010E941D04C82F8823D1F2B5
:100A30006AE070E080E090E00E9498191C2FC4CF1B
:100A40000F931F93CF93DF9300D000D0CDB7DEB7C5
:100A5000413021F50C831B83890122273327402F46
:100A6000440F440F440F407E502F53705860452B65
:100A70004A8355E0169507955A95E1F7098324E0D6
:100A8000AE014F5F5F4F0E94A2030F900F900F9037
:100A90000F90DF91CF911F910F910895A80123E04E
:100AA000569547952A95E1F749830295000F007EF8
:100AB0000A831C821B82E3CFEF92FF920F931F9356
:100AC000CF93DF9300D000D0CDB7DEB77A01890194
:100AD000FA011082F901108211821282138224E03D
:100AE000AE014F5F5F4F0E9448032A818981F8E081
:100AF0008F9FC0011124422F50E065E05595479526
:100B00006A95E1F7840F951F092E000CAA0BBB0B09
:100B1000F80180839183A283B38323FF25C032E051
:100B2000880F991FAA1FBB1F3A95D1F72370820F18
:100B3000911DA11DB11DBA2FA92F982F88272B8198
:100B4000820F911DA11DB11DBA2FA92F982F8827A3
:100B50002C81820F911DA11DB11D80839183A283E1
:100B6000B38381E0F70180830F900F900F900F9077
:100B7000DF91CF911F910F91FF90EF900895FF9219
:100B80000F931F93CF93DF93EC01F62E8A01AC01F4
:100B90004A5F5F4F65E06F0D2D810E94A203013017
:100BA000110519F48D8180648D8364E06F0D4D8192
:100BB000CE010E94800309811A812B813C814881EA
:100BC0006F2DCE010E942005DF91CF911F910F91D3
:100BD000FF9008950F931F93CF93DF93EC01162F8F
:100BE0009C012F5F3F4FAC010E945C056FEF610FCE
:100BF000CE010E942603082F64E0610FCE010E94FF
:100C0000260303FB002700F90E87282F2F702D8362
:100C1000AE014A5F5F4F65E0610FCE01DF91CF917A
:100C20001F910F910C944803615028E048E00C9408
:100C3000D7038F929F92AF92BF92CF92DF92EF92A3
:100C4000FF921F93CF93DF9300D01F92CDB7DEB7F3
:100C50004C016B018091000590910105A091020566
:100C600089839A83AB83FB011082CE0101967C01BC
:100C70005E0194E0A90EB11CF70111917F01612F73
:100C8000C4010E94260383FD13C01F5FF601108379
:100C900080E00F900F900F90DF91CF911F91FF9008
:100CA000EF90DF90CF90BF90AF909F908F9008957E
:100CB000EA14FB0409F782E0ECCFFC01608B089595
:100CC0001F93CF93DF93EC01162F61E088890E9478
:100CD000361A61E088890E94721A0E945413612FAB
:100CE000CE010E94CF0491E0811101C090E0892FD4
:100CF000DF91CF911F9108958F929F92AF92BF92F3
:100D0000DF92EF92FF920F931F93CF93DF937C01BB
:100D1000D62ED42F59016AE070E080E090E00E9466
:100D2000981960E8C7010E941D04C82F882399F014
:100D30006AE070E080E090E00E9498198C2FDF91CB
:100D4000CF911F910F91FF90EF90DF90BF90AF90E8
:100D50009F908F900895D1100CC095014D2F60E2A7
:100D6000C7010E94200560E0C7010E941D04C82F32
:100D7000DFCF81E0D812F7CF95014D2F64E2F0CF9D
:100D80008F929F92AF92BF92EF92FF920F931F9319
:100D9000CF93DF93EC01F62EE42E480159016AE06F
:100DA00070E080E090E00E94981960E8CE010E9417
:100DB0001D04182F882391F06AE070E080E090E035
:100DC0000E949819812FDF91CF911F910F91FF9071
:100DD000EF90BF90AF909F908F90089582E0F816AB
:100DE00039F18F1558F0FF20B1F081E0F816D9F0F5
:100DF00060E0CE010E941D04182FDECF84E0F816BB
:100E000009F1F816D0F085E0F812F2CF95018401CF
:100E10004E2D68E104C0950184014E2D60E0CE01A5
:100E20000E942005E5CF950184014E2D64E0F7CFA7
:100E3000950184014E2D68E0F2CF950184014E2D7D
:100E400060E1EDCF950184014E2D64E1E8CFCF92B2
:100E5000DF920F931F93FC012083418352836383AE
:100E60007483093008F008E005833696D60110E057
:100E7000CD018C199D09801791071CF48D918193E8
:100E8000F7CF80E01F910F91DF90CF900895EF9200
:100E9000FF920F931F93FC0120834183528363834E
:100EA0007483093008F008E005833696D70110E016
:100EB000CD018E199F09801791071CF48D918193A4
:100EC000F7CF80E01F910F91FF90EF900895FC0104
:100ED000118212821382148215821082168617865E
:100EE00080E00895CF92DF92EF92FF920F931F93CD
:100EF000CF93DF931F92CDB7DEB77C016B0110E07B
:100F000000E0BE016F5F7F4FC7010E9419060F5FAF
:100F10001F4F823029F40233110599F796E021C062
:100F200002331105D9F3A6016981C7010E94BF05EB
:100F30006981C7010E94140610E000E00F5F1F4F97
:100F400069816150C7010E942603982F987083FF22
:100F500005C00233110591F797E003C00233110574
:100F6000D9F3892F0F90DF91CF911F910F91FF90AF
:100F7000EF90DF90CF900895AF92BF92CF92DF9223
:100F8000EF920F93CF935C01C02F0E2DEC2E0E9499
:100F900027076C2F70E0C501CF910F91EF90DF9084
:100FA000CF90BF90AF900C947207EF92FF920F9387
:100FB000CF93DF93EC010E94470770E060E0CE0121
:100FC000DF91CF910F91FF90EF900C947207CF9328
:100FD000DF93EC010E94FF0380FF0EC061E6CE01AB
:100FE0000E94EA0520E041E06CE2CE010E94D703B6
:100FF00080E0DF91CF91089581FF07C061E7CE01C6
:101000000E94EA0520E042E0EFCF84E0F2CFEF92C9
:10101000FF920F931F93CF93DF93EC018B017A0123
:101020000E94E707811111C09D81F8019083DE01C4
:101030001696F7019D819F012E193F0992171306FD
:1010400031F02CF09D919193F5CFF8011082DF9152
:10105000CF911F910F91FF90EF900895CF92DF9263
:10106000EF92FF920F931F93CF93DF93EC016B01ED
:101070008A0179010E94E70781111EC09D81F80154
:10108000908349815A816B817C81F6014083518331
:1010900062837383DE011696F70130E020E09D81C4
:1010A0009217130659F054F02830310539F09D910C
:1010B00091932F5F3F4FF3CFF8011082DF91CF91D3
:1010C0001F910F91FF90EF90DF90CF9008950E94B5
:1010D000FF03837011F484E0089583E008956DE2C6
:1010E0000E942603887F09F085E00895FC01618154
:1010F0007281838194810895FC0186850895FC01A5
:101100008081089526E040E052EC61E070E080E8E4
:1011100096E00E94A6146BE075E080E896E00C94DF
:10112000D915CF93DF93EC0160E1CE010E946006F8
:10113000882369F062E370E080E090E00E949819F3
:101140006DE175E080E896E00E94D915EDCF60E38F
:1011500075E080E896E0DF91CF910C94D915CF939C
:10116000DF936115710501F1EB0121E1FB011192A2
:101170002A95E9F7F8949B01275F3F4FAB014C5F3D
:101180005F4F0E942E0881110CC00E9467196D8369
:101190007E838F83988790E080E07894DF91CF9171
:1011A000089581E090E0F9CF82E090E0F7CF1F92C0
:1011B0000F920FB60F9211242F933F934F935F938B
:1011C0006F937F938F939F93AF93BF93EF93FF930F
:1011D000E0912A06F0912B060995FF91EF91BF91BE
:1011E000AF919F918F917F916F915F914F913F91BF
:1011F0002F910F900FBE0F901F9018951F920F9276
:101200000FB60F9211242F933F934F935F936F93D9
:101210007F938F939F93AF93BF93EF93FF93E0914F
:101220002806F09129060995FF91EF91BF91AF91A2
:101230009F918F917F916F915F914F913F912F91EE
:101240000F900FBE0F901F901895CF92DF92EF92E4
:10125000FF92CF93DF936B017C01EA01F894109227
:10126000800010928100109285001092840020E08E
:1012700030E040E857E40E946A1C9B01AC0160E04A
:1012800074E284E79BE40E94121B0E94841B61307D
:1012900021E072078105910508F449C08091810021
:1012A00085608093810060E074E080E090E00E94BF
:1012B000B31BA70196010E946A1C9B01AC0160E070
:1012C00074E284E79BE40E94121B20E030E040E8D7
:1012D0005FE30E94A01A0E94841B6115710521E042
:1012E0008207910508F05AC06115710581059105C5
:1012F00021F461E070E080E090E0709389006093F9
:1013000088008091810088608093810080916F00C7
:10131000826080936F00D0932B06C0932A06789446
:10132000DF91CF91FF90EF90DF90CF9008956134DF
:1013300071058105910550F0809181008460809352
:10134000810060E071E080E090E0B1CF693071052C
:101350008105910550F08091810083608093810028
:1013600060E470E080E090E0A2CF6230710581051A
:10137000910550F08091810082608093810068E047
:1013800070E080E090E093CF809181008160809355
:10139000810061E070E080E090E089CF6FEF7FEF47
:1013A00080E090E0AACFCF92DF92EF92FF92CF93AE
:1013B000DF936B017C01EA01F8941092B000109267
:1013C000B1001092B20020E030E040E853E40E9407
:1013D0006A1C9B01AC0160E074E284E79BE40E941C
:1013E000121B0E94841B613021E072078105910568
:1013F00008F447C08091B10087608093B10060E03D
:1014000074E080E090E00E94B31BA70196010E9467
:101410006A1C9B01AC0160E074E284E79BE40E94DB
:10142000121B20E030E040E85FE30E94A01A0E9417
:10143000841B6F3F71058105910511F008F076C09E
:10144000611571058105910521F461E070E080E08E
:1014500090E06093B3008091B10082608093B1000E
:1014600080917000826080937000D0932906C093B1
:1014700028067894DF91CF91FF90EF90DF90CF9086
:101480000895613871058105910550F08091B10092
:1014900086608093B10060E071E080E090E0B3CFBF
:1014A000613471058105910550F08091B10085602E
:1014B0008093B10060E870E080E090E0A4CF6132FA
:1014C00071058105910550F08091B1008460809391
:1014D000B10060E470E080E090E095CF6930710584
:1014E0008105910550F08091B10083608093B10037
:1014F00060E270E080E090E086CF623071058105A7
:10150000910550F08091B10082608093B10068E055
:1015100070E080E090E077CF8091B10081608093AF
:10152000B10061E070E080E090E06DCF6FEF70E0BF
:1015300080E090E08ECFCF92DF92EF92FF920F93F8
:101540001F93CF93DF936C01EB017A0189010E9415
:101550001B0EC817D9070CF042C0C6010E941F0E0F
:10156000E816F906E4F5D7FD3AC0F7FC38C0C60125
:101570000E94180E8230E1F1833009F44BC08130B3
:1015800049F4CE019927F601C481D581CE19DF092E
:1015900021977C01C701F7FC079623E09595879575
:1015A0002A95E1F79695982F882797958795C80FE4
:1015B000D91FC050DF4F4881C70168E070E00E942A
:1015C000DC1C21E030E0B90102C0660F771F8A956C
:1015D000E2F7CB010130110541F5842B8883DF91BF
:1015E000CF911F910F91FF90EF90DF90CF900895D2
:1015F000F601848195819C012C1B3D0BE90121970B
:1016000086819781BC016E197F097B0171E0E71A21
:10161000F108C0CFF601868197818C1B9109E70103
:101620009C01215031097901B5CF80958423D6CF13
:10163000E0E0F1E080E094E0DF019C011D922150A8
:101640003040E1F70895CF9361E085E00E94721A7F
:1016500061E070E080E090E00E94981960E085E031
:101660000E94721A61E070E080E090E00E94981998
:1016700060E08DE00E94721A61E070E080E090E02E
:101680000E94981980E00E949B18C82F61E070E0CA
:1016900080E090E00E94981961E08DE00E94721A4B
:1016A00061E070E080E090E00E94981961E085E0E0
:1016B0000E94721A61E070E080E090E00E94981948
:1016C0008C2F80958170CF910895CF93DF93EC019B
:1016D000888D8F788061888F60E084E00E94721A24
:1016E00061E070E080E090E00E949819888D0E948F
:1016F0009B1861E070E080E090E00E94981961E042
:1017000084E00E94721A61E070E080E090E00E9444
:10171000981960E084E0DF91CF910C94721ACF9316
:10172000DF93EC01888D8F788062888F60E084E0A1
:101730000E94721A61E070E080E090E00E949819C7
:10174000888D0E949B1861E070E080E090E00E942C
:10175000981961E084E00E94721A61E070E080E014
:1017600090E00E94981960E084E0DF91CF910C94A2
:10177000721ACF93DF93EC01888D8F788064888F05
:1017800060E084E00E94721A61E070E080E090E026
:101790000E949819888D0E949B1861E070E080E09B
:1017A00090E00E94981961E084E00E94721A61E062
:1017B00070E080E090E00E94981960E084E0DF91A2
:1017C000CF910C94721ACF93DF93EC01888D8F78B0
:1017D000888F60E084E00E94721A61E070E080E02F
:1017E00090E00E949819888D0E949B1861E070E03B
:1017F00080E090E00E94981961E084E00E94721AF3
:1018000061E070E080E090E00E94981960E084E080
:10181000DF91CF910C94721ACF93DF93EC01888DF6
:1018200060FB87F9888F60E084E00E94721A61E0B3
:1018300070E080E090E00E949819888D0E949B18CB
:1018400061E070E080E090E00E94981961E084E03F
:101850000E94721A61E070E080E090E00E949819A6
:1018600060E084E0DF91CF910C94721ACF93DF9304
:10187000EC01888D60FB83F9888F60E084E00E9432
:10188000721A61E070E080E090E00E949819888D03
:101890000E949B1861E070E080E090E00E9498193F
:1018A00061E084E00E94721A61E070E080E090E004
:1018B0000E94981960E084E0DF91CF910C94721A35
:1018C000CF93DF93EC0160E00E940C0C60E08F8905
:1018D000DF91CF910C94721ACF93DF93EC0161E00A
:1018E0008F890E94721A61E0CE01DF91CF910C9432
:1018F0000C0CCF93DF93EC010E9454138CB5837FC3
:101900008CBD8CB58C7F8CBD8DB581608DBD61E04B
:1019100084E00E94361A61E085E00E94361A61E098
:101920008F890E94361A60E084E00E94721A61E09A
:1019300085E00E94721A61E08F890E94721A61E04C
:10194000CE010E94360C61E070E080E090E00E94E1
:10195000981960E0CE010E94360C6AE070E080E0E9
:1019600090E00E94981961E0CE010E94360C64EF6D
:1019700071E080E090E00E949819CE010E94600C16
:101980008EEA0E949B1883EB0E949B1881EF0E94B5
:101990009B1888EA0E949B188FE30E949B1882EA9A
:1019A0000E949B188CE40E949B1881EA0E949B185D
:1019B00080E00E949B188DEA0E949B1882E00E94A2
:1019C0009B1880EA0E949B1886E50E949B1885E878
:1019D0000E949B1888EB0E949B1881E00E949B1834
:1019E00081E10E949B1882E20E949B1882E30E9480
:1019F0009B1883E40E949B1884E50E949B1885E64F
:101A00000E949B1886E70E949B1881E80E949B1801
:101A10008FE70E949B1882EB0E949B1881E50E9431
:101A20009B1881EB0E949B1885E50E949B1884EB14
:101A30000E949B1882E00E949B1880EB0E949B18DA
:101A400088E20E949B188EEB0E949B188CE10E94FA
:101A50009B188FEB0E949B188FE00E949B1884EAD2
:101A60000E949B1885E10E949B1880E00E949B18B1
:101A70008FE30E949B1885E70E949B1880E00E94DC
:101A80009B188FE30E949B188FEA0E949B18CE013F
:101A9000DF91CF910C946C0CCF93DF93EC0161E05C
:101AA0000E940C0C60E08F89DF91CF910C94721A28
:101AB000CF93DF93EC0161E08F890E94721A60E09E
:101AC000CE01DF91CF910C940C0C4F925F926F92EC
:101AD0007F928F929F92AF92BF92CF92DF92EF92BE
:101AE000FF920F931F93CF93DF935C010E944C0DE5
:101AF00000E011E080E8482E81E0582E7801912C1A
:101B0000812CF7016080C180D0E0C0E0712CD12C25
:101B10009C2F93010C2E02C0359527950A94E2F76D
:101B200080EF20FF80E0960102C0359527959A95B9
:101B3000E2F720FD8F600E949B182196C830D105E6
:101B400039F788E0880E911CE0E8EE0EF11CF0E415
:101B50008F169104B1F60E5F1F4F4016510671F6B5
:101B6000C501DF91CF911F910F91FF90EF90DF9012
:101B7000CF90BF90AF909F908F907F906F905F902D
:101B80004F900C94580D0895DC01ED91FC91008468
:101B9000F185E02D0994FC016370658B848195814A
:101BA00026813781613039F0633029F09187808751
:101BB0003387228708953187208793878287089506
:101BC000FC011382128289E595E0918380837583FD
:101BD0006483578346837187608753874287158A5A
:101BE000158614861786168681E0848B8FEF9FEF0B
:101BF000938B828B918B808B168A0895FC0175875D
:101C00006487578746870895FC01848595850895E4
:101C1000FC01868597850895FC01738B628B718B1F
:101C2000608B0895FC01718B608B538B428B089500
:101C3000FC0185890895FC01808591850895FC014A
:101C40008285938508952F923F924F925F926F9273
:101C50007F928F929F92AF92BF92CF92DF92EF923C
:101C6000FF920F931F93CF93DF9300D000D000D04B
:101C7000CDB7DEB73C016A013E832D83FC82EB8247
:101C80005801A41AB50AB7FE03C0B194A194B108D3
:101C90008D809E80861A970A97FE03C09194819446
:101CA00091088A149B045CF0902F812F0D811E8176
:101CB0009D838E839C2D8D2D6B01692F782F0C15A4
:101CC0001D055CF09D818E817E836D83692F782F49
:101CD000902F812F8601C92ED82E1601201A310A85
:101CE0002B012D813E81421A530A57FE03C05194A5
:101CF00041945108710137FE03C03FEFE31AF30A24
:101D0000F594E7948D819E81861797075CF5A1E095
:101D1000B0E0BA83A983C016D1064CF1D301ED918E
:101D2000FC910484F585E02D2B813C81A8016D8117
:101D30007E818A149B041CF04D815E81B801C30131
:101D40000995E418F508F7FE0AC02D813E818981C6
:101D50009A81280F391F3E832D83E20CF31C0F5FFD
:101D60001F4FD9CF2FEF3FEF3A832983D4CF269649
:101D70000FB6F894DEBF0FBECDBFDF91CF911F919C
:101D80000F91FF90EF90DF90CF90BF90AF909F901A
:101D90008F907F906F905F904F903F902F9008951D
:101DA0002F923F924F925F926F927F928F929F926B
:101DB000AF92BF92CF92DF92EF92FF920F931F9359
:101DC000CF93DF9300D01F92CDB7DEB7422EDC0158
:101DD00018962D913C911997621773070CF09EC0CD
:101DE0001A962D913C91421753070CF097C09B0116
:101DF000B6E0CB9E200D311D1124121613060CF0F7
:101E00008DC028E0C29EF0011124E40FF51F1E16BC
:101E10001F060CF083C0C9825A017B836A836C0160
:101E2000DC01ED91FC910284F385E02D0995B5E08C
:101E30004B9E200111242A803B80E5E02E0E311CB0
:101E4000C20188599F4F2C01AA81BB814A1A5B0AA3
:101E5000EA81FB81E40DF51DE491912C812C6E2E1D
:101E6000712CE0FF4CC0B981B13071F4D601ED9115
:101E7000FC910484F585E02D9801A501480D591DBC
:101E80006A817B81C6010995F301F595E795BFEF5E
:101E90008B1A9B0AF8E08F16910409F78A819B81BF
:101EA00001969B838A838215930591F6E016F106CD
:101EB00049F08501095F1F4F9C01A501BC01C601C6
:101EC0000E94230ED601ED91FC910684F785E02D4A
:101ED000C6010F900F900F90DF91CF911F910F913E
:101EE000FF90EF90DF90CF90BF90AF909F908F903A
:101EF0007F906F905F904F903F902F900994E016E5
:101F0000F10611F2B981B13009F0BECFD601ED91E1
:101F1000FC910484F585E02D9701AFCF0F900F90D1
:101F20000F90DF91CF911F910F91FF90EF90DF9075
:101F3000CF90BF90AF909F908F907F906F905F9069
:101F40004F903F902F900895CF92EF92FF920F9372
:101F50001F93CF93DF93EC016A30B9F41D861C8682
:101F60008C8948E0849F900111248E859F85820F83
:101F7000931F9F878E8781E090E0DF91CF911F9123
:101F80000F91FF90EF90CF9008956D30A1F3CC8822
:101F90008E898823C1F08C859D8526E0C29E800DA8
:101FA000911D1124288539852817390764F42E8559
:101FB0003F851D861C8648E0C49EC0011124820F07
:101FC000931F9F878E87262FEA88FB8808891989A7
:101FD0004E855F856C857D85CE010E94D00E2C8953
:101FE0008C859D8536E0239F800D911D11249D8752
:101FF0008C87C1CFECE2F6E08EE0DF011D928A957E
:10200000E9F708950E94820869E775E080E896E0A4
:102010000E94D9150E94491166E875E080E896E0B3
:102020000E94981584E696E00E94910866E975E0A2
:1020300080E896E00E94981583E596E00C9491085C
:10204000CF93DF93CDB7DEB761970FB6F894DEBFBD
:102050000FBECDBFBE016F5F7F4F83E596E00E944C
:10206000AF08892B29F589819A81AB81BC8183379F
:102070009105A105B10571F58C85813011F581E0DF
:1020800090E090932F0680932E068E85882331F062
:1020900023E030E030932F0620932E0680FF14C0FB
:1020A00091E09093340681FF12C081E08093350661
:1020B00061960FB6F894DEBF0FBECDBFDF91CF9112
:1020C000089582E090E0DDCF10923406ECCF1092BC
:1020D0003506EECF83389105A105B10531F58C8524
:1020E0008130D1F481E090E0909331068093300606
:1020F0008E85882331F023E030E030933106209341
:10210000300680FF0CC091E09093360681FF0AC034
:1021100081E080933706CCCF82E090E0E5CF10924B
:102120003606F4CF10923706C3CF83399105A10547
:10213000B10509F0BDCF8C858130D1F481E090E00C
:1021400090933306809332068E85882331F023E006
:1021500030E0309333062093320680FF0CC091E0CC
:102160009093380681FF0AC081E080933906A0CFA2
:1021700082E090E0E5CF10923806F4CF1092390655
:1021800097CFEF92FF920F93CF93DF93CDB7DEB748
:1021900061970FB6F894DEBF0FBECDBFBE016F5F73
:1021A0007F4F84E696E00E94AF08892B21F5898154
:1021B0009A81AB81BC81803B22E09207A105B105E9
:1021C00059F0803B24E09207A105B10529F0803247
:1021D0009240A105B10579F4F89449815A816B8147
:1021E0007C81CE010A967C0101E120E083E596E046
:1021F0000E94D507789461960FB6F894DEBF0FBEA3
:10220000CDBFDF91CF910F91FF90EF900895CF93C5
:10221000DF93FC01EE0FFF1FED5FFA4FC081D1810C
:102220000397E9F441E050E070E060E08AE396E073
:102230000E94120EBE018AE396E00E94981550E0BB
:1022400040E061E070E08AE396E00E94120E6AEAE4
:1022500075E08AE396E0DF91CF910C949815BE016A
:102260008AE396E00E949815F2CFCF93DF93EC01BA
:102270000A9730F46DEA75E08AE396E00E949815BB
:102280004AE050E0BE018AE396E0DF91CF910C94E2
:10229000F916F8948AE396E00E94790C8AE396E0B6
:1022A0000E94180B8AE396E00E94650D78940895C9
:1022B000CF93DF934EE050E064E070E08AE396E075
:1022C0000E94FE0DC4E0D0E021E030E04EE050E09E
:1022D000BE018AE396E00E949B0A2196CE37D10583
:1022E00099F7DF91CF9108950F931F93F894409140
:1022F0002E0650912F064330510579F0209130067B
:10230000309131062330310541F0809132069091B1
:1023100033068330910509F08DC08AE396E00E9470
:10232000650B44E050E064E070E08AE396E00E94D0
:10233000FE0D50E040E061E070E08AE396E00E942C
:10234000120E8AE396E00E94230B282F80917506D7
:10235000281779F0222369F080912C0690912D06A0
:10236000019662E070E00E94DC1C90932D06809341
:102370002C062093750680912C0690912D060097CF
:1023800009F0C2C08AE396E00E94180B44E050E0D6
:1023900064E070E08AE396E00E94FE0D6FEA75E06B
:1023A0008AE396E00E9498150E94581142E150E09D
:1023B00064E070E08AE396E00E94FE0D66EB75E053
:1023C0008AE396E00E94981580912E0690912F0640
:1023D0000E9407114EE150E064E070E08AE396E06D
:1023E0000E94FE0D61EC75E08AE396E00E9498156C
:1023F00080913006909131060E9407114AE250E028
:1024000064E070E08AE396E00E94FE0D6CEC75E0FB
:102410008AE396E00E9498158091320690913306E7
:102420000E9407118AE396E00E94650D78941F913F
:102430000F9108954230510509F056C02230310500
:1024400009F06BCF029709F068CF80917606882358
:1024500029F10E9467190091770610917806209162
:10246000790630917A06601B710B820B930B653FE6
:1024700071408105910508F454CF8AE396E00E94EB
:102480008F0B0E946719609377067093780680938C
:10249000790690937A061092760643CF0E946719C8
:1024A00000917706109178062091790630917A068E
:1024B000601B710B820B930B693E73408105910584
:1024C00008F42FCF8AE396E00E94E30B0E9467197D
:1024D00060937706709378068093790690937A06D6
:1024E00081E0809376061DCF4130510509F015CF6C
:1024F0002130310509F011CF019709F00ECF8AE3A1
:1025000096E00E94B90B0DCF019709F08FCF8AE3B7
:1025100096E00E94180B44E050E064E070E08AE32B
:1025200096E00E94FE0D67ED75E08AE396E00E945A
:1025300098150E94581180912E0690912F060397AE
:10254000A1F542E150E064E070E08AE396E00E9489
:10255000FE0D8091340642E150E0882391F064E062
:1025600070E08AE396E00E94FE0D6CED75E08AE370
:1025700096E00E94981590E080E00E9435114EE1AF
:1025800050E080913506882381F064E070E08AE3B2
:1025900096E00E94FE0D6CED75E08AE396E00E94E5
:1025A000981581E090E00E9435118091300690915D
:1025B00031060397A1F542E150E06EE270E08AE354
:1025C00096E00E94FE0D8091360642E150E088239D
:1025D00091F06EE270E08AE396E00E94FE0D60EEFC
:1025E00075E08AE396E00E94981590E080E00E94F2
:1025F00035114EE150E080913706882381F06EE27C
:1026000070E08AE396E00E94FE0D60EE75E08AE3DA
:1026100096E00E94981581E090E00E94351180912B
:10262000320690913306039709F0FCCE42E150E068
:1026300068E570E08AE396E00E94FE0D809138061E
:1026400042E150E0882391F068E570E08AE396E08B
:102650000E94FE0D64EE75E08AE396E00E949815F4
:1026600090E080E00E9435114EE150E08091390603
:10267000882309F4D7CE68E570E08AE396E00E94EB
:10268000FE0D64EE75E08AE396E00E94981581E005
:1026900090E00E943511C6CE44E751E160E070E061
:1026A00080E890E40C942509CF93CFB7F8948091FB
:1026B0007E06811127C0EAE9F5E08491E6E8F5E0BD
:1026C0009491E82FF0E0EE0FFF1FE255FA4FA5912D
:1026D000B491EC91E92321F461E08AE00E94721A3E
:1026E00061E08AE00E94361A8CB580618CBD8CB5A1
:1026F00080648CBD61E08DE00E94361A61E08BE061
:102700000E94361A80917E068F5F80937E06CFBF2F
:10271000CF9108959FB7F89480917E06882319F091
:10272000815080937E0680917E06811105C08CB514
:102730008F7B8CBD10927D069FBF08952FB7F894B4
:1027400091E0882339F092E0813021F082E080939B
:102750007D0690E080917C06892B80937C06809199
:102760007D06811103C081E080937D062FBF08950F
:1027700090917D069230A1F09FB7F894882321F0C4
:10278000813079F080E001C081E0809520917C0665
:10279000822380937C06811102C010927D069FBF28
:1027A000089582E0F2CFFC01918D228D892F90E077
:1027B000805C9F4F821B91098F7399270895FC01BC
:1027C000918D828D981731F0828DE80FF11D858DE6
:1027D00090E008958FEF9FEF0895FC01918D828D19
:1027E000981761F0A28DAE0FBF2FB11D5D968C9131
:1027F000928D9F5F9F73928F90E008958FEF9FEF70
:102800000895FC01538D448D252F30E0842F90E0F6
:10281000821B930B541710F0CF96089501970895DB
:1028200087E798E1892B49F080E090E0892B29F037
:102830000E94771881110C9400000895FC01A48D6A
:10284000A80FB92FB11DA35ABF4F2C91848D90E0D2
:1028500001968F739927848FA689B7892C93A089B5
:10286000B1898C9180648C93938D848D981306C06C
:102870000288F389E02D80818F7D80830895CF9336
:10288000DF93EC01888D8823B9F0AA89BB89E88998
:10289000F9898C9185FD03C0808186FD0DC00FB63E
:1028A00007FCF7CF8C9185FFF2CF808185FFEDCFBC
:1028B000CE010E941E14E9CFDF91CF910895EF92CF
:1028C000FF920F931F93CF93DF93EC0181E0888FEA
:1028D0009B8D8C8D981316C0E889F989808185FFBE
:1028E00011C0EE89FF896083E889F989808180645D
:1028F000808381E090E0DF91CF911F910F91FF9055
:10290000EF900895F62E0B8D10E00F5F1F4F0F73A1
:102910001127E02E8C8D8E110CC00FB607FCFACF5C
:10292000E889F989808185FFF5CFCE010E941E14C8
:10293000F1CFEB8DEC0FFD2FF11DE35AFF4FF0822D
:102940000B8FEA89FB8980818062D2CFCF92DF92A0
:10295000EF92FF921F93CF93DF93EC016A017B010B
:10296000122FE889F98982E08083C11481EED806AC
:10297000E104F104A1F060E079E08DE390E0A701CB
:1029800096010E94F01C21503109410951095695C8
:10299000479537952795211580E1380798F0E88904
:1029A000F989108260E874E88EE190E0A701960151
:1029B0000E94F01C21503109410951095695479553
:1029C00037952795EC85FD853083EE85FF8520833F
:1029D000188EEC89FD891083EA89FB8980818061EA
:1029E0008083EA89FB89808188608083EA89FB890A
:1029F000808180688083EA89FB8980818F7D8083E4
:102A0000DF91CF911F91FF90EF90DF90CF900895CD
:102A1000CF93DF93EC01E881F9810680F781E02D07
:102A20000995EA89FB8980818F7E8083EA89FB8909
:102A30008081877F8083EA89FB8980818F7780838B
:102A4000EA89FB8980818F7D80838A8D898FDF91E0
:102A5000CF910895AF92BF92CF92DF92EF92FF9203
:102A60000F931F93CF93DF936C017B018B01040FB6
:102A7000151FEB015E01AE18BF08C017D10759F052
:102A80006991D601ED91FC910190F081E02DC60194
:102A90000995892B79F7C501DF91CF911F910F918E
:102AA000FF90EF90DF90CF90BF90AF900895FB0123
:102AB00001900020E9F73197AF01461B570BDC016D
:102AC000ED91FC910280F381E02D0994EF92FF9249
:102AD0000F931F93CF93DF938C017B01D0E0C0E075
:102AE000F701EC0FFD1F6491662361F0D801ED91B1
:102AF000FC910190F081E02DC8010995892B11F01E
:102B00002196EECFCE01DF91CF911F910F91FF90D3
:102B1000EF900895DB0114964D915C9115976D919E
:102B20007C91DC01ED91FC910280F381E02D099410
:102B30006115710511F00C94571590E080E008952F
:102B4000DC01ED91FC910190F081E02D0994DB0115
:102B5000ED91FC9111970190F081E02DBC01CD0128
:102B6000099469E176E00C9457150F931F93CF9366
:102B7000DF93EC010E9466158C01CE010E94B11515
:102B8000800F911FDF91CF911F910F9108950F93A7
:102B90001F93CF93DF93EC010E948A158C01CE0125
:102BA0000E94B115800F911FDF91CF911F910F915E
:102BB00008950F931F93CF93DF938C01D0E0C0E073
:102BC0006115710519F00E945715EC01C8010E94AA
:102BD000B1158C0F9D1FDF91CF911F910F9108951B
:102BE0000F931F93CF93DF93EC010E94A0158C01EC
:102BF000CE010E94B115800F911FDF91CF911F91DF
:102C00000F9108950F931F93CF93DF93EC010E94D0
:102C1000A7158C01CE010E94B115800F911FDF9185
:102C2000CF911F910F9108958F929F92AF92BF9273
:102C3000EF92FF920F931F93CF93DF93CDB7DEB741
:102C4000A1970FB6F894DEBF0FBECDBF7C01FA018D
:102C5000CB0119A2223008F42AE08E010F5D1F4F2C
:102C6000822E912CB12CA12CBF01A50194010E94B0
:102C7000F01CF901CA016A300CF5605DD8016E9351
:102C80008D01232B242B252B79F790E080E01097E2
:102C900021F0BD01C7010E945715A1960FB6F89407
:102CA000DEBF0FBECDBFDF91CF911F910F91FF907F
:102CB000EF90BF90AF909F908F900895695CDECFAA
:102CC000CF92DF92EF92FF920F931F93CF93DF93F8
:102CD0002115310581F4DC01ED91FC910190F08129
:102CE000E02D642FDF91CF911F910F91FF90EF9016
:102CF000DF90CF9009942A30310501F52AE077FF63
:102D00001DC06A017B01EC016DE20E94A0158C01DF
:102D100044275527BA014C195D096E097F092AE03D
:102D2000CE010E941416800F911FDF91CF911F9149
:102D30000F91FF90EF90DF90CF900895DF91CF91AA
:102D40001F910F91FF90EF90DF90CF900C9414168D
:102D50009A01AB01770F660B770B0C9460160F93FB
:102D60001F93CF93DF93EC010E94A8168C01CE0134
:102D70000E94B115800F911FDF91CF911F910F918C
:102D800008950F931F93CF93DF93EC010E94601679
:102D90008C01CE010E94B115800F911FDF91CF9160
:102DA0001F910F9108952115310541F4DC01ED913A
:102DB000FC910190F081E02D642F09940C9414167D
:102DC0009A01462F50E070E060E00C94D3160F9308
:102DD0001F93CF93DF93EC010E94E0168C01CE018C
:102DE0000E94B115800F911FDF91CF911F910F911C
:102DF00008959A01AB0170E060E00C94D3160F9334
:102E00001F93CF93DF93EC010E94F9168C01CE0142
:102E10000E94B115800F911FDF91CF911F910F91EB
:102E200008950F931F93CF93DF93EC010E94D31665
:102E30008C01CE010E94B115800F911FDF91CF91BF
:102E40001F910F9108952F923F924F925F926F9230
:102E50007F928F929F92AF92BF92CF92DF92EF922A
:102E6000FF921F93CF93DF93EC016A017B01722ED7
:102E7000AB019601CB01B6010E94D71C6CE176E054
:102E8000811126C046015701E894B7F82FEF3FEFB4
:102E90004FE75FE7C501B4010E94D71C81110CC048
:102EA0002FEF3FEF4FE75FE7C501B4010E940D1B15
:102EB00060E276E0181664F02FEF3FEF4FE75FE433
:102EC000C701B6010E94651C1816B4F464E276E0EE
:102ED000CE01DF91CF911F91FF90EF90DF90CF90C7
:102EE000BF90AF909F908F907F906F905F904F902A
:102EF0003F902F900C9457152FEF3FEF4FE75FEC6B
:102F0000C701B6010E940D1B87FDE0CF20E030E035
:102F1000A901C701B6010E940D1B312C212C87FF8E
:102F200009C06DE2CE010E94A0151C01F7FAF094D1
:102F3000F7F8F09410E060E070E080E09FE3711635
:102F400041F020E030E040E251E40E94121B1F5F9C
:102F5000F6CFA70196010E94A11A2B013C010E9405
:102F6000841B4B015C012AE0BC01A401CE010E943C
:102F700014167C01E20CF31C1123B1F1C501B4015C
:102F80000E94B31B9B01AC01C301B2010E94A01AB5
:102F90004B015C016EE2CE010E94A015E80EF91E05
:102FA000115010F120E030E040E251E4C501B401DD
:102FB0000E946A1C2B013C010E94841B4B014AE0C9
:102FC00050E0CE010E94F916E80EF91EB40190E01F
:102FD00080E00E94B31B9B01AC01C301B2010E94BF
:102FE000A01A4B015C01DCCFC701DF91CF911F918B
:102FF000FF90EF90DF90CF90BF90AF909F908F9019
:103000007F906F905F904F903F902F9008950C9419
:1030100023170F931F93CF93DF93EC010E94231785
:103020008C01CE010E94B115800F911FDF91CF91CD
:103030001F910F9108950E942C1D0E942C1D1F921C
:103040000F920FB60F9211242F938F939F93EF93AC
:10305000FF93E0919006F09191068081E0919606B1
:10306000F091970682FD1BC09081809199068F5F39
:103070008F7320919A06821741F0E0919906F0E053
:10308000E058F94F958F80939906FF91EF919F91AA
:103090008F912F910F900FBE0F901F9018958081E8
:1030A000F4CF1F920F920FB60F9211242F933F93DC
:1030B0004F935F936F937F938F939F93AF93BF9340
:1030C000EF93FF9380E896E00E941E14FF91EF912A
:1030D000BF91AF919F918F917F916F915F914F9130
:1030E0003F912F910F900FBE0F901F90189580E881
:1030F00096E00E94D31321E0892B09F420E0822F6F
:10310000089520917D06222381F03FB7F894209105
:103110007D06213069F42DB320937B064DB32091B9
:103120007C06209524232DBB3FBF8CBD9DBD0895FB
:1031300030937B06FACF8EBD00000DB407FEFDCFA5
:103140008EB5089580917D06882361F09FB7F8942D
:1031500020917D0680917B06213019F48DBB9FBFA5
:1031600008958FBF089590E080E0089508950E942B
:1031700008030E94FA0F0E9402100E944C1388E17B
:103180009CE00FB6F894A895809360000FBE9093D2
:1031900060006BE675E080E896E00E94D915A8957E
:1031A0000E9420100E94C110FACF69E084E696E0E8
:1031B0000E945D066AE083E596E00E945D0640E4B9
:1031C00050E060E870E08AE396E00E94E00DEAE3F8
:1031D000F6E083E495E09183808388E0878B08950F
:1031E000E0E8F6E01382128288EE93E0A0E0B0E01F
:1031F00084839583A683B7838BE096E09183808355
:1032000085EC90E09587848784EC90E097878687AB
:1032100080EC90E0918B808B81EC90E0938B828BA3
:1032200082EC90E0958B848B86EC90E0978B868B7C
:10323000118E128E138E148E08951F920F920FB658
:103240000F9211242F933F938F939F93AF93BF932C
:1032500080911E0790911F07A0912007B091210730
:1032600030911D0723E0230F2D3758F50196A11D3E
:10327000B11D20931D0780931E0790931F07A093F5
:103280002007B09321078091220790912307A091F6
:103290002407B09125070196A11DB11D8093220737
:1032A00090932307A0932407B0932507BF91AF9174
:1032B0009F918F913F912F910F900FBE0F901F9074
:1032C000189526E8230F0296A11DB11DD2CF2FB766
:1032D000F89460911E0770911F07809120079091CC
:1032E00021072FBF08953FB7F8948091220790914E
:1032F0002307A0912407B091250726B5A89B05C0F8
:103300002F3F19F00196A11DB11D3FBFBA2FA92F64
:10331000982F8827BC01CD01620F711D811D911D61
:1033200042E0660F771F881F991F4A95D1F70895CD
:103330008F929F92AF92BF92CF92DF92EF92FF92C5
:103340006B017C010E9473194B015C01C114D10413
:10335000E104F104E9F00E940C1A0E947319681943
:1033600079098A099B09683E73408105910570F3CC
:1033700021E0C21AD108E108F10888EE880E83E046
:10338000981EA11CB11CC114D104E104F10429F759
:10339000FF90EF90DF90CF90BF90AF909F908F9075
:1033A0000895789484B5826084BD84B5816084BDBD
:1033B00085B5826085BD85B5816085BDEEE6F0E0AE
:1033C000808181608083E1E8F0E01082808182600A
:1033D0008083808181608083E0E8F0E0808181608B
:1033E0008083E1EBF0E0808184608083E0EBF0E0BB
:1033F000808181608083EAE7F0E08081846080835F
:103400008081826080838081816080838081806808
:1034100080831092C10008950895833081F028F4CC
:10342000813099F08230A9F008958730A9F0883072
:10343000C9F08430B1F4809180008F7D03C0809109
:1034400080008F7780938000089584B58F7784BD46
:10345000089584B58F7DFBCF8091B0008F778093E6
:10346000B00008958091B0008F7DF9CFCF93DF93A6
:1034700090E0FC01E458FA4F249180579A4FFC01E8
:1034800084918823C9F090E0880F991FFC01E255D0
:10349000FA4FA591B491FC01EC55FA4FC591D49126
:1034A00061110DC09FB7F8948C91209582238C9365
:1034B0008881282328839FBFDF91CF9108956230B0
:1034C00051F49FB7F8943C91822F809583238C937D
:1034D000E8812E2BEFCF8FB7F894EC912E2B2C9305
:1034E0008FBFEACF1F93CF93DF93282F30E0F901EE
:1034F000E859FA4F8491F901E458FA4FD491F9014F
:10350000E057FA4FC491CC23A9F0162F81110E94E5
:103510000D1AEC2FF0E0EE0FFF1FEC55FA4FA591BE
:10352000B4918FB7F894EC91111108C0D095DE23B7
:10353000DC938FBFDF91CF911F910895DE2BF8CFE1
:103540005058BB27AA270E94B81A0C942B1C0E9423
:103550001D1C38F00E94241C20F039F49F3F19F400
:1035600026F40C941A1C0EF4E095E7FB0C94141C42
:10357000E92F0E943C1C58F3BA17620773078407AF
:10358000950720F079F4A6F50C945E1C0EF4E095F6
:103590000B2EBA2FA02D0B01B90190010C01CA010D
:1035A000A0011124FF27591B99F0593F50F4503EB8
:1035B00068F11A16F040A22F232F342F4427585FAA
:1035C000F3CF469537952795A795F0405395C9F7C2
:1035D0007EF41F16BA0B620B730B840BBAF091507A
:1035E000A1F0FF0FBB1F661F771F881FC2F70EC019
:1035F000BA0F621F731F841F48F4879577956795EC
:10360000B795F7959E3F08F0B0CF9395880F08F0D7
:103610009927EE0F9795879508950E94F01B08F45F
:1036200081E008950E94261B0C942B1C0E94241CF0
:1036300058F00E941D1C40F029F45F3F29F00C94C3
:10364000141C51110C945F1C0C941A1C0E943C1CFD
:1036500068F39923B1F3552391F3951B550BBB27C1
:10366000AA2762177307840738F09F5F5F4F220F06
:10367000331F441FAA1FA9F335D00E2E3AF0E0E8FD
:1036800032D091505040E695001CCAF72BD0FE2F47
:1036900029D0660F771F881FBB1F261737074807DB
:1036A000AB07B0E809F0BB0B802DBF01FF27935893
:1036B0005F4F3AF09E3F510578F00C94141C0C9427
:1036C0005F1C5F3FE4F3983ED4F38695779567954A
:1036D000B795F7959F5FC9F7880F911D96958795C8
:1036E00097F90895E1E0660F771F881FBB1F6217E7
:1036F00073078407BA0720F0621B730B840BBA0BA5
:10370000EE1F88F7E09508950E94441C88F09F57AB
:1037100098F0B92F9927B751B0F0E1F0660F771FF5
:10372000881F991F1AF0BA95C9F714C0B13091F0EB
:103730000E945E1CB1E008950C945E1C672F782FE8
:103740008827B85F39F0B93FCCF3869577956795B0
:10375000B395D9F73EF490958095709561957F4F1C
:103760008F4F9F4F0895E89409C097FB3EF49095C2
:103770008095709561957F4F8F4F9F4F9923A9F04A
:10378000F92F96E9BB279395F695879577956795D9
:10379000B795F111F8CFFAF4BB0F11F460FF1BC01D
:1037A0006F5F7F4F8F4F9F4F16C0882311F096E9B0
:1037B00011C0772321F09EE8872F762F05C066235E
:1037C00071F096E8862F70E060E02AF09A95660F17
:1037D000771F881FDAF7880F9695879597F90895D0
:1037E000990F0008550FAA0BE0E8FEEF1616170612
:1037F000E807F907C0F012161306E407F50798F07A
:10380000621B730B840B950B39F40A2661F0232B92
:10381000242B252B21F408950A2609F4A140A6950E
:103820008FEF811D811D089597F99F6780E870E0F3
:1038300060E008959FEF80EC089500240A94161626
:10384000170618060906089500240A94121613068E
:10385000140605060895092E0394000C11F488231C
:1038600052F0BB0F40F4BF2B11F460FF04C06F5F38
:103870007F4F8F4F9F4F089557FD9058440F551F0E
:1038800059F05F3F71F04795880F97FB991F61F0E2
:103890009F3F79F087950895121613061406551F59
:1038A000F2CF4695F1DF08C0161617061806991FC5
:1038B000F1CF86957105610508940895E894BB27BA
:1038C00066277727CB0197F908950E94F01B08F42B
:1038D0008FEF08950E947D1C0C942B1C0E941D1CD0
:1038E00038F00E94241C20F0952311F00C94141C35
:1038F0000C941A1C11240C945F1C0E943C1C70F345
:10390000959FC1F3950F50E0551F629FF001729F84
:10391000BB27F00DB11D639FAA27F00DB11DAA1F93
:10392000649F6627B00DA11D661F829F2227B00DE0
:10393000A11D621F739FB00DA11D621F839FA00D6B
:10394000611D221F749F3327A00D611D231F849FBB
:10395000600D211D822F762F6A2F11249F57504012
:103960009AF0F1F088234AF0EE0FFF1FBB1F661F8D
:10397000771F881F91505040A9F79E3F510580F056
:103980000C94141C0C945F1C5F3FE4F3983ED4F33A
:10399000869577956795B795F795E7959F5FC1F7FA
:1039A000FE2B880F911D9695879597F908950E9493
:1039B000F01B880B990B089597FB072E16F40094C3
:1039C00007D077FD09D00E94181D07FC05D03EF4F2
:1039D000909581959F4F0895709561957F4F0895BB
:1039E000A1E21A2EAA1BBB1BFD010DC0AA1FBB1F03
:1039F000EE1FFF1FA217B307E407F50720F0A21B75
:103A0000B30BE40BF50B661F771F881F991F1A94E1
:103A100069F760957095809590959B01AC01BD010B
:103A2000CF010895EE0FFF1F0590F491E02D09944A
:103A3000AA1BBB1B51E107C0AA1FBB1FA617B707D4
:103A400010F0A61BB70B881F991F5A95A9F78095F0
:103A50009095BC01CD01089581E090E0F8940C941C
:063A6000311DF894FFCFB8
:103A66000000000000000000000000000000000050
:103A76000000000000000000000000000000000040
:103A86000000000000000000000000000000000030
:103A96000000000000000000000000000000000020
:103AA6000000000000000000000000000000000010
:103AB6000000000000000000000000000000000000
:103AC60000000000000000000000000000000000F0
:103AD60000000000000000000000000000000000E0
:103AE60000000000000080C0E0E0F0F8F8F8FCFC00
:103AF600FCFEFEFEFEFEFEFEFEFEFEFEFEFEFEFEE2
:103B0600FEFEFEFEFEFEFEFEFEFEFEFEFEFEFEFECF
:103B1600FEFEFEFEFEFEFEFEFEFEFEFEFEFEFEFEBF
:103B2600FEFEFEFEFEFEFEFEFEFEFEFEFEFEFEFEAF
:103B3600FEFEFEFEFEFEFEFEFEFEFEFEFEFEFEFE9F
:103B4600FEFEFEFEFEFEFEFEFEFEFEFEFEFEFEFC91
:103B5600FCFCF8F8F8F0E0E0C0800000000000008F
:103B66000080F0F8FEFFFFFFFFFF7F3FDF6F27B308
:103B7600DB4B692D25A5A5A52D6D49DB933767CFB1
:103B86009F3F7FFFFFFFFFFF3FCF67339BDB496D03
:103B96002D25252525256D6D49DB9BB3A7EFEFFF69
:103BA600FFFFFF7F3F9FCF67B39BDB496D25A5A531
:103BB600A5252D694BDBB3274FDFBFFFFFFFFF7F37
:103BC6003FDF4F27B3DB4B492D25A5A5A5256D491D
:103BD600DBDBB3274F9FBFFFFFFFFFFEF8F0C00000
:103BE600FCFFFFFFFFFFFFFF03F83E03F80EE3F9BC
:103BF600FCFEFFFFFFFFFFFFFFFFFFFEFCF1073CA0
:103C0600F107FCE10FFFFFF0C03F60CF9FB0262F0A
:103C16006F6F6F6F6F6F6F4FCFDE9E3F7FFFFFFF40
:103C2600FF0FE1FC07F11C07F1FCFEFFFFFFFFFFA2
:103C3600FFFFFFFFFEFCFDFFFFFFFFFFFF07E1FEAB
:103C460007F91C07F9FCFEFFFFFFFFFFFFFFFFFF61
:103C5600FEFCFDFFFFFFFFFFFFFFFFFFFFFFFFFC77
:103C66001FFFFFFFFFFFFFFFF0C71E70C79C7147D6
:103C76009FBF3F7F7F7F7F7F7F7F3F9FCF63308E5A
:103C8600E3389FC1F8FFFFFFFFFFFEBCBC3D79791B
:103C96007B7B7B7B7B7B7B3286FC3903FE0087FF4D
:103CA600FFF8C39F70C39E3067CF9F3F7F7F7F7FA4
:103CB6007F7F7F3FBFDF5F3FBFFFFFFFFFF0C31F79
:103CC60070C79E3067CFBF3F7F7F7F7F7F7F7F3FFD
:103CD6009FCF7F3FFFFFFFFFFFFFFFFFFFFFFF1F9E
:103CE6000000070F3F7FFFFFFFFFFFFEFCF9F3F623
:103CF600E4EDEDC9CBCBCBCBCBE9EDE4F6F2FBFDA6
:103D0600FCFFFFFFFFFFFFFFF9F2F6E4EDC9C9DB99
:103D1600DBDADADADADBDBC9EDE4F6F3F9FEFFFF2C
:103D2600FFFFFFFFFEFCF9FBF2E6ECEDE9CBCBCBA8
:103D3600CBCBC9EDEDE4F2F3F9FCFEFFFFFFFFFF8D
:103D4600FEFCF9FBF2E4EDEDC9CBCBCBCBCBC9ED59
:103D5600EDE4F2FBF9FCFEFFFFFF7F3F0F070100DA
:103D66000000000000000001030307070F0F1F1FDC
:103D76001F3F3F3F3F3F3F3F3F3F3F3F3F3F3F3F6D
:103D86003F3F3F3F3F3F3F3F3F3F3F3F3F3F3F3F3D
:103D96003F3F3F3F3F3F3F3F3F3F3F3F3F3F3F3F2D
:103DA6003F3F3F3F3F3F3F3F3F3F3F3F3F3F3F3F1D
:103DB6003F3F3F3F3F3F3F3F3F3F3F3F3F3F3F3F0D
:103DC6003F3F3F3F3F3F3F3F3F3F3F3F3F3F3F1F1D
:103DD6001F1F0F0F0F070303010000000000000064
:103DE60000000000000000000000000000000000CD
:103DF60000000000000000000000000000000000BD
:103E060000000000000000000000000000000000AC
:103E1600000000000000000000000000000000009C
:103E2600000000000000000000000000000000008C
:103E3600000000000000000000000000000000007C
:103E4600000000000000000000000000000000006C
:103E5600000000000000000000000000000000005C
:103E6600304050E805F005F8050106696E69745F93
:103E760073657269616C3A207061737300696E696B
:103E8600745F63616E3A207265747279696E670059
:103E9600696E69745F63616E3A20706173730000C6
:103EA600000000A40F2A15B318B6189B0AC30DC448
:103EB6000DC30DCB0D00000000A40F2A15B318B6D4
:103EC600181B18C30DC40DC30DCB0D696E69742084
:103ED600636F6D706C65746500696E6974206469E2
:103EE60073706C617900696E6974204F4244204397
:103EF600414E202D2000696E697420436F6E7472E6
:103F06006F6C2043414E202D20000A0A00300053DA
:103F16005441545553004252414B45533A202020B8
:103F2600005354454552494E473A20005448524F93
:103F360054544C453A2000445443530050314200F7
:103F46005031530050315400554E4B4E4F574E0092
:103F5600454E41424C45440044495341424C454438
:103F6600004552524F5200000000005F142A15010E
:103F7600143F14D313ED13DF130D0A006E616E00A8
:083F8600696E66006F766600AB
:00000001FF
