:100000000C94C1010C94F2010C94F2010C94F201D5
:100010000C94F2010C94F2010C94F2010C94F20194
:100020000C94F2010C94F2010C94F2010C94F20184
:100030000C94F2010C941E090C94F2010C94F20140
:100040000C94F2010C94F3080C94F2010C94F2015C
:100050000C94F2010C94F2010C94F2010C94DC1853
:100060000C94F2010C941A150C9450150C94F20196
:100070000C94F2010C94F2010C94F2010C94F20134
:100080000C94F2010C94F2010C94F2010C94F20124
:100090000C94F2010C94F2010C94F2010C94F20114
:1000A0000C94F2010C94F2010C94F2010C94F20104
:1000B0000C94F2010C94F2010C94F2010C94F201F4
:1000C0000C94F2010C94F2010C94F2010C94F201E4
:1000D0000C94F2010C94F2010C94F2010C94F201D4
:1000E0000C94F20195035C039903600363036603B8
:1000F0006A036D037103740377037A037D0381033D
:10010000850389038C038F03851072107410761099
:1001100078107A107C107E1049174C173B173F1748
:1001200045178317501754175A175E176217681729
:100130006C177017831776177A177E173C184118BB
:10014000461850185A18D31864186C1874187E186A
:1001500088189218A118AB18D318B518BF18C91869
:100160000C947A150C94C9180C949B130C94A11838
:100170000C9445170C9450180C948F130C945A1827
:100180000C942A140C944C170C945E170C94BF1802
:100190000C9472100C94B6150C943B170C948C03B1
:1001A0000C9474100C9499030C9470170C943C18D4
:1001B0000C9477030C9449170C9476170C946817D9
:1001C0000C9495030C947A030C943F170C947810BC
:1001D0000C9474030C947E100C947A100C94921866
:1001E0000C9441180C947D030C9476100C946D03C0
:1001F0000C945A170C945C030C94AF100C948F035E
:100200000C9460030C9483170C9489030C9454177A
:100210000C9464180C9450170C946A030C944618B0
:100220000C9481030C9466030C947E170C94851037
:100230000C9462170C94A9130C9463030C946C181F
:100240000C9474180C946C170C94BD130C947E18B9
:100250000C94AB180C9471030C944C140C94B518BA
:100260000C947A170C9488180C94D3180C947C1066
:100270000C9401170C94850300000A0B02090C0D65
:100280000E08070304010000000000000000000049
:10029000000000000000000000000000000000005E
:1002A000000000001211100000000000000000001B
:1002B000000000000000000000000000000001023B
:1002C0001020200808102040102040800201020168
:1002D0000804020101020408102040808040201020
:1002E0000804020180040201804020100804020179
:1002F00008040201010204081020408001020408E1
:1003000010204080050505050705080808080202B9
:1003100002020A0A0808040404040101010101019F
:1003200001010303030303030303040707070C0C82
:100330000C0C0C0C0C0C0202020206060606060649
:1003400006060B0B0B0B0B0B0B0B00002200250002
:1003500028002B002E0031003400020100000501AE
:1003600008010B0100002100240027002A002D00B5
:100370003000330001010000040107010A01B61535
:10038000011711241FBECFEFD1E2DEBFCDBF00E0C9
:100390000CBF14E0A0E0B2E0ECEBF8E300E00BBF30
:1003A00002C007900D92AC34B107D9F725E0ACE458
:1003B000B4E001C01D92A237B207E1F711E0C1EC31
:1003C000D1E000E006C021970109802FFE010E94C4
:1003D000541CCF3BD10780E00807A9F70E94BB154A
:1003E0000C945C1C0C9400000C949319CF93DF9335
:1003F000EC0180E591E00E94841560E088890E940C
:10040000C01780EC0E949E1561E088890E94C01789
:100410000E94A5156AE070E080E090E0DF91CF9146
:100420000C9457191F93CF93DF93EC01162F80E59F
:1004300091E00E94841560E088890E94C01783E0E3
:100440000E949E15812F0E949E1580E00E949E159D
:10045000182F61E088890E94C0170E94A515812F7E
:10046000DF91CF911F910895CF92DF92EF92FF928B
:100470000F931F93CF93DF931F921F92CDB7DEB7D9
:100480007C01162FC22E80E591E049835A830E9499
:10049000841560E0F70180890E94C01783E00E9404
:1004A0009E15812F0E949E154981042F5A81152F78
:1004B000D12CDC1459F0F8E0DF1641F080E00E9406
:1004C0009E15F80181938F01D394F3CF61E0F7017A
:1004D00080890E94C0170F900F90DF91CF911F91DC
:1004E0000F91FF90EF90DF90CF900C94A515EF92B5
:1004F000FF921F93CF93DF931F92CDB7DEB77C019E
:10050000162F80E591E049830E94841560E0F70191
:1005100080890E94C01782E00E949E15812F0E9450
:100520009E154981842F0E949E1561E0F701808904
:100530000E94C0170F90DF91CF911F91FF90EF9015
:100540000C94A515CF92DF92EF92FF920F931F9319
:10055000CF93DF931F921F92CDB7DEB78C01E62EAB
:10056000F22E80E591E049835A830E94841560E071
:10057000F80180890E94C01782E00E949E158E2D8E
:100580000E949E154981E42EC42E5A81D52E8C2DB1
:100590008E198F1530F4F60181916F010E949E151E
:1005A000F6CF61E0F80180890E94C0170F900F908C
:1005B000DF91CF911F910F91FF90EF90DF90CF903F
:1005C0000C94A515EF92FF921F93CF93DF931F9288
:1005D0001F92CDB7DEB77C01162F80E591E02A830C
:1005E00049830E94841560E0F70180890E94C0174A
:1005F00085E00E949E15812F0E949E154981842FBF
:100600000E949E152A81822F0E949E1561E0F701AB
:1006100080890E94C0170F900F90DF91CF911F919A
:10062000FF90EF900C94A5151F93CF93DF93EC01EF
:1006300080E591E00E94841560E088890E94C017DF
:1006400080EA0E949E1580E00E949E15182F61E0AE
:1006500088890E94C0170E94A515812FDF91CF9134
:100660001F9108950F931F93CF938C01C62F262FB0
:1006700040EE6FE00E94E2026FE0C8010E941202A9
:10068000982F907E81E09C1301C080E0CF911F9154
:100690000F9108950F931F93CF93DF938C01462FF3
:1006A00050E0FA013197E231F105E8F58827EE587C
:1006B000FF4F8F4F0C94541CC7E8DFEF4FE13CC055
:1006C000C7E0DAEB38C0C5E8D1EF35C0C7E0DEEBF4
:1006D00049E032C0C7E8DFEF02C0C7E8DAEF47E021
:1006E0002BC0C7E8DFEF0BC0C7E0DEEB08C0C7E0F8
:1006F000DDEA05C0C7E8DAEF02C0C6E8D0EF43E0A4
:100700001BC0C7E8DAEF41E017C0C5E8D1EF41E40C
:1007100013C0C6E8D0EF05C0C4E0D0EA02C0C2E80A
:10072000D0ED40E009C081E016C0C7E8DFEF4FE33D
:1007300003C0C7E8DFEF4FE06AE2C8010E9477021A
:100740004D2F69E2C8010E9477024C2F68E2C80170
:100750000E94770280E0DF91CF911F910F91089561
:100760000F931F93CF938C01C0E340E06C2FC8011F
:100770000E94770260E16C0F40E0C8010E9477029E
:1007800060E26C0F40E0C8010E947702CF5FCE3379
:1007900061F740E060E6C8010E94770240E060E750
:1007A000C801CF911F910F910C9477020F931F9363
:1007B000CF93DF93EC01062F0E94F60160E8CE0193
:1007C0000E943203182F6AE070E080E090E011117F
:1007D0000CC00E945719602FCE010E944A03882343
:1007E00039F06AE070E080E090E00E94571928C07C
:1007F0006AE070E080E090E00E945719CE010E940C
:10080000B00343E06BE2CE010E94770224E044E6AD
:1008100060E6CE010E94E20220E040E660E7CE0101
:100820000E94E20260E0CE010E943203C82F8823BA
:10083000C1F26AE070E080E090E00E9457191C2F3E
:10084000812FDF91CF911F910F9108950F931F93E7
:10085000CF93DF9300D01F92CDB7DEB74130B1F414
:100860000C831B83890122273327502F5C71402F73
:10087000437078E0579F400D112448604A8355E04B
:10088000169507955A95E1F709830DC0A80123E055
:10089000569547952A95E1F749830295000F007E0A
:1008A0000A831C821B8224E0AE014F5F5F4F0E94CF
:1008B000A2020F900F900F900F90DF91CF911F9198
:1008C0000F910895EF92FF920F931F93CF93DF93B1
:1008D00000D01F92CDB7DEB77A018901FA011082EC
:1008E000F901108211821282138224E0AE014F5F5F
:1008F0005F4F0E9434022A813981822F90E065E0A7
:10090000959587956A95E1F7F8E03F9F800D911DD9
:100910001124092E000CAA0BBB0BF80180839183D4
:10092000A283B38323FF25C032E0880F991FAA1F3B
:10093000BB1F3A95D1F72370820F911DA11DB11DE8
:10094000BA2FA92F982F88272B81820F911DA11DC7
:10095000B11DBA2FA92F982F88272C81820F911DA6
:10096000A11DB11D80839183A283B38381E0F70130
:1009700080830F900F900F900F90DF91CF911F9178
:100980000F91FF90EF900895FF920F931F93CF93D5
:10099000DF93EC01F62E8A01AC014A5F5F4F65E000
:1009A0006F0D2D810E94A2020130110519F48D8175
:1009B00080648D8364E06F0D4D81CE010E947702CB
:1009C00009811A812B813C8148816F2DCE010E94C3
:1009D0002604DF91CF911F910F91FF9008950F93FF
:1009E0001F93CF93DF93EC01162F9C012F5F3F4F96
:1009F000AC010E9462046FEF610FCE010E941202EF
:100A0000082F64E0610FCE010E94120203FB002751
:100A100000F90E87282F2F702D83AE014A5F5F4F9C
:100A200065E0610FCE01DF91CF911F910F910C9482
:100A30003402615028E048E00C94E202AF92BF9289
:100A4000CF92DF92EF92FF920F931F93CF93DF939A
:100A500000D0CDB7DEB75C016B0180E3898380E411
:100A60008A8380E58B83FB0110828E010F5F1F4F0D
:100A700083E0E82EE00EF801F1908F016F2DC501A3
:100A80000E941202982F987083FD04C0F394F6011F
:100A9000F08203C0E012EFCF92E0892F0F900F9009
:100AA0000F90DF91CF911F910F91FF90EF90DF900A
:100AB000CF90BF90AF900895FC01608B08951F9375
:100AC000CF93DF93EC01162F61E088890E94841791
:100AD00061E088890E94C0170E941B10612FCE011F
:100AE0000E94D60391E0811101C090E0892FDF912F
:100AF000CF911F9108958F929F92AF92BF92DF92F4
:100B0000EF92FF920F931F93CF93DF931F92CDB776
:100B1000DEB77C01D62E480159016AE070E080E022
:100B200090E049830E94571960E8C7010E94320390
:100B3000182F4981882329F06AE070E080E090E076
:100B40001AC0D11004C09501840160E206C081E0A2
:100B5000D81206C09501840164E2C7010E942604F0
:100B600060E0C7010E943203182F6AE070E080E065
:100B700090E0112321F00E945719812F03C00E9499
:100B8000571980E00F90DF91CF911F910F91FF9047
:100B9000EF90DF90BF90AF909F908F9008958F92CD
:100BA0009F92AF92BF92EF92FF920F931F93CF93BA
:100BB000DF931F921F92CDB7DEB77C01562F4801FD
:100BC00059016AE070E080E090E04A8359830E9416
:100BD000571960E8C7010E943203182F4A815981D2
:100BE000882329F06AE070E080E090E031C0523064
:100BF000B1F040F4552379F05130F9F495018401B6
:100C000064E018C0543099F070F05530B1F495019B
:100C1000840168E10FC09501840160E00BC095017B
:100C2000840168E007C09501840160E103C095017B
:100C3000840164E1C7010E94260460E0C7010E94AC
:100C40003203182F6AE070E080E090E0112321F079
:100C50000E945719812F03C00E94571980E00F90FE
:100C60000F90DF91CF911F910F91FF90EF90BF9068
:100C7000AF909F908F900895CF92DF920F931F9324
:100C8000FC0120834183528363837483093008F01D
:100C900008E005833696D60110E0CD018C199D0938
:100CA000801791071CF48D918193F7CF80E01F91FD
:100CB0000F91DF90CF900895EF92FF920F931F93C3
:100CC000FC0120834183528363837483093008F0DD
:100CD00008E005833696D70110E0CD018E199F09F3
:100CE000801791071CF48D918193F7CF80E01F91BD
:100CF0000F91FF90EF900895FC01118212821382F0
:100D00001482158210821686178680E00895CF928D
:100D1000DF92EF92FF920F931F93CF93DF931F9277
:100D2000CDB7DEB77C016B0100E010E0BE016F5F64
:100D30007F4FC7010E941E050F5F1F4F823021F4B5
:100D40000233110599F720C002331105E9F0A6011D
:100D50006981C7010E94C4046981C7010E94190505
:100D600000E010E00F5F1F4F69816150C7010E94D2
:100D7000120283FF04C002331105A1F707C002333A
:100D8000110521F080E003C086E001C087E00F90EC
:100D9000DF91CF911F910F91FF90EF90DF90CF9057
:100DA0000895AF92BF92CF92DF92EF920F93CF93BD
:100DB0005C01C02F0E2DEC2E0E943C066C2F70E0C3
:100DC000C501CF910F91EF90DF90CF90BF90AF9082
:100DD0000C948706EF92FF920F93CF93DF93EC0171
:100DE0000E945C0660E070E0CE01DF91CF910F9130
:100DF000FF90EF900C948706CF93DF93EC010E9455
:100E0000140380FF07C061E6CE010E94EF0420E0DA
:100E100041E008C081FF0CC061E7CE010E94EF04F1
:100E200020E042E06CE2CE010E94E20280E001C0DC
:100E300084E0DF91CF910895EF92FF920F931F937B
:100E4000CF93DF93EC018B017A010E94FC068111A4
:100E500011C09D81F8019083DE011696F7012D8166
:100E600030E0BF016E197F09621773072CF49D9162
:100E70009193F5CFF8011082DF91CF911F910F91DF
:100E8000FF90EF900895CF92DF92EF92FF920F9331
:100E90001F93CF93DF931F921F92CDB7DEB76C01E4
:100EA0007B018A0129833A830E94FC0629813A81C9
:100EB000811123C0F6019581F8019083F6014181EB
:100EC000528163817481F70140835183628373830C
:100ED000D6011696B90120E030E0F601458150E0D8
:100EE0002417350764F42830310549F09D91FB0142
:100EF0009193BF012F5F3F4FF0CFF80110820F9009
:100F00000F90DF91CF911F910F91FF90EF90DF90A5
:100F1000CF9008950E941403837011F484E0089523
:100F200083E008956DE20E941202887F09F085E057
:100F30000895FC0161817281838194810895FC018F
:100F400086850895FC0180810895FC01108A118A2C
:100F5000128A138A148A158A168A178A148E158E95
:100F6000168E178E408351836283738308952F9268
:100F70003F924F925F926F927F928F929F92AF9229
:100F8000BF92CF92DF92EF92FF920F931F93CF9376
:100F9000DF93CDB7DEB72C970FB6F894DEBF0FBE48
:100FA000CDBF1C01CB01BA0128013901A90198016B
:100FB0000E94F6196D837E838F83988720E030E04E
:100FC000A901C701B6010E94631A18160CF09BC054
:100FD000A70196016D817E818F8198850E94C01B3B
:100FE000D10154962D913D914D915C9157970E945E
:100FF000F7194B015C01F101648B758B868B978B24
:1010000080914C0490914D04019690934D048093EF
:101010004C0480819181A281B38189839A83AB83BF
:10102000BC83B05889879A87AB87BC879C01AD0188
:10103000C501B4010E94631A87FF05C089859A859E
:10104000AB85BC850EC029813A814B815C81C5018D
:10105000B4010E94BB1B18164CF489819A81AB81A4
:10106000BC81F101848B958BA68BB78BD101149633
:101070002D913D914D915C9117976D817E818F816E
:1010800098850E94C01B4B015C01F10124893589C0
:101090004689578960857185828593850E94C01B2A
:1010A0009B01AC01C501B4010E94F7194B015C0121
:1010B000D10150962D913D914D915C915397C30173
:1010C000B2010E94F619A70196010E94681AF10167
:1010D00024853585468557850E94C01B9B01AC0140
:1010E000C501B4010E94F619D10158966D937D9304
:1010F0008D939C935B97F101408A518A628A738A2F
:1011000080E090E002C081E090E02C960FB6F89469
:10111000DEBF0FBECDBFDF91CF911F910F91FF902A
:10112000EF90DF90CF90BF90AF909F908F907F9087
:101130006F905F904F903F902F90089526E040E091
:1011400052EC61E070E08CEC94E00E94931469E34F
:1011500072E08CEC94E00C944711CF93DF93EC0198
:1011600060E1CE010E945F05882369F062E370E0D0
:1011700080E090E00E9457196BE472E08CEC94E000
:101180000E944711EDCF6EE572E08CEC94E0DF91A8
:10119000CF910C944711CF93DF9361157105F1F056
:1011A000EB0121E1FB0111922A95E9F7F8949B01EB
:1011B000275F3F4FAB014C5F5F4F0E944307811198
:1011C00009C00E9426196D837E838F83988780E0F3
:1011D00090E002C081E090E0789402C082E090E06C
:1011E000DF91CF9108951F920F920FB60F921124A5
:1011F0000BB60F922F933F934F935F936F937F9311
:101200008F939F93AF93BF93EF93FF93E09150041D
:10121000F09151041995FF91EF91BF91AF919F917A
:101220008F917F916F915F914F913F912F910F908F
:101230000BBE0F900FBE0F901F9018951F920F922C
:101240000FB60F9211240BB60F922F933F934F932B
:101250005F936F937F938F939F93AF93BF93EF931E
:10126000FF93E0914E04F0914F041995FF91EF9197
:10127000BF91AF919F918F917F916F915F914F91AE
:101280003F912F910F900BBE0F900FBE0F901F90AC
:101290001895CF92DF92EF92FF92CF93DF936B017D
:1012A0007C01EA01F8941092800010928100109263
:1012B00085001092840020E030E040E857E40E946E
:1012C000C01B9B01AC0160E074E284E79BE40E94D8
:1012D000681A0E94DA1A613021E0720781059105CF
:1012E00050F08091810085608093810060E074E01F
:1012F00080E090E036C0613471058105910550F0C1
:101300008091810084608093810060E071E080E0E2
:1013100090E027C0693071058105910550F08091FA
:10132000810083608093810060E470E080E090E061
:1013300018C0623071058105910550F080918100DF
:1013400082608093810068E070E080E090E009C0F6
:101350008091810081608093810061E070E080E095
:1013600090E00E94091B9B01AC01C701B6010E94DD
:10137000C01B9B01AC0160E074E284E79BE40E9427
:10138000681A20E030E040E85FE30E94F6190E940E
:10139000DA1A6115710521E08207910550F4611593
:1013A00071058105910549F461E070E080E090E00D
:1013B00004C06FEF7FEF80E090E07093890060934E
:1013C00088008091810088608093810080916F0007
:1013D000826080936F00D0935104C093500478943E
:1013E000DF91CF91FF90EF90DF90CF900895CF9253
:1013F000DF92EF92FF92CF93DF936B017C01EA01C2
:10140000F8941092B0001092B1001092B20020E057
:1014100030E040E853E40E94C01B9B01AC0160E057
:1014200074E284E79BE40E94681A0E94DA1A613031
:1014300021E072078105910550F08091B10087602D
:101440008093B10060E074E080E090E054C06138C7
:1014500071058105910550F08091B10086608093FF
:10146000B10060E071E080E090E045C0613471055A
:101470008105910550F08091B10085608093B100A5
:1014800060E870E080E090E036C06132710581056F
:10149000910550F08091B10084608093B10060E4C8
:1014A00070E080E090E027C069307105810591050A
:1014B00050F08091B10083608093B10060E270E0F1
:1014C00080E090E018C0623071058105910550F010
:1014D0008091B10082608093B10068E070E080E0AC
:1014E00090E009C08091B10081608093B10061E01B
:1014F00070E080E090E00E94091B9B01AC01C701F5
:10150000B6010E94C01B9B01AC0160E074E284E75D
:101510009BE40E94681A20E030E040E85FE30E940C
:10152000F6190E94DA1A6F3F71058105910509F0DD
:1015300050F4611571058105910549F461E070E091
:1015400080E090E004C06FEF70E080E090E0609396
:10155000B3008091B10082608093B10080917000EF
:10156000826080937000D0934F04C0934E047894AF
:10157000DF91CF91FF90EF90DF90CF900895CF92C1
:10158000DF92EF92FF920F931F93CF93DF93E901C6
:10159000811106C0188219821A821B821C821DC00A
:1015A0006A017B010E9426192881211106C021E0D1
:1015B000288369837A838B839C8309811A812B8199
:1015C0003C81DC01CB01801B910BA20BB30B21E012
:1015D0008C159D05AE05BF0508F420E0822FDF9134
:1015E000CF911F910F91FF90EF90DF90CF900895D2
:1015F0000F931F93FB01BA01A9019801892B29F0D0
:1016000081E0EF2B19F080E001C081E01F910F9184
:101610000C94BF0AF89460E081E30E94C0177894AC
:10162000089561E081E30E9484170C940A0BF894FA
:1016300061E081E30E94C01778940895F89489E0EE
:101640000E94F01778940C949D0BCF92DF92EF924A
:10165000FF920E941E0B6B017C0126E636E642E4F7
:1016600054E40E94631A181634F0FF90EF90DF9054
:10167000CF900C94170B20E030E84BE554E4C70101
:10168000B6010E94BB1B87FD06C0FF90EF90DF9064
:10169000CF900C940A0BFF90EF90DF90CF900895BD
:1016A0008F929F92AF92BF92CF92DF92EF92FF9272
:1016B000CF93DF934115510589F1EA018880998024
:1016C000AA80BB80A50194010E94F6196B017C01E0
:1016D000A50194016C817D818E819F810E94F61904
:1016E0009B01AC01C701B6010E94681A4B015C0165
:1016F000C884D984EA84FB84A70196016C857D8522
:101700008E859F850E94F6199B01AC01C501B4012D
:101710000E94C01BA70196010E94F7196B017C0172
:10172000C701B601DF91CF91FF90EF90DF90CF908E
:10173000BF90AF909F908F900895CF92DF92EF92DD
:10174000FF92BC01990F880B990B0E940B1B2AE991
:1017500039E949E150E40E94C01B2AE939E14CE72C
:1017600053E40E94F6196B017C0120E030E040E474
:1017700051E40E94631A87FD13C023E333E94BE56C
:1017800054E4C701B6010E94BB1B18167CF493E316
:10179000C92E93E9D92E9BE5E92E94E4F92E06C0D3
:1017A000C12CD12C80E4E82E81E4F82EC701B601CB
:1017B000FF90EF90DF90CF900895F89460E070E094
:1017C00082E00E94151878946DE672E08CEC94E04B
:1017D0000C94471161E082E00E9484170C94DD0BA9
:1017E000F8946FEF70E082E00E941518789462E838
:1017F00072E08CEC94E00C944711EF92FF920F93FF
:101800001F93CF93DF93EC01F8948AE00E94F017C6
:101810007C018BE00E94F0178C017894C7010E9434
:101820009D0B688379838A839B83C8010E949D0BEB
:101830006C837D838E839F83DF91CF911F910F9166
:10184000FF90EF900895F89460E080E30E94C01745
:1018500078940895CF93DF93EC01F894BC0185E070
:101860000E941518BE0187E00E9415187894DF9138
:10187000CF910895CF93DF93EC01F894BC0186E0FB
:101880000E941518BE0188E00E9415187894DF9117
:10189000CF9108958091720481111BC080917304CF
:1018A000811117C080917904811113C080917A044D
:1018B00081110FC00E94F00B80E090E00E943A0C72
:1018C00081E08093720468E972E08CEC94E00C94FF
:1018D00047110895809172048823F1F080E090E030
:1018E0000E942A0C8FEF90E00E943A0C0E94230C79
:1018F0006FE070E080E090E00E9457190E94DD0BDD
:1019000080E090E00E943A0C1092720468EA72E063
:101910008CEC94E00C94471108951F93CF93DF93C0
:10192000CDB7DEB728970FB6F894DEBF0FBECDBF98
:1019300080917204811105C080917304882309F499
:1019400045C0CE0101960E94FD0B2DEC3CEC4CE213
:1019500052E469817A818B819C810E94BB1B87FF45
:101960000FC011E02DEC3CEC4CE252E46D817E8125
:101970008F8198850E94BB1B87FF03C010E001C0C8
:1019800011E02EE934E044E650E060E070E0812FA1
:101990000E94BF0A882399F00E946A0C8091740407
:1019A0008260809374040E94F40E81E0809373043B
:1019B00069EB72E08CEC94E00E94471107C08091C3
:1019C00074048D7F809374041092730428960FB66C
:1019D000F894DEBF0FBECDBFDF91CF911F91089568
:1019E0000F931F93CF93DF9380917204811104C0F2
:1019F0008091740480FF84C0F8948AE00E94F017FC
:101A0000EC018BE00E94F0177894CD2B11F0892B1C
:101A100069F480919C0490919D04019690939D049B
:101A200080939C0404970CF063C004C010929D0442
:101A300010929C04C0E0F89489E00E94F01778941A
:101A4000892B99F480919A0490919B04019690932C
:101A50009B0480939A04049764F06FEF72E08CEC1F
:101A600094E00E944711D1E005C010929B041092AF
:101A70009A04D0E0F8948EE00E94F0178C018DE07B
:101A80000E94F0177894012B11F0892B99F4809122
:101A900098049091990401969093990480939804E6
:101AA000049764F06FE273E08CEC94E00E944711BD
:101AB00081E005C0109299041092980480E0C11151
:101AC00004C0D11102C0882369F00E946A0C809181
:101AD0007404816080937404DF91CF911F910F9102
:101AE0000C94F40E809174048E7F8093740408C06B
:101AF0006BEC72E08CEC94E00E944711C1E09BCF4C
:101B0000DF91CF911F910F910895F89460E085E0E7
:101B10000E94C01760E087E00E94C01760E086E086
:101B20000E94C01760E088E00E94C01760E08DE06E
:101B30000E94C01760E08CE00E94C017789461E0BA
:101B400085E00E94841761E087E00E94841761E0CD
:101B500086E00E94841761E088E00E94841761E0BB
:101B60008DE00E94841761E08CE00E94841780E081
:101B700090E00E943A0C80E090E00E942A0C0E94C3
:101B8000230C61E080E30C9484178F929F92AF92B4
:101B9000BF92CF92DF92EF92FF920F931F93CF935A
:101BA000DF9380917204882309F4DDC0F8940E94C9
:101BB00032196B017C018091940490919504A0915D
:101BC0009604B0919704A7019601281B390B4A0B84
:101BD0005B0BCA01B9010E94091BC0929404D09208
:101BE0009504E0929604F092970420E030E04AE7F2
:101BF00054E40E94681A6B017C0160917504709135
:101C00007604809177049091780440E252E00E943B
:101C1000500B60939004709391048093920490937E
:101C20009304F8948EE00E94F0175C018DE00E940E
:101C3000F017EC017894C5010E949D0B4B015C01EB
:101C4000CE010E949D0B9B01AC01C501B4010E9415
:101C5000F71920E030E040E05FE30E94C01B4B0139
:101C60005C0160938C0470938D0480938E04909338
:101C70008F0420E030E04AE754E4C701B6010E9437
:101C8000681A6B017C01409190045091910460911D
:101C90009204709193049501840182E594E00E947E
:101CA000B707892B09F05EC0C0906A04D0906B041E
:101CB000E0906C04F0906D0420E030E040E251ECE4
:101CC000C701B6010E94631A87FF28C080E090E038
:101CD0000E942A0CC701B601905840E152E00E94D0
:101CE000500B0E94DA1ACB016536710510F084E6BC
:101CF00090E00E943A0C20E030E040EA51E460912C
:101D000090047091910480919204909193040E94A8
:101D1000631A87FF27C00E94230C24C020E030E014
:101D200040E251E4C701B6010E94BB1B1816D4F46F
:101D3000F89461E080E30E94C017789480E090E01E
:101D40000E943A0C40E052E0C701B6010E94500BDD
:101D50000E94DA1ACB016A36710510F089E690E02C
:101D60000E942A0C7894DF91CF911F910F91FF90E0
:101D7000EF90DF90CF90BF90AF909F908F9008959D
:101D8000EF92FF920F93CF93DF93CDB7DEB72897F3
:101D90000FB6F894DEBF0FBECDBF85E089838CEC13
:101DA0008A83E2E7F4E080818B8381818C83828166
:101DB0008D83F894CE0101967C0108E020E043E792
:101DC00050E060E070E08BE794E00E94EA067894CF
:101DD00028960FB6F894DEBF0FBECDBFDF91CF912E
:101DE0000F91FF90EF900895EF92FF920F93CF9392
:101DF000DF93CDB7DEB728970FB6F894DEBF0FBEDE
:101E0000CDBF85E089838CEC8A831B821C821D8276
:101E10001E82809174048F83F894CE0101967C0118
:101E200008E020E04FEA50E060E070E08BE794E0EB
:101E30000E94EA06789428960FB6F894DEBF0FBE8B
:101E4000CDBFDF91CF910F91FF90EF900895CF9389
:101E5000DF93CDB7DEB761970FB6F894DEBF0FBE44
:101E6000CDBFBE016F5F7F4F8BE794E00E94CB0830
:101E7000892B09F052C08A85853009F04EC08B85C8
:101E80008C3C09F04AC089819A81AB81BC81803742
:101E90009105A105B10519F40E944A0C3EC0813795
:101EA0009105A105B10519F40E946A0C36C082376C
:101EB0009105A105B10569F48C859D85AE85BF8529
:101EC0008093750490937604A0937704B09378047C
:101ED00024C08F3A9105A105B105F9F40E946A0C5E
:101EE00069E573E08CEC94E00E940C114C855D85F3
:101EF0006E857F852AE030E08CEC94E00E944012F1
:101F000066E773E08CEC94E00E940C114AE050E02C
:101F100068898CEC94E00E94541261960FB6F89494
:101F2000DEBF0FBECDBFDF91CF910895E2E7F4E0B1
:101F300010821182128240E050E060EF71E482E58D
:101F400094E00E94A507E2E5F4E086E696E6A6E2C4
:101F5000BFE384839583A683B78380E090E0A0EEFF
:101F6000BFE380879187A287B3871486158616867C
:101F700017860895E1E9F0E08081887F82608083A0
:101F8000E1EAF0E08081887F826080830E94110B0B
:101F90000E94EA0B0E94850D0E940A0B0E94DD0B35
:101FA00080E090E00E943A0C80E090E00C942A0CD3
:101FB0000F931F930E949E086FE773E08CEC94E0F0
:101FC0000E940C118BE794E00E94AD0800EF17E02F
:101FD00020E030E040E060E08BE794E00E947B0589
:101FE00000E710E020E030E040E060E08BE794E0C4
:101FF0000E94CF0500EA10E020E030E040E061E020
:102000008BE794E00E94CF050FEF17E020E030E06F
:1020100040E061E08BE794E00E947B0501E710E07F
:1020200020E030E041E062E08BE794E00E94CF05E1
:102030001F910F910895CF93CFB7F8948091CA0460
:10204000811127C0E9E3F3E08491E3EFF2E094919A
:10205000E82FF0E0EE0FFF1FEC59FC4FA591B49173
:10206000EC91E92321F461E085E30E94C01761E06F
:1020700085E30E9484178CB580618CBD8CB580642B
:102080008CBD61E084E30E94841761E083E30E94D9
:1020900084178091CA048F5F8093CA04CFBFCF9109
:1020A00008959FB7F8948091CA04882319F081504D
:1020B0008093CA048091CA04811105C08CB58F7BBE
:1020C0008CBD1092C9049FBF08952FB7F89490E07B
:1020D00088309105A8F4FC018827EC57FF4F8F4FFB
:1020E0000C94541C80E212C081E010C082E00EC04B
:1020F00084E00CC088E00AC080E408C080E806C024
:1021000082E08093C90480E001C080E19091C8041E
:10211000892B8093C8048091C904811103C081E098
:102120008093C9042FBF08959091C9049230B1F0F3
:102130002FB7F894883030F4E82FF0E0EF5CFD4FD3
:10214000808101C080E080959091C80489238093AC
:10215000C804811102C01092C9042FBF0895CF9204
:10216000DF92EF92FF920F931F93CF93DF936C0157
:102170007A018B01C0E0D0E0CE15DF0589F0D801EF
:102180006D918D01D601ED91FC910190F081E02DD2
:10219000C6011995892B11F47E0102C02196ECCF5E
:1021A000C701DF91CF911F910F91FF90EF90DF90CA
:1021B000CF900895EF92FF920F931F93CF93DF93E9
:1021C0008C017B01C0E0D0E0F701EC0FFD1F6491B2
:1021D000662361F0D801ED91FC910190F081E02D32
:1021E000C8011995892B11F02196EECFCE01DF9110
:1021F000CF911F910F91FF90EF900895DC01ED9129
:10220000FC91DB0114964D915C9115976D917C9139
:102210000280F381E02D19940C94EC16DC01ED9111
:10222000FC910190F081E02D1994DB01ED91FC917E
:1022300011970190F081E02DBC01CD0119946AE263
:1022400074E00C94EC160F931F93CF93DF93EC0183
:102250000E94DA108C01CE010E941F11800F911F85
:10226000DF91CF911F910F9108950F931F93CF93FB
:10227000DF93EC010E94FE108C01CE010E941F1121
:10228000800F911FDF91CF911F910F9108950F93B0
:102290001F93CF93DF93EC010E94EC168C01CE01CB
:1022A0000E941F11800F911FDF91CF911F910F91FD
:1022B00008950F931F93CF93DF93EC010E940E11AB
:1022C0008C01CE010E941F11800F911FDF91CF91D1
:1022D0001F910F9108950F931F93CF93DF93EC01FC
:1022E0000E9415118C01CE010E941F11800F911FB9
:1022F000DF91CF911F910F9108954F925F926F924E
:102300007F92EF92FF920F931F93CF93DF93CDB7FE
:10231000DEB7A1970FB6F894DEBF0FBECDBF7C012C
:10232000FA01CB0119A2223008F42AE08E010F5DD8
:102330001F4F422E512C612C712CBF01A301920121
:102340000E94321CF901CA01015011096A3014F4CB
:10235000605D01C0695CD8016C93232B242B252B75
:1023600061F7B801C7010E94EC16A1960FB6F89468
:10237000DEBF0FBECDBFDF91CF911F910F91FF90B8
:10238000EF907F906F905F904F900895CF92DF9283
:10239000EF92FF920F931F93CF93DF93EC016A01AB
:1023A0007B012115310579F4E881F9810190F081F3
:1023B000E02D642FDF91CF911F910F91FF90EF904F
:1023C000DF90CF9019942A303105E9F477FF1AC0D5
:1023D0006DE20E940E118C0144275527BA014C1959
:1023E0005D096E097F092AE0CE010E947D11800FF0
:1023F000911FDF91CF911F910F91FF90EF90DF9090
:10240000CF9008952AE0B701A601CE01DF91CF91C8
:102410001F910F91FF90EF90DF90CF900C947D1162
:102420009A01AB01770F660B770B0C94C6110F93D3
:102430001F93CF93DF93EC019A01AB01770F660BEB
:10244000770B0E94C6118C01CE010E941F11800FD4
:10245000911FDF91CF911F910F9108950F931F93BB
:10246000CF93DF93EC010E94C6118C01CE010E9434
:102470001F11800F911FDF91CF911F910F91089530
:102480002115310541F4DC01ED91FC910190F081C1
:10249000E02D642F19940C947D119A01462F50E081
:1024A00060E070E00C9440120F931F93CF93DF9382
:1024B000EC019A01462F50E060E070E00E9440126B
:1024C0008C01CE010E941F11800F911FDF91CF91CF
:1024D0001F910F9108959A01AB0160E070E00C9498
:1024E00040120F931F93CF93DF93EC019A01AB013E
:1024F00060E070E00E9440128C01CE010E941F112A
:10250000800F911FDF91CF911F910F9108950F932D
:102510001F93CF93DF93EC010E9440128C01CE01F8
:102520000E941F11800F911FDF91CF911F910F917A
:1025300008954F925F926F927F928F929F92AF9287
:10254000BF92CF92DF92EF92FF92CF93DF93EC0195
:102550006A017B01B22E9A01AB01C701B6010E944C
:102560002D1C882319F06DE274E027C02601370185
:10257000E89477F82FEF3FEF4FE75FE7C301B20131
:102580000E942D1C81110DC02FEF3FEF4FE75FE739
:10259000C301B2010E94631A18161CF461E374E0CF
:1025A0000CC02FEF3FEF4FE75FE4C701B6010E9479
:1025B000BB1B18169CF465E374E0CE01DF91CF914C
:1025C000FF90EF90DF90CF90BF90AF909F908F9053
:1025D0007F906F905F904F900C94EC162FEF3FEF31
:1025E0004FE75FECC701B6010E94631A87FDE3CF96
:1025F00020E030E0A901C701B6010E94631A87FFFD
:102600000AC06DE2CE010E940E114C01F7FAF0945F
:10261000F7F8F09402C0812C912CA12C60E070E0BE
:1026200080E09FE3AB1441F020E030E040E251E471
:102630000E94681AA394F6CF9B01AC01C701B601B2
:102640000E94F7192B013C010E94DA1A6B017C01F0
:102650000E94091B9B01AC01C301B2010E94F61943
:102660002B013C012AE0B701A601CE010E947D1199
:102670007C01E80CF91CBB2031F06EE2CE010E9417
:102680000E11E80EF91EDB2CDD2029F120E030E0F0
:1026900040E251E4C301B2010E94C01B2B013C0186
:1026A0000E94DA1A4B01A12CB12C2AE0B501A40139
:1026B000CE010E947D11E80EF91EC501B4010E94F1
:1026C000091B9B01AC01C301B2010E94F6192B0149
:1026D0003C01DA94D9CFC701DF91CF91FF90EF9001
:1026E000DF90CF90BF90AF909F908F907F906F9032
:1026F0005F904F9008950C9499120F931F93CF936E
:10270000DF93EC010E9499128C01CE010E941F11EF
:10271000800F911FDF91CF911F910F910895FC01C0
:10272000918D228D892F90E0805C9F4F821B9109B3
:102730008F7399270895FC01918D828D981731F040
:10274000828DE80FF11D858D90E008958FEF9FEF4A
:102750000895FC01918D828D981761F0828DDF01C3
:10276000A80FB11D5D968C91928D9F5F9F73928F84
:1027700090E008958FEF9FEF0895FC01538D448DF5
:10278000252F30E0842F90E0821B930B541710F01C
:10279000CF960895019708958AE795E1892B41F036
:1027A00080E090E0892B21F00E947A15811125C0EC
:1027B00080E090E0892B41F080E090E0892B21F0CF
:1027C0000E94000081111CC080E090E0892B41F044
:1027D00080E090E0892B21F00E940000811113C05D
:1027E00080E090E0892BA1F080E090E0892B81F0DF
:1027F0000E94000081110AC008950E940000D8CFF5
:102800000E940000E1CF0E940000EACF0C9400007B
:102810000895FC01848DDF01A80FB11DA35ABF4F9D
:102820002C91848D90E001968F739927848FA689CF
:10283000B7892C93A089B1898C9180648C93938DF6
:10284000848D981306C00288F389E02D80818F7DE6
:1028500080830895CF93DF93EC01888D8823C9F09E
:10286000EA89FB89808185FD05C0A889B9898C9199
:1028700086FD0FC00FB607FCF5CF808185FFF2CF34
:10288000A889B9898C9185FFEDCFCE010E940914EA
:10289000E7CFDF91CF910895EF92FF920F931F93AF
:1028A000CF93DF93EC0181E0888F9B8D8C8D981303
:1028B00005C0E889F989808185FD24C0F62E0B8D3D
:1028C00010E00F5F1F4F0F731127E02E8C8DE81261
:1028D0000CC00FB607FCFACFE889F989808185FF23
:1028E000F5CFCE010E940914F1CF8B8DFE01E80FC8
:1028F000F11DE35AFF4FF0820B8FEA89FB8980813B
:10290000806207C0EE89FF896083E889F989808148
:102910008064808381E090E0DF91CF911F910F91DF
:10292000FF90EF900895CF92DF92EF92FF921F9366
:10293000CF93DF93EC016A017B01122FE889F989BB
:1029400082E080834115514E61057105B1F060E070
:1029500079E08DE390E0A70196010E94321CDA0134
:10296000C9010197A109B109B695A79597958795D2
:10297000AC01411580E15807A8F0E889F989108277
:1029800060E874E88EE190E0A70196010E94321C95
:10299000BA01A901415051096109710976956795FC
:1029A00057954795EC85FD855083EE85FF854083DF
:1029B000188EEC89FD891083EA89FB89808180610A
:1029C0008083EA89FB89808188608083EA89FB892A
:1029D000808180688083EA89FB8980818F7D808304
:1029E000DF91CF911F91FF90EF90DF90CF900895EE
:1029F000CF93DF93EC01E881F9810680F781E02D28
:102A00001995EA89FB8980818F7E8083EA89FB8919
:102A10008081877F8083EA89FB8980818F778083AB
:102A2000EA89FB8980818F7D80838A8D898FDF9100
:102A3000CF9108951F920F920FB60F9211240BB6EB
:102A40000F922F938F939F93EF93FF93E091DC046A
:102A5000F091DD048081E091E204F091E30482FDD5
:102A600012C090818091E5048F5F8F732091E604FE
:102A7000821751F0E091E504F0E0E453FB4F958FAD
:102A80008093E50401C08081FF91EF919F918F9128
:102A90002F910F900BBE0F900FBE0F901F901895A7
:102AA0001F920F920FB60F9211240BB60F922F9315
:102AB0003F934F935F936F937F938F939F93AF93C6
:102AC000BF93EF93FF938CEC94E00E940914FF9165
:102AD000EF91BF91AF919F918F917F916F915F9196
:102AE0004F913F912F910F900BBE0F900FBE0F9003
:102AF0001F9018958CEC94E00E948F1321E0892B95
:102B000009F420E0822F08952091C904222399F02E
:102B10004FB7F8942091C904213059F42DB3209374
:102B2000C7043DB32091C804209523232DBB4FBF7C
:102B300002C04093C7048CBD9DBD08958EBD0000AA
:102B40000DB407FEFDCF8EB508958091C90488238A
:102B500061F09FB7F8942091C9048091C704213097
:102B600019F48DBB9FBF08958FBF089565E38BE770
:102B700094E00C945C050E94F4010E94960F0E9460
:102B8000BA0F0E94D80F60E08DE00E94C01760E08D
:102B90008DE00E94C01761E08DE00E94841761E023
:102BA0008DE00E94841763E973E08CEC94E00E944E
:102BB00047110E94270F0E94C00E8CEC94E00E94E7
:102BC0008F13181619060CF049C08CEC94E00E9483
:102BD000A9138A3641F168F48B35C1F18936F1F0D9
:102BE0008C32E1F580E090E00E943A0C67EE73E0F1
:102BF00031C08D36F9F048F48B3681F580E090E0F5
:102C00000E942A0C6FEC73E025C08037D1F0853725
:102C100029F50E94DD0B6BEA73E01CC00E94F00BEB
:102C200067EB73E017C08FEF90E00E942A0C63EC13
:102C300073E010C08FEF90E00E943A0C6BED73E0F0
:102C400009C00E94170B63EF73E004C00E940A0BD7
:102C50006BEF73E08CEC94E00E9447118EE00E94D1
:102C6000F0178C018DE00E94F017EC01C8010E9462
:102C70009D0B6093B3047093B4048093B504909358
:102C8000B604CE010E949D0B6093B7047093B80404
:102C90008093B9049093BA0489E00E94F0170E94CF
:102CA0009D0B6093C3047093C4048093C5049093F8
:102CB000C6048AE00E94F0178C018BE00E94F01796
:102CC000EC01C8010E949D0B6093BB047093BC048F
:102CD0008093BD049093BE04CE010E949D0B60932F
:102CE000BF047093C0048093C1049093C20464E055
:102CF00074E08CEC94E00E940C116091AF04709130
:102D0000B0044AE050E08CEC94E00E94101269E0BC
:102D100074E08CEC94E00E940C114091C30450913B
:102D2000C4046091C5047091C60422E030E08CECCC
:102D300094E00E947B1360E174E08CEC94E00E94CC
:102D40000C114091B3045091B4046091B50470919A
:102D5000B60422E030E08CEC94E00E947B1366E144
:102D600074E08CEC94E00E940C114091B7045091F7
:102D7000B8046091B9047091BA0422E030E08CECA0
:102D800094E00E947B136CE174E08CEC94E00E9470
:102D90000C114091BB045091BC046091BD04709132
:102DA000BE0422E030E08CEC94E00E947B1363E2EE
:102DB00074E08CEC94E00E940C114091BF0450919F
:102DC000C0046091C1047091C20422E030E08CEC38
:102DD00094E00E947D13EDCE6115710579F0FB0141
:102DE00001900020E9F73197AF01461B570BDC013A
:102DF000ED91FC910280F381E02D199480E090E048
:102E00000895ECECF4E01382128288EE93E0A0E0E7
:102E1000B0E084839583A683B7838DE394E09183A8
:102E2000808385EC90E09587848784EC90E0978799
:102E3000868780EC90E0918B808B81EC90E0938B87
:102E4000828B82EC90E0958B848B86EC90E0978B64
:102E5000868B118E128E138E148E089590E0FC01D5
:102E60003197E231F10508F04EC08827E457FF4F53
:102E70008F4F0C94541C809180008F7703C08091F9
:102E800080008F7D80938000089580918000877FEF
:102E9000F9CF84B58F7702C084B58F7D84BD089546
:102EA0008091B0008F7703C08091B0008F7D8093B8
:102EB000B0000895809190008F7707C080919000B6
:102EC0008F7D03C080919000877F8093900008954C
:102ED0008091A0008F7707C08091A0008F7D03C0F4
:102EE0008091A000877F8093A000089580912001A9
:102EF0008F7707C0809120018F7D03C080912001D2
:102F0000877F809320010895CF93DF9390E0FC01A9
:102F1000E254FD4F2491FC01EC5FFC4F8491882327
:102F200061F190E0880F991FFC01EC59FC4FC591AD
:102F3000D491FC01E65BFC4FA591B491611109C0ED
:102F40009FB7F8948881209582238883EC912E2363
:102F50000BC0623061F49FB7F8943881822F80955E
:102F600083238883EC912E2B2C939FBF06C08FB7B1
:102F7000F894E8812E2B28838FBFDF91CF9108959D
:102F80001F93CF93DF93282F30E0F901E858FD4FCE
:102F90008491F901E254FD4FD491F901EC5FFC4FAB
:102FA000C491CC23C9F0162F81110E942E17EC2F4B
:102FB000F0E0EE0FFF1FE65BFC4FA591B4918FB7D9
:102FC000F894111105C09C91ED2FE095E92302C002
:102FD000EC91ED2BEC938FBFDF91CF911F91089572
:102FE000863308F0865390917B00282F2870977FB6
:102FF000922B90937B0087702091300290E4299F60
:1030000090011124822B80937C0080917A0080644F
:1030100080937A0080917A0086FDFCCF80917800C1
:103020002091790090E0922B08951F93CF93DF9326
:10303000182FEB0161E00E948417209711F460E0E3
:1030400004C0CF3FD10529F461E0812F0E94C01751
:10305000AFC0E12FF0E0E858FD4FE4914E2F50E073
:10306000FA013197E231F10508F09DC08827E25658
:10307000FF4F8F4F0C94541C84B5806884BDC7BD2E
:1030800097C084B5806284BDC8BD92C08091800025
:10309000806880938000D0938900C093880088C0A6
:1030A00080918000806280938000D0938B00C093D9
:1030B0008A007EC080918000886080938000D093D9
:1030C0008D00C0938C0074C08091B00080688093A4
:1030D000B000C093B3006CC08091B0008062809358
:1030E000B000C093B40064C0809190008068809369
:1030F0009000D0939900C09398005AC0809190009E
:10310000806280939000D0939B00C0939A0050C03F
:1031100080919000886080939000D0939D00C09330
:103120009C0046C08091A00080688093A0008091A0
:10313000A0008F7B8093A000D093A900C093A8002B
:1031400037C08091A00080628093A000D093AB0034
:10315000C093AA002DC08091A00088608093A00039
:10316000D093AD00C093AC0023C080912001806853
:1031700080932001D0932901C093280119C0809128
:103180002001806280932001D0932B01C0932A01FB
:103190000FC080912001886080932001D0932D0181
:1031A000C0932C0105C0C038D1050CF04DCF47CFDE
:1031B000DF91CF911F9108951F920F920FB60F923A
:1031C00011242F933F938F939F93AF93BF9380913D
:1031D0006A0590916B05A0916C05B0916D053091D9
:1031E000690523E0230F2D3720F40196A11DB11DA1
:1031F00005C026E8230F0296A11DB11D2093690585
:1032000080936A0590936B05A0936C05B0936D0550
:1032100080916E0590916F05A0917005B091710538
:103220000196A11DB11D80936E0590936F05A0932B
:103230007005B0937105BF91AF919F918F913F91B0
:103240002F910F900FBE0F901F9018952FB7F894E5
:1032500060916A0570916B0580916C0590916D0588
:103260002FBF08953FB7F89480916E0590916F0538
:10327000A0917005B091710526B5A89B05C02F3FA0
:1032800019F00196A11DB11D3FBFBA2FA92F982F8C
:103290008827820F911DA11DB11DBC01CD0142E007
:1032A000660F771F881F991F4A95D1F708958F924F
:1032B0009F92AF92BF92CF92DF92EF92FF926B01FB
:1032C0007C010E9432194B015C01C114D104E1045C
:1032D000F10401F10E94F5190E943219DC01CB01C1
:1032E00088199909AA09BB09883E9340A105B1052F
:1032F00060F321E0C21AD108E108F10888EE880ED7
:1033000083E0981EA11CB11CC114D104E104F10496
:1033100019F7DBCFFF90EF90DF90CF90BF90AF9089
:103320009F908F900895789484B5826084BD84B511
:10333000816084BD85B5826085BD85B5816085BDB0
:10334000EEE6F0E0808181608083E1E8F0E01082C9
:10335000808182608083808181608083E0E8F0E00A
:10336000808181608083E1EBF0E0808184608083F4
:10337000E0EBF0E0808181608083E1E9F0E0808132
:1033800082608083808181608083E0E9F0E08081D9
:1033900081608083E1EAF0E08081826080838081C7
:1033A00081608083E0EAF0E0808181608083E1E2F7
:1033B000F1E0808182608083808181608083E0E2AF
:1033C000F1E0808181608083EAE7F0E080818460C1
:1033D000808380818260808380818160808380811E
:1033E000806880831092C100089508955058BB27CB
:1033F000AA270E940E1A0C94811B0E94731B38F09E
:103400000E947A1B20F039F49F3F19F426F40C94A3
:10341000701B0EF4E095E7FB0C946A1BE92F0E94E9
:10342000921B58F3BA17620773078407950720F0B9
:1034300079F4A6F50C94B41B0EF4E0950B2EBA2F7C
:10344000A02D0B01B90190010C01CA01A0011124AA
:10345000FF27591B99F0593F50F4503E68F11A1656
:10346000F040A22F232F342F4427585FF3CF4695E7
:1034700037952795A795F0405395C9F77EF41F1609
:10348000BA0B620B730B840BBAF09150A1F0FF0FD3
:10349000BB1F661F771F881FC2F70EC0BA0F621FBF
:1034A000731F841F48F4879577956795B795F795AF
:1034B0009E3F08F0B0CF9395880F08F09927EE0F44
:1034C0009795879508950E94461B08F481E008951A
:1034D0000E947C1A0C94811B0E947A1B58F00E9457
:1034E000731B40F029F45F3F29F00C946A1B5111C3
:1034F0000C94B51B0C94701B0E94921B68F39923CB
:10350000B1F3552391F3951B550BBB27AA276217DF
:103510007307840738F09F5F5F4F220F331F441FEC
:10352000AA1FA9F335D00E2E3AF0E0E832D0915020
:103530005040E695001CCAF72BD0FE2F29D0660F0D
:10354000771F881FBB1F261737074807AB07B0E850
:1035500009F0BB0B802DBF01FF2793585F4F3AF056
:103560009E3F510578F00C946A1B0C94B51B5F3F8D
:10357000E4F3983ED4F3869577956795B795F795DC
:103580009F5FC9F7880F911D9695879597F90895C4
:10359000E1E0660F771F881FBB1F62177307840760
:1035A000BA0720F0621B730B840BBA0BEE1F88F76F
:1035B000E09508950E949A1B88F09F5798F0B92FC4
:1035C0009927B751B0F0E1F0660F771F881F991F58
:1035D0001AF0BA95C9F714C0B13091F00E94B41B2B
:1035E000B1E008950C94B41B672F782F8827B85F3B
:1035F00039F0B93FCCF3869577956795B395D9F7B0
:103600003EF490958095709561957F4F8F4F9F4FB9
:103610000895E89409C097FB3EF4909580957095C5
:1036200061957F4F8F4F9F4F9923A9F0F92F96E90E
:10363000BB279395F695879577956795B795F11183
:10364000F8CFFAF4BB0F11F460FF1BC06F5F7F4F20
:103650008F4F9F4F16C0882311F096E911C0772332
:1036600021F09EE8872F762F05C0662371F096E83B
:10367000862F70E060E02AF09A95660F771F881F0A
:10368000DAF7880F9695879597F90895990F0008AE
:10369000550FAA0BE0E8FEEF16161706E807F90724
:1036A000C0F012161306E407F50798F0621B730BBF
:1036B000840B950B39F40A2661F0232B242B252B40
:1036C00021F408950A2609F4A140A6958FEF811DE3
:1036D000811D089597F99F6780E870E060E0089584
:1036E0009FEF80EC089500240A941616170618061A
:1036F0000906089500240A941216130614060506F6
:103700000895092E0394000C11F4882352F0BB0F86
:1037100040F4BF2B11F460FF04C06F5F7F4F8F4FE9
:103720009F4F089557FD9058440F551F59F05F3F24
:1037300071F04795880F97FB991F61F09F3F79F0D3
:1037400087950895121613061406551FF2CF469555
:10375000F1DF08C0161617061806991FF1CF8695D7
:103760007105610508940895E894BB2766277727BB
:10377000CB0197F908950E94461B08F48FEF089536
:103780000E94D31B0C94811B0E94731B38F00E9473
:103790007A1B20F0952311F00C946A1B0C94701B7B
:1037A00011240C94B51B0E94921B70F3959FC1F3DA
:1037B000950F50E0551F629FF001729FBB27F00DDF
:1037C000B11D639FAA27F00DB11DAA1F649F662734
:1037D000B00DA11D661F829F2227B00DA11D621F83
:1037E000739FB00DA11D621F839FA00D611D221F3D
:1037F000749F3327A00D611D231F849F600D211D21
:10380000822F762F6A2F11249F5750409AF0F1F0A3
:1038100088234AF0EE0FFF1FBB1F661F771F881F0C
:1038200091505040A9F79E3F510580F00C946A1BBF
:103830000C94B51B5F3FE4F3983ED4F386957795DF
:103840006795B795F795E7959F5FC1F7FE2B880FB2
:10385000911D9695879597F908950E94461B880BB0
:10386000990B0895A1E21A2EAA1BBB1BFD010DC0E6
:10387000AA1FBB1FEE1FFF1FA217B307E407F50720
:1038800020F0A21BB30BE40BF50B661F771F881FFC
:10389000991F1A9469F760957095809590959B0192
:1038A000AC01BD01CF010895EE0FFF1F881F8BBF34
:0C38B0000790F691E02D1994F894FFCFDA
:1038BC00000020410000DC420000A0420000D24287
:1038CC000000000000007042000082420000C8426C
:1038DC00000000000000803F0000404133935B4437
:1038EC00011020010204084080696E69745F7365E1
:1038FC007269616C3A207061737300696E69745FF0
:10390C0063616E3A207265747279696E6700696ED4
:10391C0069745F63616E3A2070617373004D6173FB
:10392C007465722043796C696E646572204F7065A2
:10393C006E004D61737465722043796C696E6465B9
:10394C007220436C6F736500436F6E74726F6C20E2
:10395C00656E61626C656400436F6E74726F6C208F
:10396C0064697361626C6564004F70657261746F39
:10397C0072206F76657272696465004261642076AC
:10398C00616C756520726561642066726F6D206D67
:10399C0061737465722063796C696E6465722070F2
:1039AC00726573737572652073656E736F72004206
:1039BC0061642076616C7565207265616420667245
:1039CC006F6D20616363756D756C61746F722070BF
:1039DC00726573737572652073656E736F720042D6
:1039EC0061642076616C7565207265616420667215
:1039FC006F6D20776865656C207072657373757276
:103A0C00652073656E736F72004661756C742072FD
:103A1C0065706F7274207265636569766564206683
:103A2C00726F6D3A20002020445443733A20006991
:103A3C006E697420436F6E74726F6C2043414E201C
:103A4C002D2000696E697469616C697A6174696FA3
:103A5C006E20636F6D706C657465006F70656E655C
:103A6C006420534D437300636C6F73656420534D36
:103A7C004373006F70656E656420534C4173006333
:103A8C006C6F73656420534C4173006F70656E6589
:103A9C006420534C527300636C6F73656420534CF9
:103AAC0052730070756D70206F6E0070756D7020A4
:103ABC006F66660043414E2C002C504143432C0052
:103ACC002C50464C2C002C5046522C002C504D4364
:103ADC00312C002C504D43322C000D0A006E616EBF
:103AEC0000696E66006F766600000000004C14AF33
:0C3AFC0010BD132A148F13A9139B130094
:00000001FF
