:100000000C9470000C9498000C9498000C94980038
:100010000C9498000C9498000C9498000C94090986
:100020000C9498000C9498000C9498000C94E2089E
:100030000C9498000C9498000C9498000C949800E0
:100040000C944F140C9498000C9494120C94C612B7
:100050000C9498000C9498000C9498000C949800C0
:100060000C9498000C949800E303AA03E703AE03F2
:10007000B103B403B803BB03BF03C203C503C80382
:10008000CB03CF03D303D703DA03DD03000000085B
:10009000000201000003040700000000000000004F
:1000A000010204081020408001020408102001020F
:1000B00004081020040404040404040402020202DC
:1000C00002020303030303030000000025002800CD
:1000D0002B0000000000240027002A004C1370139E
:1000E00011241FBECFEFD8E0DEBFCDBF12E0A0E0ED
:1000F000B1E0EEE8FFE202C005900D92A23BB1072D
:10010000D9F723E0A2EBB2E001C01D92AB38B207F1
:10011000E1F710E0C0E7D0E004C02197FE010E94A3
:10012000BF17CE36D107C9F70E9437130C94C517F5
:100130000C9400000C940615CF93DF93EC01842FF0
:100140001E821F821886E4E0F0E0FA87E98791E0DA
:100150009B87488359833B832A8363307105C1F0B1
:100160003CF46130710561F06230710561F013C0DB
:100170006530710541F024F06630710549F00BC01F
:1001800028E030E002C02AE030E03D832C8305C047
:100190002CE030E0FACF1D821C8261E00E94C61381
:1001A00061E08A810E94C61361E088810E94021486
:1001B00061E08A810E9402140E94D70D8CB58F7D68
:1001C0008CBD8CB5837F8CBD8985DF91CF910C94DC
:1001D000FD12FC0166830895FC0160870895FC010F
:1001E0006387862F08956130710519F4FC01178229
:1001F00006C06230710529F421E0FC01278381E00B
:10020000089580E008956730710540F4FC0172871D
:100210006187862F0E94FD1281E0089580E0089595
:10022000CF93DF93EC018885882311F02A9804C0CE
:1002300060E088810E9402142F8181E0282730E04D
:10024000A901542F44275295550F507E9E81292F86
:1002500030E030E4239F302D22271124242B352B2E
:10026000832F0E94F61280E00E94F6128885882370
:1002700021F02A9ADF91CF91089561E08881DF9182
:10028000CF910C940214EF92FF920F931F93CF9390
:10029000DF931F92CDB7DEB78C017B01FC01848117
:1002A00095818C30910519F4FFE0FF2209C08A3056
:1002B000910519F483E0F82203C0089709F4FF249C
:1002C000F8018085882311F02A9807C060E0F801C2
:1002D000808149830E9402144981F801278181E0CD
:1002E000282730E0B901762F66277295770F707E48
:1002F0009681292F30E0C90190E4899F902D8827AD
:1003000011249B01282B392B80E090E0942F9795A6
:1003100099279795822B932B9061448155812CE0EE
:1003200030E0241B350B02C0EE0CFF1C2A95E2F7CF
:10033000E82AF92A8F2D0E94F6128E2D0E94F612BD
:10034000F8018085882349F02A9A0F90DF91CF9198
:100350001F910F91FF90EF90089561E0F801808167
:100360000F90DF91CF911F910F91FF90EF900C9420
:10037000021440E050E00C94430140E050E00C9443
:10038000430141E050E00C944301CF93DF93FC0123
:100390008281938197FD11C02085222321F05F98EF
:1003A00000005F9A0AC0EF0160E00E94021461E061
:1003B0008A81DF91CF910C940214DF91CF9108953F
:1003C0000F931F93CF93DF93EC018A0140E050E03D
:1003D0000E94430141E050E0B801CE010E94430178
:1003E0008B85882339F0CE01DF91CF911F910F913A
:1003F0000C94C501DF91CF911F910F910895CF9279
:10040000DF92EF92FF920F931F93CF93DF93E90157
:10041000811106C0188219821A821B821C821DC09B
:100420006A017B010E9499142881211106C021E0F4
:10043000288369837A838B839C8309811A812B812A
:100440003C81DC01CB01801B910BA20BB30B21E0A3
:100450008C159D05AE05BF0508F420E0822FDF91C5
:10046000CF911F910F91FF90EF90DF90CF90089563
:100470000F931F93FB01BA01A9019801892B29F061
:1004800081E0EF2B19F080E001C081E01F910F9116
:100490000C94FF01CF93DF93EC0180E591E00E9483
:1004A0000C1360E088890E94021480EC0E94F6120E
:1004B00061E088890E9402140E9426136AE070E0BD
:1004C00080E090E0DF91CF910C94CA141F93CF93FA
:1004D000DF93EC01162F80E591E00E940C1360E0A1
:1004E00088890E94021483E00E94F612812F0E94E4
:1004F000F61280E00E94F612182F61E088890E94AF
:1005000002140E942613812FDF91CF911F9108952D
:10051000CF92DF92EF92FF920F931F93CF93DF93CF
:1005200000D0CDB7DEB77C01162FC22E80E591E05A
:1005300049835A830E940C1360E0F70180890E946E
:10054000021483E00E94F612812F0E94F612498164
:10055000042F5A81152FD12CDC1459F0F8E0DF1646
:1005600041F080E00E94F612F80181938F01D3944C
:10057000F3CF61E0F70180890E9402140F900F9081
:10058000DF91CF911F910F91FF90EF90DF90CF906F
:100590000C942613EF92FF921F93CF93DF931F9239
:1005A000CDB7DEB77C01162F80E591E049830E942C
:1005B0000C1360E0F70180890E94021482E00E941F
:1005C000F612812F0E94F6124981842F0E94F612A2
:1005D00061E0F70180890E9402140F90DF91CF91B2
:1005E0001F91FF90EF900C942613CF92DF92EF9221
:1005F000FF920F931F93CF93DF9300D0CDB7DEB759
:100600008C01E62EF22E80E591E049835A830E9408
:100610000C1360E0F80180890E94021482E00E94BD
:10062000F6128E2D0E94F6124981E42EC42E5A81B4
:10063000D52E8C2D8E198F1530F4F60181916F0116
:100640000E94F612F6CF61E0F80180890E94021440
:100650000F900F90DF91CF911F910F91FF90EF902E
:10066000DF90CF900C942613EF92FF921F93CF93BD
:10067000DF9300D0CDB7DEB77C01162F80E591E087
:100680002A8349830E940C1360E0F70180890E944D
:10069000021485E00E94F612812F0E94F612498111
:1006A000842F0E94F6122A81822F0E94F61261E0A6
:1006B000F70180890E9402140F900F90DF91CF9173
:1006C0001F91FF90EF900C9426131F93CF93DF930D
:1006D000EC0180E591E00E940C1360E088890E94A3
:1006E000021480EA0E94F61280E00E94F612182F8F
:1006F00061E088890E9402140E942613812FDF91F5
:10070000CF911F9108950F931F93CF938C01C62F04
:10071000262F40EE6FE00E9434036FE0C8010E9474
:100720006602982F907E81E09C1301C080E0CF91FB
:100730001F910F9108950F931F93CF93DF93462F2F
:1007400050E0FA013197E231F105D8F5EC5CFF4F4A
:100750000C94BF17C7E8DFEF4FE13CC0C7E0DAEB0E
:1007600038C0C5E8D1EF35C0C7E0DEEB49E032C0A4
:10077000C7E8DFEF02C0C7E8DAEF47E02BC0C7E801
:10078000DFEF0BC0C7E0DEEB08C0C7E0DDEA05C065
:10079000C7E8DAEF02C0C6E8D0EF43E01BC0C7E805
:1007A000DAEF41E017C0C5E8D1EF41E413C0C6E875
:1007B000D0EF05C0C4E0D0EA02C0C2E8D0ED40E00E
:1007C00009C081E016C0C7E8DFEF4FE303C0C7E808
:1007D000DFEF4FE08C016AE20E94CA024D2F69E20E
:1007E000C8010E94CA024C2F68E2C8010E94CA02D6
:1007F00080E0DF91CF911F910F9108950F931F9388
:10080000CF938C01C0E340E06C2FC8010E94CA0264
:1008100060E16C0F40E0C8010E94CA0260E26C0F08
:1008200040E0C8010E94CA02CF5FCE3361F740E0CA
:1008300060E6C8010E94CA0240E060E7C801CF91AB
:100840001F910F910C94CA020F931F93CF93DF93C4
:10085000EC01062F0E944A0260E8CE010E94830349
:10086000182F6AE070E080E090E011110CC00E9447
:10087000CA14602FCE010E949B03882339F06AE0DE
:1008800070E080E090E00E94CA1428C06AE070E046
:1008900080E090E00E94CA14CE010E94FE0343E073
:1008A0006BE2CE010E94CA0224E044E660E6CE017B
:1008B0000E94340320E040E660E7CE010E9434034A
:1008C00060E0CE010E948303C82F8823C1F26AE052
:1008D00070E080E090E00E94CA141C2F812FDF910D
:1008E000CF911F910F9108950F931F93CF93DF9393
:1008F00000D000D0CDB7DEB74130B1F40C831B83FC
:10090000890122273327502F5C71402F437078E0F4
:10091000579F400D112448604A8355E0169507956E
:100920005A95E1F709830DC0A80123E05695479534
:100930002A95E1F749830295000F007E0A831C8205
:100940001B8224E0AE014F5F5F4F0E94F5020F90C3
:100950000F900F900F90DF91CF911F910F910895FD
:10096000EF92FF920F931F93CF93DF9300D000D0AD
:10097000CDB7DEB77A018901FA011082F901108240
:1009800011821282138224E0AE014F5F5F4F0E94FA
:1009900088022A813981822F90E065E095958795BC
:1009A0006A95E1F7F8E03F9F800D911D1124092E13
:1009B000000CAA0BBB0BF80180839183A283B38345
:1009C00023FF25C032E0880F991FAA1FBB1F3A954D
:1009D000D1F72370820F911DA11DB11DBA2FA92F30
:1009E000982F88272B81820F911DA11DB11DBA2F31
:1009F000A92F982F88272C81820F911DA11DB11D31
:100A000080839183A283B38381E0F70180830F9079
:100A10000F900F900F90DF91CF911F910F91FF904A
:100A2000EF900895FF920F931F93CF93DF93EC0104
:100A3000F62E8A01AC014A5F5F4F65E06F0D2D8194
:100A40000E94F5020130110519F48D8180648D83B7
:100A500064E06F0D4D81CE010E94CA0209811A81A6
:100A60002B813C8148816F2DCE010E947404DF915F
:100A7000CF911F910F91FF9008950F931F93CF93E4
:100A8000DF93EC01162F9C012F5F3F4FAC010E94BA
:100A9000B0046FEF610FCE010E946602082F64E080
:100AA000610FCE010E94660203FB002700F90E874A
:100AB000282F2F702D83AE014A5F5F4F65E0610FD5
:100AC000CE01DF91CF911F910F910C94880261505C
:100AD00028E048E00C943403AF92BF92CF92DF92AB
:100AE000EF92FF920F931F93CF93DF9300D01F924B
:100AF000CDB7DEB75C016B0180E3898380E48A8334
:100B000080E58B83FB0110828E010F5F1F4F83E016
:100B1000E82EE00EF801F1908F016F2DC5010E94C3
:100B20006602982F987083FD04C0F394F601F0825A
:100B300003C0E012EFCF92E0892F0F900F900F903B
:100B4000DF91CF911F910F91FF90EF90DF90CF90A9
:100B5000BF90AF900895FC01608B08951F93CF93D1
:100B6000DF93EC01162F61E088890E94C61361E0D3
:100B700088890E9402140E94D70D612FCE010E9425
:100B8000240491E0811101C090E0892FDF91CF9181
:100B90001F9108958F929F92AF92BF92DF92EF9232
:100BA000FF920F931F93CF93DF931F92CDB7DEB7C2
:100BB0007C01D62E480159016AE070E080E090E0A7
:100BC00049830E94CA1460E8C7010E948303182F5A
:100BD0004981882329F06AE070E080E090E01AC043
:100BE000D11004C09501840160E206C081E0D812F2
:100BF00006C09501840164E2C7010E94740460E0AC
:100C0000C7010E948303182F6AE070E080E090E043
:100C1000112321F00E94CA14812F03C00E94CA141C
:100C200080E00F90DF91CF911F910F91FF90EF9097
:100C3000DF90BF90AF909F908F9008958F929F927A
:100C4000AF92BF92EF92FF920F931F93CF93DF93D8
:100C500000D0CDB7DEB77C01562F480159016AE0BC
:100C600070E080E090E04A8359830E94CA1460E8F3
:100C7000C7010E948303182F4A815981882329F0D4
:100C80006AE070E080E090E031C05230B1F040F4B2
:100C9000552379F05130F9F49501840164E018C0CE
:100CA000543099F070F05530B1F49501840168E149
:100CB0000FC09501840160E00BC09501840168E0DC
:100CC00007C09501840160E103C09501840164E1DE
:100CD000C7010E94740460E0C7010E948303182FBB
:100CE0006AE070E080E090E0112321F00E94CA14D5
:100CF000812F03C00E94CA1480E00F900F90DF91F3
:100D0000CF911F910F91FF90EF90BF90AF909F9068
:100D10008F900895CF92DF920F931F93FC01208351
:100D20004183528363837483093008F008E00583AC
:100D30003696D60110E0CD018C199D0980179107D8
:100D40001CF48D918193F7CF80E01F910F91DF907C
:100D5000CF900895EF92FF920F931F93FC01208391
:100D60004183528363837483093008F008E005836C
:100D70003696D70110E0CD018E199F098017910793
:100D80001CF48D918193F7CF80E01F910F91FF901C
:100D9000EF900895FC011182128213821482158251
:100DA00010821686178680E00895CF92DF92EF9228
:100DB000FF920F931F93CF93DF931F92CDB7DEB7B0
:100DC0007C016B0100E010E0BE016F5F7F4FC70147
:100DD0000E946C050F5F1F4F823021F40233110512
:100DE00099F720C002331105E9F0A6016981C70116
:100DF0000E9412056981C7010E94670500E010E0AA
:100E00000F5F1F4F69816150C7010E94660283FF17
:100E100004C002331105A1F707C00233110521F008
:100E200080E003C086E001C087E00F90DF91CF91A2
:100E30001F910F91FF90EF90DF90CF900895AF92A8
:100E4000BF92CF92DF92EF920F93CF935C01C02FAE
:100E50000E2DEC2E0E948A066C2F70E0C501CF91FA
:100E60000F91EF90DF90CF90BF90AF900C94D5068C
:100E7000EF92FF920F93CF93DF93EC010E94AA06AB
:100E800060E070E0CE01DF91CF910F91FF90EF9085
:100E90000C94D506CF93DF93EC010E94650380FF8D
:100EA00007C061E6CE010E943D0520E041E008C098
:100EB00081FF0CC061E7CE010E943D0520E042E0C9
:100EC0006CE2CE010E94340380E001C084E0DF9137
:100ED000CF910895EF92FF920F931F93CF93DF93DB
:100EE000EC018B017A010E944A07811111C09D819A
:100EF000F8019083DE011696F7012D8130E0BF01E5
:100F00006E197F09621773072CF49D919193F5CFA9
:100F1000F8011082DF91CF911F910F91FF90EF9018
:100F20000895CF92DF92EF92FF920F931F93CF938A
:100F3000DF9300D0CDB7DEB76C017B018A01298336
:100F40003A830E944A0729813A81811123C0F60120
:100F50009581F8019083F60141815281638174810A
:100F6000F7014083518362837383D6011696B901DA
:100F700020E030E0F601458150E02417350764F4A5
:100F80002830310549F09D91FB019193BF012F5FFE
:100F90003F4FF0CFF80110820F900F90DF91CF916B
:100FA0001F910F91FF90EF90DF90CF9008950E94D6
:100FB0006503837011F484E0089583E008956DE281
:100FC0000E946602887F09F085E00895FC01618136
:100FD0007281838194810895FC0186850895FC01C6
:100FE0008081089526E040E052EC61E070E085EEFB
:100FF00092E00E940D1261E071E085EE92E00C94A7
:10100000F00ECF93DF93EC0160E1CE010E94AE05BC
:10101000882369F062E370E080E090E00E94CA14E7
:1010200063E171E085EE92E00E94F00EEDCF66E2A2
:1010300071E085EE92E0DF91CF910C94F00ECF93AA
:10104000DF9361157105F1F0EB0121E1FB011192D4
:101050002A95E9F7F8949B01275F3F4FAB014C5F5E
:101060005F4F0E949107811109C00E9499146D83FE
:101070007E838F83988780E090E002C081E090E0DB
:10108000789402C082E090E0DF91CF9108952F9292
:101090003F924F925F926F927F928F929F92AF9208
:1010A000BF92CF92DF92EF92FF921F93CF93DF9385
:1010B000CDB7DEB728970FB6F894DEBF0FBECDBF11
:1010C0001C01122F6B01770FEE08FF08412C512CE9
:1010D0003201812C912C54014C145D046E047F0468
:1010E0009CF4842F48870E943214092E000CAA0B0E
:1010F000BB0B880E991EAA1EBB1E8FEF481A580AFA
:10110000680A780A4885E8CFC501B401A7019601AD
:101110000E94A01762E0220F331F441F551F6A95DB
:10112000D1F7412C512C3201812C912C54014C14BB
:101130005D046E047F04CCF4812F2D833E834887A9
:101140005F830E943214092E000CAA0BBB0B880E81
:10115000991EAA1EBB1E9FEF491A590A690A790AED
:101160005F8148853E812D81E2CFB901C1010E9496
:10117000BD01C501B401A70196010E94A017CA01D3
:10118000B90122E0660F771F881F991F2A95D1F7B2
:10119000C10128960FB6F894DEBF0FBECDBFDF9118
:1011A000CF911F91FF90EF90DF90CF90BF90AF90C5
:1011B0009F908F907F906F905F904F903F902F9077
:1011C0000C94C1011F920F920FB60F9211242F930E
:1011D0003F934F935F936F937F938F939F93AF93BF
:1011E000BF93EF93FF93E091B402F091B50209959C
:1011F000FF91EF91BF91AF919F918F917F916F91EF
:101200005F914F913F912F910F900FBE0F901F90C4
:1012100018951F920F920FB60F9211242F933F93A0
:101220004F935F936F937F938F939F93AF93BF93EE
:10123000EF93FF93E091B202F091B3020995FF9111
:10124000EF91BF91AF919F918F917F916F915F913E
:101250004F913F912F910F900FBE0F901F901895B7
:10126000CF92DF92EF92FF92CF93DF936B017C01DD
:10127000EA01F8941092800010928100109285008B
:101280001092840020E030E040E857E40E940C1700
:101290009B01AC0160E074E284E79BE40E94B4151A
:1012A0000E942616613021E072078105910550F0F9
:1012B0008091810085608093810060E074E080E02F
:1012C00090E036C0613471058105910550F0809140
:1012D000810084608093810060E071E080E090E0B4
:1012E00027C0693071058105910550F0809181001A
:1012F00083608093810060E470E080E090E018C03B
:10130000623071058105910550F080918100826005
:101310008093810068E070E080E090E009C08091F7
:10132000810081608093810061E070E080E090E066
:101330000E9455169B01AC01C701B6010E940C1713
:101340009B01AC0160E074E284E79BE40E94B41569
:1013500020E030E040E85FE30E9442150E9426163C
:101360006115710521E08207910550F46115710541
:101370008105910549F461E070E080E090E004C0EF
:101380006FEF7FEF80E090E07093890060938800BA
:101390008091810088608093810080916F008260DD
:1013A00080936F00D093B502C093B4027894DF911C
:1013B000CF91FF90EF90DF90CF900895CF92DF9282
:1013C000EF92FF92CF93DF936B017C01EA01F894D7
:1013D0001092B0001092B1001092B20020E030E004
:1013E00040E853E40E940C179B01AC0160E074E2FA
:1013F00084E79BE40E94B4150E942616613021E028
:1014000072078105910550F08091B100876080934B
:10141000B10060E074E080E090E054C06138710594
:101420008105910550F08091B10086608093B100F4
:1014300060E071E080E090E045C0613471058105B5
:10144000910550F08091B10085608093B10060E813
:1014500070E080E090E036C0613271058105910551
:1014600050F08091B10084608093B10060E470E03E
:1014700080E090E027C0693071058105910550F04A
:101480008091B10083608093B10060E270E080E001
:1014900090E018C0623071058105910550F080918F
:1014A000B10082608093B10068E070E080E090E07D
:1014B00009C08091B10081608093B10061E070E06B
:1014C00080E090E00E9455169B01AC01C701B60177
:1014D0000E940C179B01AC0160E074E284E79BE47E
:1014E0000E94B41520E030E040E85FE30E9442151E
:1014F0000E9426166F3F71058105910509F050F491
:10150000611571058105910549F461E070E080E0A5
:1015100090E004C06FEF70E080E090E06093B30073
:101520008091B10082608093B100809170008260F0
:1015300080937000D093B302C093B2027894DF918D
:10154000CF91FF90EF90DF90CF900895E6EBF2E01F
:10155000108211821282089561E089E00E94C61310
:1015600060E08EE00E94C61360E08FE00E94C61328
:1015700060E080E10E94C61360E081E10E94C61332
:1015800061E086E00E94C613F89461E089E00E9461
:10159000021460E086E00E940214789408950F938C
:1015A0001F930E94F20763E471E085EE92E00E94CF
:1015B000B50E89EB92E00E94010800EF17E020E0F1
:1015C00030E040E060E089EB92E00E94CA0500E96B
:1015D00010E020E030E040E060E089EB92E00E9423
:1015E0001E0600EA10E020E030E040E061E089EB18
:1015F00092E00E941E060FEF17E020E030E040E08E
:1016000061E089EB92E00E94CA0501E910E020E068
:1016100030E041E062E089EB92E00E941E061F91FB
:101620000F9108954AE15BE060E070E088E492E4A5
:101630000C943009EF92FF920F93CF93DF93CDB7C5
:10164000DEB728970FB6F894DEBF0FBECDBF85E09A
:1016500089838CEC8A83E6EBF2E080818B83818145
:101660008C8382818D83F894CE0101967C0108E001
:1016700020E043E950E060E070E089EB92E00E94F6
:101680003807789428960FB6F894DEBF0FBECDBF0A
:10169000DF91CF910F91FF90EF900895EF92FF921D
:1016A0000F93CF93DF93CDB7DEB728970FB6F8949B
:1016B000DEBF0FBECDBF85E089838CEC8A8382E0DC
:1016C00090E0A0E0B0E08B839C83AD83BE838091EB
:1016D000B8028F83F894CE0101967C0108E020E0E7
:1016E0004FEA50E060E070E089EB92E00E9438073A
:1016F000789428960FB6F894DEBF0FBECDBFDF9169
:10170000CF910F91FF90EF9008958F929F92AF929B
:10171000BF92CF92DF92EF92FF92CF93DF93CDB73C
:10172000DEB761970FB6F894DEBF0FBECDBFBE0126
:101730006F5F7F4F89EB92E00E941F08892B09F0B1
:1017400002C167E571E085EE92E00E94F00E4981EA
:101750005A816B817C812AE030E085EE92E00E9424
:1017600030108A85853009F0EEC08B858C3C09F0FD
:10177000EAC089819A81AB81BC8180399105A1053C
:10178000B10519F40E94060DDEC081399105A1054D
:10179000B10519F40E94260DD6C082399105A10524
:1017A000B10509F0ACC068E671E085EE92E00E94F8
:1017B000B50E4C855D856E857F8522E030E085EE37
:1017C00092E00E942611CC84DD84EE84FF8420E028
:1017D00030E0A901C701B6010E94AF1587FD11C015
:1017E00020E030E040E85FE3C701B6010E94071740
:1017F000181654F4C12CD12C40E8E42E4FE3F42EFB
:1018000003C0C12CD12C76012AE939E949ED5FE307
:10181000C701B6010E940C172AE939E949E95EE3DC
:101820000E9443154B015C012AE939E949E95EE36D
:101830000E94AF1587FD10C020E030E040E050E48A
:10184000C501B4010E94071718166CF4812C912C65
:10185000A12C20E4B22E07C03AE9832E39E9932E59
:10186000A92C3EE3B32E29E939E949E550E4C70143
:10187000B6010E940C1723E333E343E35FE30E94C6
:1018800043156B017C0123E333E343E35FE30E94F1
:10189000AF1587FD12C023E333E343E850E4C701EB
:1018A000B6010E940717181674F483E3C82EDC2CC7
:1018B00083E8E82E80E4F82E06C093E3C92EDC2CE2
:1018C000EC2C9FE3F92E2DEC3CEC4CE454E4C501E8
:1018D000B4010E940C170E9426164B015C012DECEE
:1018E0003CEC4CE454E4C701B6010E940C170E9482
:1018F0002616DC01CB01B4010E94B40C24C08F3A3F
:101900009105A105B105F9F40E94260D60E971E089
:1019100085EE92E00E94B50E4C855D856E857F85D3
:101920002AE030E085EE92E00E94E90F6DEA71E076
:1019300085EE92E00E94B50E4AE050E0688985EE9F
:1019400092E00E94FD0F61960FB6F894DEBF0FBEC5
:10195000CDBFDF91CF91FF90EF90DF90CF90BF9000
:10196000AF909F908F9008950F931F93CF93DF9325
:101970008C01EB018091B60266EB71E085EE92E09E
:101980000E94F00E0D3382E0180738F00F318DE021
:10199000180728F00EE11DE002C00DE312E0C53F7C
:1019A000D10538F0C73686E0D80728F0C6E6D6E07D
:1019B00002C0C5EFD0E0F8946EEC71E085EE92E0E5
:1019C0000E94F00E4AE050E0B80185EE92E00E94DD
:1019D0001A106EED71E085EE92E00E94F00E4AE082
:1019E00050E0BE0185EE92E00E941A10B8018AEC28
:1019F00092E00E94BD01BE018AEC92E00E94C1010A
:101A00007894DF91CF911F910F9108958091B60244
:101A100081111BC08091B702811117C02EE04FE0E9
:101A200064E170E08AEC92E00E944708F89461E07B
:101A300086E00E940214789481E08093B6026DEEF5
:101A400071E085EE92E00C94F00E08958091B6025C
:101A50008823B1F02EE04FE064E170E08AEC92E080
:101A60000E944708F89460E086E00E94021478948F
:101A70001092B6026DEF71E085EE92E00C94F00EDC
:101A80000895DF92EF92FF920F931F93CF93DF930E
:101A90001092B8021092B7028091B602811105C06F
:101AA0008091B802882309F47AC0F8948EE00E94ED
:101AB0003214EC018FE00E9432147C01789460E5CE
:101AC00072E085EE92E00E94F00E4AE050E0B7012D
:101AD00085EE92E00E941A1060E772E085EE92E0D7
:101AE0000E94F00E4AE050E0BE0185EE92E00E94B6
:101AF0001A10B7016C0F7D1F7695679580E090E016
:101B00000E94551611E020E030E049E353E40E94C2
:101B1000071787FD10E02BED32E044E650E060E06F
:101B200070E0812F0E94FF01D82E06ED12E024E61E
:101B300030E040E050E0B701CE010E943802882337
:101B400061F00E94260D8091B80281608093B802F6
:101B50000E944E0B6EE072E010C0DD20C9F00E94C2
:101B6000260D8091B80282608093B8020E944E0BCD
:101B700081E08093B7026EE372E085EE92E0DF9140
:101B8000CF911F910F91FF90EF90DF900C94F00E8A
:101B90001092B8028091B70281111092B702DF91C2
:101BA000CF911F910F91FF90EF90DF900895CF9309
:101BB000CFB7F8948091E302811127C0EEEBF0E0FB
:101BC0008491EAEAF0E09491E82FF0E0EE0FFF1F35
:101BD000EE52FF4FA591B491EC91E92321F461E01D
:101BE0008AE00E94021461E08AE00E94C6138CB56C
:101BF00080618CBD8CB580648CBD61E08DE00E94FD
:101C0000C61361E08BE00E94C6138091E3028F5FF0
:101C10008093E302CFBFCF9108959FB7F89480914E
:101C2000E302882319F081508093E3028091E3025C
:101C3000811105C08CB58F7B8CBD1092E2029FBFD5
:101C400008959FB7F894882349F0813011F482E019
:101C500006C082E08093E20280E001C081E0209132
:101C6000E102822B8093E1028091E202811103C0A4
:101C700081E08093E2029FBF08959091E20292304A
:101C8000B1F02FB7F894882321F0813021F482E05D
:101C900003C081E001C080E080959091E10289233A
:101CA0008093E102811102C01092E2022FBF0895D9
:101CB000CF92DF92EF92FF920F931F93CF93DF9318
:101CC0006C017A018B01C0E0D0E0CE15DF0589F010
:101CD000D8016D918D01D601ED91FC910190F081BB
:101CE000E02DC6010995892B11F47E0102C02196D1
:101CF000ECCFC701DF91CF911F910F91FF90EF9033
:101D0000DF90CF900895EF92FF920F931F93CF93A0
:101D1000DF938C017B01C0E0D0E0F701EC0FFD1FE9
:101D20006491662361F0D801ED91FC910190F081FE
:101D3000E02DC8010995892B11F02196EECFCE0137
:101D4000DF91CF911F910F91FF90EF900895DC01EB
:101D5000ED91FC91DB0114964D915C9115976D917D
:101D60007C910280F381E02D09940C945B13DC01DB
:101D7000ED91FC910190F081E02D0994DB01ED9152
:101D8000FC9111970190F081E02DBC01CD010994E7
:101D900061E972E00C945B130F931F93CF93DF9371
:101DA000EC010E94830E8C01CE010E94C80E800FB0
:101DB000911FDF91CF911F910F9108950F931F9362
:101DC000CF93DF93EC010E94A70E8C01CE010E94FD
:101DD000C80E800F911FDF91CF911F910F91089531
:101DE0000F931F93CF93DF93EC010E945B138C0141
:101DF000CE010E94C80E800F911FDF91CF911F91DD
:101E00000F9108950F931F93CF93DF93EC010E94DE
:101E1000B70E8C01CE010E94C80E800F911FDF917A
:101E2000CF911F910F9108950F931F93CF93DF933D
:101E3000EC010E94BE0E8C01CE010E94C80E800FE4
:101E4000911FDF91CF911F910F9108954F925F9253
:101E50006F927F92EF92FF920F931F93CF93DF9336
:101E6000CDB7DEB7A1970FB6F894DEBF0FBECDBFDA
:101E70007C01FA01CB0119A2223008F42AE08E017C
:101E80000F5D1F4F422E512C612C712CBF01A301FD
:101E900092010E947E17F901CA01015011096A30AE
:101EA00014F4605D01C0695CD8016C93232B242B72
:101EB000252B61F7B801C7010E945B13A1960FB6ED
:101EC000F894DEBF0FBECDBFDF91CF911F910F9170
:101ED000FF90EF907F906F905F904F900895CF921A
:101EE000DF92EF92FF920F931F93CF93DF93EC015A
:101EF0006A017B012115310579F4E881F9810190AE
:101F0000F081E02D642FDF91CF911F910F91FF9011
:101F1000EF90DF90CF9009942A303105E9F477FFF4
:101F20001AC06DE20E94B70E8C0144275527BA01F2
:101F30004C195D096E097F092AE0CE010E94260F27
:101F4000800F911FDF91CF911F910F91FF90EF9024
:101F5000DF90CF9008952AE0B701A601CE01DF916E
:101F6000CF911F910F91FF90EF90DF90CF900C9445
:101F7000260F9A01AB01770F660B770B0C946F0F4E
:101F80000F931F93CF93DF93EC019A01AB01770F6F
:101F9000660B770B0E946F0F8C01CE010E94C80E5A
:101FA000800F911FDF91CF911F910F9108950F9393
:101FB0001F93CF93DF93EC010E946F0F8C01CE0132
:101FC0000E94C80E800F911FDF91CF911F910F913A
:101FD00008952115310541F4DC01ED91FC9101904A
:101FE000F081E02D642F09940C94260F9A01462F5E
:101FF00050E060E070E00C94E90F0F931F93CF93D3
:10200000DF93EC019A01462F50E060E070E00E94FF
:10201000E90F8C01CE010E94C80E800F911FDF9145
:10202000CF911F910F9108959A01AB0160E070E08C
:102030000C94E90F0F931F93CF93DF93EC019A0158
:10204000AB0160E070E00E94E90F8C01CE010E94BC
:10205000C80E800F911FDF91CF911F910F910895AE
:102060000F931F93CF93DF93EC010E94E90F8C0134
:10207000CE010E94C80E800F911FDF91CF911F915A
:102080000F9108954F925F926F927F928F929F92DD
:10209000AF92BF92CF92DF92EF92FF92CF93DF93F6
:1020A000EC016A017B01B22E9A01AB01C701B601B6
:1020B0000E947917882319F064E972E027C026018D
:1020C0003701E89477F82FEF3FEF4FE75FE7C30161
:1020D000B2010E94791781110DC02FEF3FEF4FE73A
:1020E0005FE7C301B2010E94AF1518161CF468E93E
:1020F00072E00CC02FEF3FEF4FE75FE4C701B6017E
:102100000E94071718169CF46CE972E0CE01DF916B
:10211000CF91FF90EF90DF90CF90BF90AF909F90C6
:102120008F907F906F905F904F900C945B132FEF88
:102130003FEF4FE75FECC701B6010E94AF1587FD87
:10214000E3CF20E030E0A901C701B6010E94AF153E
:1021500087FF0AC06DE2CE010E94B70E4C01F7FA6C
:10216000F094F7F8F09402C0812C912CA12C60E03F
:1021700070E080E09FE3AB1441F020E030E040E20B
:1021800051E40E94B415A394F6CF9B01AC01C701A2
:10219000B6010E9443152B013C010E9426166B01DB
:1021A0007C010E9455169B01AC01C301B2010E9443
:1021B00042152B013C012AE0B701A601CE010E9485
:1021C000260F7C01E80CF91CBB2031F06EE2CE0139
:1021D0000E94B70EE80EF91EDB2CDD2029F120E06D
:1021E00030E040E251E4C301B2010E940C172B0120
:1021F0003C010E9426164B01A12CB12C2AE0B5010E
:10220000A401CE010E94260FE80EF91EC501B401FB
:102210000E9455169B01AC01C301B2010E944215F8
:102220002B013C01DA94D9CFC701DF91CF91FF9008
:10223000EF90DF90CF90BF90AF909F908F907F9066
:102240006F905F904F9008950C9442100F931F93DE
:10225000CF93DF93EC010E9442108C01CE010E94CB
:10226000C80E800F911FDF91CF911F910F9108959C
:10227000FC01918D228D892F90E0805C9F4F821B05
:1022800091098F7399270895FC01918D828D98177C
:1022900031F0828DE80FF11D858D90E008958FEF6C
:1022A0009FEF0895FC01918D828D981761F0828DCA
:1022B000DF01A80FB11D5D968C91928D9F5F9F737A
:1022C000928F90E008958FEF9FEF0895FC01538D5A
:1022D000448D252F30E0842F90E0821B930B541700
:1022E00010F0CF960895019708958CEE92E1892B16
:1022F00049F080E090E0892B29F00E94EC128111D6
:102300000C9400000895FC01848DDF01A80FB11D1D
:10231000A35ABF4F2C91848D90E001968F7399271B
:10232000848FA689B7892C93A089B1898C91806408
:102330008C93938D848D981306C00288F389E02DC9
:1023400080818F7D80830895CF93DF93EC01888D0A
:102350008823C9F0EA89FB89808185FD05C0A889A9
:10236000B9898C9186FD0FC00FB607FCF5CF80812F
:1023700085FFF2CFA889B9898C9185FFEDCFCE0179
:102380000E948311E7CFDF91CF910895EF92FF92E2
:102390000F931F93CF93DF93EC0181E0888F9B8D88
:1023A0008C8D981305C0E889F989808185FD24C04A
:1023B000F62E0B8D10E00F5F1F4F0F731127E02ECD
:1023C0008C8DE8120CC00FB607FCFACFE889F989AA
:1023D000808185FFF5CFCE010E948311F1CF8B8DD7
:1023E000FE01E80FF11DE35AFF4FF0820B8FEA89DF
:1023F000FB898081806207C0EE89FF896083E8895C
:10240000F98980818064808381E090E0DF91CF91C1
:102410001F910F91FF90EF900895CF92DF92EF926E
:10242000FF921F93CF93DF93EC016A017B01122F80
:10243000E889F98982E080834115514E6105710573
:10244000B1F060E079E08DE390E0A70196010E9491
:102450007E17DA01C9010197A109B109B695A795BF
:1024600097958795AC01411580E15807A8F0E88958
:10247000F989108260E874E88EE190E0A701960186
:102480000E947E17BA01A9014150510961097109E1
:102490007695679557954795EC85FD855083EE8534
:1024A000FF854083188EEC89FD891083EA89FB89BA
:1024B000808180618083EA89FB8980818860808354
:1024C000EA89FB89808180688083EA89FB89808131
:1024D0008F7D8083DF91CF911F91FF90EF90DF90F0
:1024E000CF900895CF93DF93EC01E881F9810680C6
:1024F000F781E02D0995EA89FB8980818F7E8083B1
:10250000EA89FB898081877F8083EA89FB898081D2
:102510008F778083EA89FB8980818F7D80838A8D94
:10252000898FDF91CF9108951F920F920FB60F926E
:1025300011242F938F939F93EF93FF93E091F502D4
:10254000F091F6028081E091FB02F091FC0282FDA5
:1025500012C090818091FE028F5F8F732091FF02E5
:10256000821751F0E091FE02F0E0EB51FD4F958FA4
:102570008093FE0201C08081FF91EF919F918F9126
:102580002F910F900FBE0F901F9018951F920F92D2
:102590000FB60F9211242F933F934F935F936F9336
:1025A0007F938F939F93AF93BF93EF93FF9385EEAA
:1025B00092E00E948311FF91EF91BF91AF919F91A3
:1025C0008F917F916F915F914F913F912F910F90DC
:1025D0000FBE0F901F90189585EE92E00E94381163
:1025E00021E0892B09F420E0822F08958EBD0000A0
:1025F0000DB407FEFDCF8EB508959CB5282F23702E
:102600009C7F922B9CBD2DB582FB992790F9822F40
:102610008E7F892B8DBD08952091E202222399F0AF
:102620004FB7F8942091E202213059F42DB3209352
:10263000E0023DB32091E102209523232DBB4FBF43
:1026400002C04093E0028CBD9DBD08958091E202DE
:10265000882361F09FB7F8942091E2028091E00214
:10266000213019F48DBB9FBF08958FBF08950E943C
:102670009A000E94A60A0E94AC0A0E94CF0A0E94F9
:10268000120B65E371E085EE92E00E94F00E0E946D
:10269000850B0E94410DFBCF2FEF3FEF49E050E04B
:1026A00066E070E08AEC92E00E949C006AE089EBB0
:1026B00092E00C94AB056115710579F0FB01019076
:1026C0000020E9F73197AF01461B570BDC01ED9174
:1026D000FC910280F381E02D099480E090E0089560
:1026E000E5EEF2E01382128288EE93E0A0E0B0E023
:1026F00084839583A683B78384EA92E09183808361
:1027000085EC90E09587848784EC90E097878687B6
:1027100080EC90E0918B808B81EC90E0938B828BAE
:1027200082EC90E0958B848B86EC90E0978B868B87
:10273000118E128E138E148E0895833081F028F43A
:10274000813099F08230A1F008958730A9F0883067
:10275000B9F08430D1F4809180008F7D03C08091E6
:1027600080008F7780938000089584B58F7702C0B2
:1027700084B58F7D84BD08958091B0008F7703C0AC
:102780008091B0008F7D8093B0000895CF93DF9348
:1027900090E0FC01E056FF4F2491FC01EC54FF4F08
:1027A0008491882361F190E0880F991FFC01EE521B
:1027B000FF4FC591D491FC01E853FF4FA591B4910F
:1027C000611109C09FB7F89488812095822388837E
:1027D000EC912E230BC0623061F49FB7F8943881DE
:1027E000822F809583238883EC912E2B2C939FBF7F
:1027F00006C08FB7F894E8812E2B28838FBFDF9116
:10280000CF9108951F93CF93DF93282F30E0F901E4
:10281000E457FF4F8491F901E056FF4FD491F9013D
:10282000EC54FF4FC491CC23C9F0162F81110E94A4
:102830009D13EC2FF0E0EE0FFF1FE853FF4FA59123
:10284000B4918FB7F894111105C09C91ED2FE095CC
:10285000E92302C0EC91ED2BEC938FBFDF91CF9178
:102860001F9108958E3008F08E50877020910001DE
:1028700090E4299F90011124822B80937C00809109
:102880007A00806480937A0080917A0086FDFCCF84
:10289000809178002091790090E0922B08951F920A
:1028A0000F920FB60F9211242F933F938F939F9304
:1028B000AF93BF938091830390918403A09185038C
:1028C000B09186033091820323E0230F2D3720F44B
:1028D0000196A11DB11D05C026E8230F0296A11D7A
:1028E000B11D209382038093830390938403A0936C
:1028F0008503B09386038091870390918803A0910C
:102900008903B0918A030196A11DB11D80938703AD
:1029100090938803A0938903B0938A03BF91AF91EA
:102920009F918F913F912F910F900FBE0F901F900D
:1029300018952FB7F8946091830370918403809168
:102940008503909186032FBF08953FB7F894809137
:10295000870390918803A0918903B0918A0326B5DB
:10296000A89B05C02F3F19F00196A11DB11D3FBFC7
:10297000BA2FA92F982F8827820F911DA11DB11D55
:10298000BC01CD0142E0660F771F881F991F4A9551
:10299000D1F708958F929F92AF92BF92CF92DF921C
:1029A000EF92FF926B017C010E94A5144B015C0128
:1029B000C114D104E104F10401F10E9441150E9407
:1029C000A514DC01CB0188199909AA09BB09883E25
:1029D0009340A105B10560F321E0C21AD108E108D6
:1029E000F10888EE880E83E0981EA11CB11CC1146A
:1029F000D104E104F10419F7DBCFFF90EF90DF90F1
:102A0000CF90BF90AF909F908F900895789484B5A9
:102A1000826084BD84B5816084BD85B5826085BDDA
:102A200085B5816085BDEEE6F0E0808181608083C0
:102A3000E1E8F0E0108280818260808380818160A3
:102A40008083E0E8F0E0808181608083E1EBF0E06A
:102A5000808184608083E0EBF0E08081816080830E
:102A6000EAE7F0E0808184608083808182608083F7
:102A70008081816080838081806880831092C10022
:102A8000089508955058BB27AA270E945A150C9400
:102A9000CD160E94BF1638F00E94C61620F039F4F9
:102AA0009F3F19F426F40C94BC160EF4E095E7FB56
:102AB0000C94B616E92F0E94DE1658F3BA17620777
:102AC00073078407950720F079F4A6F50C94001796
:102AD0000EF4E0950B2EBA2FA02D0B01B901900139
:102AE0000C01CA01A0011124FF27591B99F0593F7D
:102AF00050F4503E68F11A16F040A22F232F342FC5
:102B00004427585FF3CF469537952795A795F04012
:102B10005395C9F77EF41F16BA0B620B730B840B27
:102B2000BAF09150A1F0FF0FBB1F661F771F881FDF
:102B3000C2F70EC0BA0F621F731F841F48F4879537
:102B400077956795B795F7959E3F08F0B0CF939529
:102B5000880F08F09927EE0F9795879508950E94A2
:102B6000921608F481E008950E94C8150C94CD16C1
:102B70000E94C61658F00E94BF1640F029F45F3F2D
:102B800029F00C94B61651110C9401170C94BC1634
:102B90000E94DE1668F39923B1F3552391F3951B38
:102BA000550BBB27AA2762177307840738F09F5F6E
:102BB0005F4F220F331F441FAA1FA9F335D00E2EDB
:102BC0003AF0E0E832D091505040E695001CCAF748
:102BD0002BD0FE2F29D0660F771F881FBB1F26170B
:102BE00037074807AB07B0E809F0BB0B802DBF01E2
:102BF000FF2793585F4F3AF09E3F510578F00C94B1
:102C0000B6160C9401175F3FE4F3983ED4F3869513
:102C100077956795B795F7959F5FC9F7880F911DD1
:102C20009695879597F90895E1E0660F771F881FBD
:102C3000BB1F621773078407BA0720F0621B730B70
:102C4000840BBA0BEE1F88F7E09508950E94E616F4
:102C500088F09F5798F0B92F9927B751B0F0E1F05D
:102C6000660F771F881F991F1AF0BA95C9F714C00D
:102C7000B13091F00E940017B1E008950C94001754
:102C8000672F782F8827B85F39F0B93FCCF3869546
:102C900077956795B395D9F73EF4909580957095A3
:102CA00061957F4F8F4F9F4F0895E89409C097FB20
:102CB0003EF490958095709561957F4F8F4F9F4F13
:102CC0009923A9F0F92F96E9BB279395F695879557
:102CD00077956795B795F111F8CFFAF4BB0F11F41A
:102CE00060FF1BC06F5F7F4F8F4F9F4F16C08823C1
:102CF00011F096E911C0772321F09EE8872F762FF7
:102D000005C0662371F096E8862F70E060E02AF037
:102D10009A95660F771F881FDAF7880F9695879523
:102D200097F90895990F0008550FAA0BE0E8FEEFF8
:102D300016161706E807F907C0F012161306E4077F
:102D4000F50798F0621B730B840B950B39F40A2678
:102D500061F0232B242B252B21F408950A2609F456
:102D6000A140A6958FEF811D811D089597F99F675A
:102D700080E870E060E008959FEF80EC0895002403
:102D80000A941616170618060906089500240A94D0
:102D900012161306140605060895092E0394000C56
:102DA00011F4882352F0BB0F40F4BF2B11F460FFE5
:102DB00004C06F5F7F4F8F4F9F4F089557FD90580E
:102DC000440F551F59F05F3F71F04795880F97FBEF
:102DD000991F61F09F3F79F08795089512161306A9
:102DE0001406551FF2CF4695F1DF08C016161706D8
:102DF0001806991FF1CF869571056105089408950D
:102E0000E894BB2766277727CB0197F908950E949E
:102E1000921608F48FEF08950E941F170C94CD1698
:102E20000E94BF1638F00E94C61620F0952311F0BC
:102E30000C94B6160C94BC1611240C9401170E9425
:102E4000DE1670F3959FC1F3950F50E0551F629FFA
:102E5000F001729FBB27F00DB11D639FAA27F00DF3
:102E6000B11DAA1F649F6627B00DA11D661F829F1A
:102E70002227B00DA11D621F739FB00DA11D621FFF
:102E8000839FA00D611D221F749F3327A00D611D1C
:102E9000231F849F600D211D822F762F6A2F1124FE
:102EA0009F5750409AF0F1F088234AF0EE0FFF1F31
:102EB000BB1F661F771F881F91505040A9F79E3F88
:102EC000510580F00C94B6160C9401175F3FE4F3A3
:102ED000983ED4F3869577956795B795F795E795DE
:102EE0009F5FC1F7FE2B880F911D9695879597F9E7
:102EF00008950E949216880B990B0895A1E21A2E4C
:102F0000AA1BBB1BFD010DC0AA1FBB1FEE1FFF1F8D
:102F1000A217B307E407F50720F0A21BB30BE40BDD
:102F2000F50B661F771F881F991F1A9469F7609524
:102F30007095809590959B01AC01BD01CF010895DE
:102F4000052E97FB1EF400940E94B71757FD07D07B
:102F50000E947E1707FC03D04EF40C94B7175095CF
:102F60004095309521953F4F4F4F5F4F0895909575
:102F70008095709561957F4F8F4F9F4F0895EE0F0D
:0E2F8000FF1F0590F491E02D0994F894FFCF07
:102F8E0001696E69745F73657269616C3A20706174
:102F9E00737300696E69745F63616E3A2072657453
:102FAE007279696E6700696E69745F63616E3A204B
:102FBE007061737300696E697420636F6D706C65F8
:102FCE00746500696E697420436F6E74726F6C2045
:102FDE0043414E202D20005F646267206672616D52
:102FEE00652D3E69643A20005F64626720746872E2
:102FFE006F74746C655F636F6D6D616E642D3E747E
:10300E006F727175655F726571756573743A2000C4
:10301E004661756C74207265706F72742072656390
:10302E0065697665642066726F6D3A2000202044D3
:10303E005443733A20005F64626720696E20757096
:10304E00646174655F7468726F74746C65005F643C
:10305E0062672073706F6F665F68696768005F6490
:10306E0062672073706F6F665F6C6F7700436F6E71
:10307E0074726F6C20656E61626C656400436F6E76
:10308E0074726F6C2064697361626C656400426176
:10309E00642076616C756520726561642066726F5E
:1030AE006D20616363656C657261746F7220706F01
:1030BE00736974696F6E2073656E736F72004F70F3
:1030CE00657261746F72206F7665727269646500E5
:1030DE005F64626720616363656C657261746F72B1
:1030EE005F706F736974696F6E2E6C6F773A200024
:1030FE005F64626720616363656C657261746F7291
:10310E005F706F736974696F6E2E686967683A20B5
:10311E00000D0A006E616E00696E66006F766600C5
:10312E0000000000C611580E6611A411381152117C
:02313E0044113A
:00000001FF
