:100000000C945E000C9486000C9486000C94860080
:100010000C9486000C9486000C9486000C94B20814
:100020000C9486000C9486000C9486000C948B082B
:100030000C9486000C9486000C9486000C94860028
:100040000C945F130C9486000C9450120C94821242
:100050000C9486000C9486000C9486000C94860008
:100060000C9486000C948600000000080002010039
:100070000003040700000000000000000102040863
:100080001020408001020408102001020408102002
:10009000040404040404040402020202020203032E
:1000A0000303030300000000250028002B000000CC
:1000B0000000240027002A000813171311241FBE74
:1000C000CFEFD8E0DEBFCDBF12E0A0E0B1E0EEE7B9
:1000D000F4E302C005900D92AE31B107D9F722E0EA
:1000E000AEE1B2E001C01D92A43FB207E1F710E01B
:1000F000CEE5D0E004C02197FE010E945F17CC3509
:10010000D107C9F70E94F3120C943D1A0C94000019
:100110000C941314CF93DF93EC01842F1E821F8263
:100120001886E4E0F0E0FA87E98791E09B8748834E
:1001300059833B832A836330710589F048F4613029
:10014000710581F06230710569F11D821C820EC05B
:100150006530710539F130F066307105B1F72CE08A
:1001600030E002C028E030E03D832C8361E00E9453
:10017000781461E08A810E94781461E088810E948D
:10018000B41461E08A810E94B4140E94890D8CB578
:100190008F7D8CBD8CB5837F8CBD8985DF91CF91A0
:1001A0000C94B9122AE030E0DFCFFC016683089599
:1001B000FC0160870895FC016387862F08956130F4
:1001C000710521F4FC01178281E008956230710508
:1001D00021F421E0FC012783F7CF80E00895673008
:1001E000710540F4FC0172876187862F0E94B91265
:1001F00081E0089580E00895CF93DF93EC01888536
:100200008823F9F02A988F8171E0872790E0982F52
:1002100088279295990F907E2E8130E030E4239FBD
:10022000302D22271124932B892F0E94B21280E0B7
:100230000E94B2128885882349F02A9ADF91CF91D3
:10024000089560E088810E94B414DDCF61E0888168
:10025000DF91CF910C94B414DF92EF92FF920F9341
:100260001F93CF93DF938C017B01D42EFC018481FB
:1002700095818C30910509F043C0FFE0FF22F80121
:100280008085882309F447C02A98F801C681D0E008
:10029000D0E4CD9FD02DCC27112480E09D2D9795C3
:1002A00099279795C82BD92B878191E0892790E0D2
:1002B000982F88279295990F907EC82BD92BD061C3
:1002C000248135818CE090E0821B930B02C0EE0C00
:1002D000FF1C8A95E2F7CE29DF298D2F0E94B212EA
:1002E0008C2F0E94B212F80180858823C9F02A9AC7
:1002F000DF91CF911F910F91FF90EF90DF900895C4
:100300008A30910519F483E0F822B9CF089709F0F3
:10031000B6CFFF24B4CF60E080810E94B414B5CF83
:1003200061E08081DF91CF911F910F91FF90EF905D
:10033000DF900C94B41450E040E00C942C010C9429
:100340009B0141E050E00C942C01CF93DF93EC0132
:100350008A819B8197FD06C02885222331F05F9812
:1003600000005F9ADF91CF91089560E00E94B4147D
:1003700061E08A81DF91CF910C94B4140F931F93A5
:10038000CF93DF93EC018A0150E040E00E942C0102
:1003900041E050E0B801CE010E942C018B858823FA
:1003A00039F0CE01DF91CF911F910F910C94A501EF
:1003B000DF91CF911F910F910895CF92DF92EF922D
:1003C000FF920F931F93CF93DF936A017B01E901A3
:1003D00081110EC0188219821A821B821C82DF9141
:1003E000CF911F910F91FF90EF90DF90CF900895E4
:1003F0000E94A9132881211106C021E02883698366
:100400007A838B839C8309811A812B813C81AB0188
:10041000BC01401B510B620B730B81E04C155D0559
:100420006E057F05E0F680E0DACF0F931F93FB01A6
:10043000BA01A9019801892B41F081E0EF2B09F065
:1004400080E01F910F910C94DD0181E0FACFCF93F2
:10045000DF93EC0180E591E00E94C81260E088899A
:100460000E94B41480EC0E94B21261E088890E945C
:10047000B4140E94E2126AE070E080E090E0DF9144
:10048000CF910C94DA131F93CF93DF93EC01162FC7
:1004900080E591E00E94C81260E088890E94B4144F
:1004A00083E00E94B212812F0E94B21280E00E946B
:1004B000B212182F61E088890E94B4140E94E212DF
:1004C000812FDF91CF911F910895DF92EF92FF92DC
:1004D0000F931F93CF93DF937C01162FD42EC52F3C
:1004E000D22F80E591E00E94C81260E0F701808978
:1004F0000E94B41483E00E94B212812F0E94B212B3
:100500000D2D1C2FC0E0CD1751F0C83041F080E018
:100510000E94B212F80181938F01CF5FF4CF61E0A6
:10052000F70180890E94B414DF91CF911F910F9140
:10053000FF90EF90DF900C94E2120F931F93CF93F4
:10054000DF93EC01062F142F80E591E00E94C81282
:1005500060E088890E94B41482E00E94B212802F69
:100560000E94B212812F0E94B21261E088890E941B
:10057000B414DF91CF911F910F910C94E212DF928E
:10058000EF92FF920F931F93CF93DF937C01C62FBF
:10059000D42E152F022F80E591E00E94C81260E052
:1005A000F70180890E94B41482E00E94B2128C2F5D
:1005B0000E94B212CD2DD12F0C0F1D2F111DC0176F
:1005C000D10721F089910E94B212F9CF61E0F701C1
:1005D00080890E94B414DF91CF911F910F91FF90F9
:1005E000EF90DF900C94E212FF920F931F93CF9342
:1005F000DF93EC01F62E042F122F80E591E00E948C
:10060000C81260E088890E94B41485E00E94B2128A
:100610008F2D0E94B212802F0E94B212812F0E9451
:10062000B21261E088890E94B414DF91CF911F91CA
:100630000F91FF900C94E2121F93CF93DF93EC0184
:1006400080E591E00E94C81260E088890E94B4149D
:1006500080EA0E94B21280E00E94B212182F61E07C
:1006600088890E94B4140E94E212812FDF91CF91F9
:100670001F9108950F931F93CF938C01C62F262FA0
:1006800040EE6FE00E94F4026FE0C8010E94430256
:10069000982F907E81E09C1301C080E0CF911F9144
:1006A0000F9108950F931F93CF93DF9361506231A1
:1006B00008F066C0E62FF0E0E05AFC4F0C945F179C
:1006C000BC03C203720389038C038F039303970354
:1006D0009A039E03A103A403A703AA03AE03B203D4
:1006E000B603B903D7E8CFEF4FE08C016AE20E946E
:1006F0009D024C2F69E2C8010E949D024D2F68E2C5
:10070000C8010E949D0280E0DF91CF911F910F915F
:100710000895D7E0CAEBE8CFD5E8C1EFE5CFD7E041
:10072000CEEB49E0E2CFD7E8CFEF47E0DECFD7E826
:10073000CAEFFBCFD7E8CFEF43E0D7CFD7E0CEEB80
:10074000FBCFD7E0CDEAF8CFD7E8CAEFF5CFD6E8B0
:10075000C0EFF2CFD7E8CAEF41E0C7CFD5E8C1EF8D
:1007600041E4C3CFD6E8C0EF40E0BFCFD4E0C0EA59
:10077000FBCFD2E8C0EDF8CFD7E8CFEF4FE3B5CF4E
:1007800081E0C2CFD7E8CFEF4FE1AFCF0F931F93F8
:10079000CF938C01C0E340E06C2FC8010E949D0202
:1007A00060E16C0F40E0C8010E949D0260E26C0FA6
:1007B00040E0C8010E949D02CF5FCE3361F740E068
:1007C00060E6C8010E949D0240E060E7C801CF9149
:1007D0001F910F910C949D020F931F93CF93DF9362
:1007E000EC01062F0E94270260E8CE010E943A0326
:1007F000182F6AE070E080E090E0112341F00E9441
:10080000DA13812FDF91CF911F910F9108950E94EC
:10081000DA13602FCE010E945203882329F06AE088
:1008200070E080E090E0EBCF6AE070E080E090E084
:100830000E94DA13CE010E94C60343E06BE2CE01B0
:100840000E949D0224E044E660E6CE010E94F4028C
:1008500020E040E660E7CE010E94F40260E0CE01B5
:100860000E943A03C82F8823D1F26AE070E080E04A
:1008700090E00E94DA131C2FC4CF0F931F93CF93E5
:10088000DF9300D000D0CDB7DEB7413021F50C8327
:100890001B83890122273327402F440F440F440F25
:1008A000407E502F53705860452B4A8355E0169573
:1008B00007955A95E1F7098324E0AE014F5F5F4F3A
:1008C0000E94BF020F900F900F900F90DF91CF9179
:1008D0001F910F910895A80123E0569547952A95F9
:1008E000E1F749830295000F007E0A831C821B8278
:1008F000E3CFEF92FF920F931F93CF93DF9300D03C
:1009000000D0CDB7DEB77A018901FA011082F90172
:10091000108211821282138224E0AE014F5F5F4F7A
:100920000E9465022A818981F8E08F9FC00111240D
:10093000422F50E065E0559547956A95E1F7840FA1
:10094000951F092E000CAA0BBB0BF8018083918325
:10095000A283B38323FF25C032E0880F991FAA1F0B
:10096000BB1F3A95D1F72370820F911DA11DB11DB8
:10097000BA2FA92F982F88272B81820F911DA11D97
:10098000B11DBA2FA92F982F88272C81820F911D76
:10099000A11DB11D80839183A283B38381E0F70100
:1009A00080830F900F900F900F90DF91CF911F9148
:1009B0000F91FF90EF900895FF920F931F93CF93A5
:1009C000DF93EC01F62E8A01AC014A5F5F4F65E0D0
:1009D0006F0D2D810E94BF020130110519F48D8128
:1009E00080648D8364E06F0D4D81CE010E949D0275
:1009F00009811A812B813C8148816F2DCE010E9493
:100A00003D04DF91CF911F910F91FF9008950F93B7
:100A10001F93CF93DF93EC01162F9C012F5F3F4F65
:100A2000AC010E9479046FEF610FCE010E94430276
:100A3000082F64E0610FCE010E94430203FB0027F0
:100A400000F90E87282F2F702D83AE014A5F5F4F6C
:100A500065E0610FCE01DF91CF911F910F910C9452
:100A60006502615028E048E00C94F4028F929F9256
:100A7000AF92BF92CF92DF92EF92FF921F93CF93EC
:100A8000DF9300D01F92CDB7DEB74C016B01809190
:100A9000010190910201A091030189839A83AB83A4
:100AA000FB011082CE0101967C015E0194E0A90E4B
:100AB000B11CF70111917F01612FC4010E94430213
:100AC00083FD13C01F5FF601108380E00F900F902D
:100AD0000F90DF91CF911F91FF90EF90DF90CF901B
:100AE000BF90AF909F908F900895EA14FB0409F790
:100AF00082E0ECCFFC01608B08951F93CF93DF93CE
:100B0000EC01162F61E088890E94781461E08889E1
:100B10000E94B4140E94890D612FCE010E94EC0343
:100B200091E0811101C090E0892FDF91CF911F9159
:100B300008958F929F92AF92BF92DF92EF92FF92B1
:100B40000F931F93CF93DF937C01D62ED42F59019F
:100B50006AE070E080E090E00E94DA1360E8C7018C
:100B60000E943A03C82F882399F06AE070E080E081
:100B700090E00E94DA138C2FDF91CF911F910F919B
:100B8000FF90EF90DF90BF90AF909F908F9008956F
:100B9000D1100CC095014D2F60E2C7010E943D04A9
:100BA00060E0C7010E943A03C82FDFCF81E0D8126E
:100BB000F7CF95014D2F64E2F0CF8F929F92AF92C5
:100BC000BF92EF92FF920F931F93CF93DF93EC01AD
:100BD000F62EE42E480159016AE070E080E090E0D2
:100BE0000E94DA1360E8CE010E943A03182F88238E
:100BF00091F06AE070E080E090E00E94DA13812FCB
:100C0000DF91CF911F910F91FF90EF90BF90AF9028
:100C10009F908F90089582E0F81639F18F1558F063
:100C2000FF20B1F081E0F816D9F060E0CE010E941B
:100C30003A03182FDECF84E0F81609F1F816D0F049
:100C400085E0F812F2CF950184014E2D68E104C0D1
:100C5000950184014E2D60E0CE010E943D04E5CF58
:100C6000950184014E2D64E0F7CF950184014E2D4E
:100C700068E0F2CF950184014E2D60E1EDCF950142
:100C800084014E2D64E1E8CFCF92DF920F931F9342
:100C9000FC0120834183528363837483093008F00D
:100CA00008E005833696D60110E0CD018C199D0928
:100CB000801791071CF48D918193F7CF80E01F91ED
:100CC0000F91DF90CF900895EF92FF920F931F93B3
:100CD000FC0120834183528363837483093008F0CD
:100CE00008E005833696D70110E0CD018E199F09E3
:100CF000801791071CF48D918193F7CF80E01F91AD
:100D00000F91FF90EF900895FC01118212821382DF
:100D10001482158210821686178680E00895CF927D
:100D2000DF92EF92FF920F931F93CF93DF931F9267
:100D3000CDB7DEB77C016B0110E000E0BE016F5F54
:100D40007F4FC7010E9436050F5F1F4F823029F485
:100D50000233110599F796E021C002331105D9F34A
:100D6000A6016981C7010E94DC046981C7010E9454
:100D7000310510E000E00F5F1F4F69816150C7012E
:100D80000E944302982F987083FF05C0023311051B
:100D900091F797E003C002331105D9F3892F0F9023
:100DA000DF91CF911F910F91FF90EF90DF90CF9047
:100DB0000895AF92BF92CF92DF92EF920F93CF93AD
:100DC0005C01C02F0E2DEC2E0E9444066C2F70E0AB
:100DD000C501CF910F91EF90DF90CF90BF90AF9072
:100DE0000C948F06EF92FF920F93CF93DF93EC0159
:100DF0000E94640670E060E0CE01DF91CF910F9118
:100E0000FF90EF900C948F06CF93DF93EC010E943C
:100E10001C0380FF0EC061E6CE010E94070520E0A2
:100E200041E06CE2CE010E94F40280E0DF91CF91BC
:100E3000089581FF07C061E7CE010E94070520E009
:100E400042E0EFCF84E0F2CFEF92FF920F931F9337
:100E5000CF93DF93EC018B017A010E94040781118B
:100E600011C09D81F8019083DE011696F7019D81E6
:100E70009F012E193F099217130631F02CF09D9116
:100E80009193F5CFF8011082DF91CF911F910F91CF
:100E9000FF90EF900895CF92DF92EF92FF920F9321
:100EA0001F93CF93DF93EC016B018A0179010E94BC
:100EB000040781111EC09D81F801908349815A81E8
:100EC0006B817C81F6014083518362837383DE01F1
:100ED0001696F70130E020E09D819217130659F035
:100EE00054F02830310539F09D9191932F5F3F4F99
:100EF000F3CFF8011082DF91CF911F910F91FF90F6
:100F0000EF90DF90CF9008950E941C03837011F43E
:100F100084E0089583E008956DE20E944302887F93
:100F200009F085E00895FC016181728183819481DB
:100F30000895FC0186850895FC018081089526E0CE
:100F400040E052EC61E070E08EE492E00E94DB0E43
:100F500064E071E08EE492E00C940E10CF93DF9386
:100F6000EC0160E1CE010E947D05882369F062E317
:100F700070E080E090E00E94DA1366E171E08EE4B8
:100F800092E00E940E10EDCF69E271E08EE492E0F3
:100F9000DF91CF910C940E10CF93DF936115710503
:100FA00001F1EB0121E1FB0111922A95E9F7F89497
:100FB0009B01275F3F4FAB014C5F5F4F0E944B0788
:100FC00081110CC00E94A9136D837E838F83988743
:100FD00090E080E07894DF91CF91089581E090E0F7
:100FE000F9CF82E090E0F7CF4F925F926F927F92BD
:100FF0008F929F92AF92BF92CF92DF92EF92FF9229
:101000000F931F93CF93DF9300D000D000D0CDB7C4
:10101000DEB79E838D83042F122F6B01770FEE08AE
:10102000FF08412C512C3201812C912C54014C147D
:101030005D046E047F048CF4802F0E944413092EFB
:10104000000CAA0BBB0B880E991EAA1EBB1E8FEFAD
:10105000481A580A680A780AEACFC501B401A701FC
:1010600096010E944017DA01C90132E0880F991FEA
:10107000AA1FBB1F3A95D1F789839A83AB83BC83A0
:10108000412C512C3201812C912C54014C145D04C3
:101090006E047F048CF4812F0E944413092E000CEF
:1010A000AA0BBB0B880E991EAA1EBB1E9FEF491AE6
:1010B000590A690A790AEACF69817A818D819E810C
:1010C0000E949F01C501B401A70196010E9440172B
:1010D000CA01B90122E0660F771F881F991F2A9560
:1010E000D1F78D819E8126960FB6F894DEBF0FBE94
:1010F000CDBFDF91CF911F910F91FF90EF90DF90C7
:10110000CF90BF90AF909F908F907F906F905F90A7
:101110004F900C94A1011F920F920FB60F921124C1
:101120002F933F934F935F936F937F938F939F93EF
:10113000AF93BF93EF93FF93E0912002F0912102D0
:101140000995FF91EF91BF91AF919F918F917F9101
:101150006F915F914F913F912F910F900FBE0F9024
:101160001F9018951F920F920FB60F9211242F9374
:101170003F934F935F936F937F938F939F93AF931F
:10118000BF93EF93FF93E0911E02F0911F02099528
:10119000FF91EF91BF91AF919F918F917F916F914F
:1011A0005F914F913F912F910F900FBE0F901F9025
:1011B0001895CF92DF92EF92FF92CF93DF936B015E
:1011C0007C01EA01F8941092800010928100109244
:1011D00085001092840020E030E040E857E40E944F
:1011E000AC169B01AC0160E074E284E79BE40E94D2
:1011F00054150E94C615613021E0720781059105E2
:1012000008F449C08091810085608093810060E08E
:1012100074E080E090E00E94F515A70196010E941D
:10122000AC169B01AC0160E074E284E79BE40E9491
:10123000541520E030E040E85FE30E94E2140E9491
:10124000C6156115710521E08207910508F05AC0A5
:10125000611571058105910521F461E070E080E080
:1012600090E070938900609388008091810088608D
:101270008093810080916F00826080936F00D09393
:101280002102C09320027894DF91CF91FF90EF90DC
:10129000DF90CF900895613471058105910550F07C
:1012A0008091810084608093810060E071E080E043
:1012B00090E0B1CF693071058105910550F08091C2
:1012C000810083608093810060E470E080E090E0C2
:1012D000A2CF623071058105910550F080918100A7
:1012E00082608093810068E070E080E090E093CFBE
:1012F0008091810081608093810061E070E080E0F6
:1013000090E089CF6FEF7FEF80E090E0AACFCF929F
:10131000DF92EF92FF92CF93DF936B017C01EA01A2
:10132000F8941092B0001092B1001092B20020E038
:1013300030E040E853E40E94AC169B01AC0160E051
:1013400074E284E79BE40E9454150E94C615613044
:1013500021E072078105910508F447C08091B10032
:1013600087608093B10060E074E080E090E00E94CC
:10137000F515A70196010E94AC169B01AC0160E037
:1013800074E284E79BE40E94541520E030E040E8DA
:101390005FE30E94E2140E94C6156F3F710581054C
:1013A000910511F008F076C0611571058105910570
:1013B00021F461E070E080E090E06093B300809100
:1013C000B10082608093B100809170008260809350
:1013D0007000D0931F02C0931E027894DF91CF91CA
:1013E000FF90EF90DF90CF900895613871058105EF
:1013F000910550F08091B10086608093B10060E06B
:1014000071E080E090E0B3CF613471058105910512
:1014100050F08091B10085608093B10060E870E089
:1014200080E090E0A4CF613271058105910550F014
:101430008091B10084608093B10060E470E080E04E
:1014400090E095CF693071058105910550F080914C
:10145000B10083608093B10060E270E080E090E0D2
:1014600086CF623071058105910550F08091B10001
:1014700082608093B10068E070E080E090E077CF18
:101480008091B10081608093B10061E070E080E004
:1014900090E06DCF6FEF70E080E090E08ECFE2E201
:1014A000F2E0108211821282089561E089E00E94C8
:1014B000781460E08EE00E94781460E08FE00E9473
:1014C000781460E080E10E94781460E081E10E947D
:1014D000781461E086E00E947814F89461E089E075
:1014E0000E94B41460E086E00E94B41478940895D9
:1014F0000F931F930E949F076FE471E08EE492E0C8
:101500000E94CD0F85E292E00E94AE0700EF17E047
:1015100020E030E040E060E085E292E00E94990542
:1015200000E810E020E030E040E060E085E292E09A
:101530000E94DD0500EA10E020E030E040E061E0DC
:1015400085E292E00E94DD050FEF17E020E030E039
:1015500040E061E085E292E00E94990501E810E038
:1015600020E030E041E062E085E292E00E94DD05AB
:101570001F910F91089543EC5AE060E070E088E419
:1015800092E40C94D908EF92FF920F93CF93DF93DC
:10159000CDB7DEB728970FB6F894DEBF0FBECDBF2C
:1015A00085E089838CEC8A83E2E2F2E080818B83A0
:1015B00081818C8382818D83F894CE0101967C0198
:1015C00008E020E043E850E060E070E085E292E06F
:1015D0000E94F206789428960FB6F894DEBF0FBEEC
:1015E000CDBFDF91CF910F91FF90EF900895EF92D3
:1015F000FF920F93CF93DF93CDB7DEB728970FB647
:10160000F894DEBF0FBECDBF85E089838CEC8A8362
:1016100081E090E0A0E0B0E08B839C83AD83BE834B
:10162000809124028F83F894CE0101967C0108E01A
:1016300020E04FEA50E060E070E085E292E00E9436
:10164000F206789428960FB6F894DEBF0FBECDBF91
:10165000DF91CF910F91FF90EF9008958F929F921D
:10166000AF92BF92CF92DF92EF92FF92CF93DF9330
:10167000CDB7DEB761970FB6F894DEBF0FBECDBF12
:10168000BE016F5F7F4F85E292E00E94CC07892BFD
:1016900089F48A85853071F48B858C3C59F4898175
:1016A0009A81AB81BC8180389105A105B10599F47F
:1016B0000E94800C61960FB6F894DEBF0FBECDBFBE
:1016C000DF91CF91FF90EF90DF90CF90BF90AF90E0
:1016D0009F908F90089581389105A105B10519F467
:1016E0000E94A00CE7CF82389105A105B10509F051
:1016F000B0C023E333E34BE451E46C857D858E85F4
:101700009F850E94AC166B017C012DEC3CEC4CE4F7
:1017100051EC0E944F1587FD6BC023E333E34BE48C
:1017200051E4C701B6010E94A71618160CF469C04F
:1017300021E73DE34AE05EE3C701B6010E94AC1633
:1017400023EC35EF48E150E40E94E3144B015C01C7
:101750002DEC3CEC4CE45FE30E944F1587FD59C033
:1017600023E333E343E850E4C501B4010E94A71624
:1017700018160CF457C021EE3AE744E15EEBC701BE
:10178000B6010E94AC1628E431EE4AE150E40E9412
:10179000E3146B017C0126E636E646E65FE30E9431
:1017A0004F1587FD47C026E636E646E850E4C701F8
:1017B000B6010E94A71618160CF443C02DEC3CECA1
:1017C0004CE454E4C501B4010E94AC160E94C61555
:1017D0004B012DEC3CEC4CE454E4C701B6010E94F3
:1017E000AC160E94C615CB01B4010E944F0C62CF0B
:1017F0005DECC52E5CECD52E5CE4E52E51ECF52EAF
:1018000097CF43E3C42EDC2C4BE4E42E41E4F42ECA
:101810008FCF3DEC832E3CEC932E3CE4A32E3FE394
:10182000B32EA9CF23E3822E982C23E8A22E20E406
:10183000B22EA1CF96E6C92EDC2CEC2C9FE3F92E1C
:10184000BDCF86E6C82EDC2C86E8E82E80E4F82E94
:10185000B5CF8F3A9105A105B10509F02BCF0E94B4
:10186000A00C63E671E08EE492E00E94CD0F4C85FF
:101870005D856E857F852AE030E08EE492E00E94EF
:10188000081160E871E08EE492E00E94CD0F4AE01A
:1018900050E068898EE492E00E941C110BCFCF9338
:1018A000DF9320912202222341F1F8949C012137F9
:1018B0008DE0380710F020E73DE0223E82E0380757
:1018C00010F422EE32E0C72FD62FB90186E392E062
:1018D0000E949F016D2F7C2F6F318DE0780710F0F3
:1018E0006EE17DE0603982E0780710F460E972E033
:1018F00086E392E00E94A1017894DF91CF91089550
:101900008091220281111BC080912302811117C096
:101910002FE04EE064E170E086E392E00E94F4077D
:10192000F89461E086E00E94B414789481E080939A
:10193000220269E871E08EE492E00C940E100895A2
:10194000809122028823D1F02FE04EE064E170E024
:1019500086E392E00E94F407F89460E086E00E943B
:10196000B414789410922202109248021092470206
:1019700069E971E08EE492E00C940E1008958F9264
:101980009F92AF92BF92CF92DF92EF92FF920F930E
:101990001F93CF93DF93CDB7DEB7AD970FB6F89413
:1019A000DEBF0FBECDBFF8948EE00E9444137C01D1
:1019B000EE0CFF1CEE0CFF1C8FE00E9444136C0128
:1019C000CC0CDD1CCC0CDD1CDF92CF92FF92EF9291
:1019D0008AEA91E09F938F938E010F5F1F4F1F93B1
:1019E0000F930E946517B8018EE492E00E940E10DA
:1019F0007894809122020FB6F894DEBF0FBECDBF5F
:101A0000811105C080912402882309F454C0870104
:101A10000C191D0917FF03C011950195110980913B
:101A2000470290914802892B21F4109348020093B9
:101A30004702609147027091480290E080E00E9466
:101A4000F51524EA30E74DE75FE30E94AC164B0141
:101A50005C01B80190E080E00E94F5152AE037EDC6
:101A600043E25CE30E94AC169B01AC01C501B401EA
:101A70000E94E3140E94C6157093480260934702C7
:101A800002E412E024E630E040E050E0B601C70195
:101A90000E941502882311F10E94A00C809124025B
:101AA0008160809324020E94F70A69EC71E08EE461
:101AB00092E00E940E10AD960FB6F894DEBF0FBEF6
:101AC000CDBFDF91CF911F910F91FF90EF90DF90ED
:101AD000CF90BF90AF909F908F90089580914702D4
:101AE00090914802813D974078F00E94A00C80912F
:101AF00024028260809324020E94F70A81E080938E
:101B000023026BEE71E0D3CF1092240210922302D5
:101B1000D2CFCF93CFB7F89480914C02811127C0D8
:101B2000EAE9F0E08491E6E8F0E09491E82FF0E053
:101B3000EE0FFF1FE255FF4FA591B491EC91E92301
:101B400021F461E08AE00E94B41461E08AE00E941E
:101B500078148CB580618CBD8CB580648CBD61E0DF
:101B60008DE00E94781461E08BE00E9478148091EF
:101B70004C028F5F80934C02CFBFCF9108959FB7E7
:101B8000F89480914C02882319F0815080934C0284
:101B900080914C02811105C08CB58F7B8CBD109259
:101BA0004B029FBF08952FB7F89491E0882339F036
:101BB00092E0813021F082E080934B0290E08091AE
:101BC0004A02892B80934A0280914B02811103C003
:101BD00081E080934B022FBF089590914B02923089
:101BE000A1F09FB7F894882321F0813079F080E04C
:101BF00001C081E0809520914A02822380934A02AD
:101C0000811102C010924B029FBF089582E0F2CF73
:101C1000FC01918D228D892F90E0805C9F4F821B6B
:101C200091098F7399270895FC01918D828D9817E2
:101C300031F0828DE80FF11D858D90E008958FEFD2
:101C40009FEF0895FC01918D828D981761F0A28D10
:101C5000AE0FBF2FB11D5D968C91928D9F5F9F73CC
:101C6000928F90E008958FEF9FEF0895FC01538DC0
:101C7000448D252F30E0842F90E0821B930B541766
:101C800010F0CF9608950197089588EA92E1892B84
:101C900049F080E090E0892B29F00E94A812811180
:101CA0000C9400000895FC01A48DA80FB92FB11D5C
:101CB000A35ABF4F2C91848D90E001968F73992782
:101CC000848FA689B7892C93A089B1898C9180646F
:101CD0008C93938D848D981306C00288F389E02D30
:101CE00080818F7D80830895CF93DF93EC01888D71
:101CF0008823B9F0AA89BB89E889F9898C9185FD87
:101D000003C0808186FD0DC00FB607FCF7CF8C9114
:101D100085FFF2CF808185FFEDCFCE010E94530E6B
:101D2000E9CFDF91CF910895EF92FF920F931F9328
:101D3000CF93DF93EC0181E0888F9B8D8C8D98137E
:101D400016C0E889F989808185FF11C0EE89FF8975
:101D50006083E889F98980818064808381E090E0F4
:101D6000DF91CF911F910F91FF90EF900895F62E84
:101D70000B8D10E00F5F1F4F0F731127E02E8C8D1E
:101D80008E110CC00FB607FCFACFE889F989808163
:101D900085FFF5CFCE010E94530EF1CFEB8DEC0FF6
:101DA000FD2FF11DE35AFF4FF0820B8FEA89FB896B
:101DB00080818062D2CFCF92DF92EF92FF921F9309
:101DC000CF93DF93EC016A017B01122FE889F98937
:101DD00082E08083C11481EED806E104F104A1F011
:101DE00060E079E08DE390E0A70196010E941E1764
:101DF0002150310941095109569547953795279545
:101E0000211580E1380798F0E889F989108260E8A7
:101E100074E88EE190E0A70196010E941E17215000
:101E20003109410951095695479537952795EC8514
:101E3000FD853083EE85FF852083188EEC89FD8932
:101E40001083EA89FB89808180618083EA89FB892C
:101E5000808188608083EA89FB89808180688083B3
:101E6000EA89FB8980818F7D8083DF91CF911F91EB
:101E7000FF90EF90DF90CF900895CF93DF93EC0128
:101E8000E881F9810680F781E02D0995EA89FB89CF
:101E900080818F7E8083EA89FB898081877F808330
:101EA000EA89FB8980818F778083EA89FB89808139
:101EB0008F7D80838A8D898FDF91CF910895AF9236
:101EC000BF92CF92DF92EF92FF920F931F93CF9327
:101ED000DF936C017B018B01040F151FEB015E0189
:101EE000AE18BF08C017D10759F06991D601ED911E
:101EF000FC910190F081E02DC6010995892B79F7BD
:101F0000C501DF91CF911F910F91FF90EF90DF906E
:101F1000CF90BF90AF900895FB0101900020E9F7AA
:101F20003197AF01461B570BDC01ED91FC9102800C
:101F3000F381E02D0994EF92FF920F931F93CF93BB
:101F4000DF938C017B01D0E0C0E0F701EC0FFD1FB7
:101F50006491662361F0D801ED91FC910190F081CC
:101F6000E02DC8010995892B11F02196EECFCE0105
:101F7000DF91CF911F910F91FF90EF900895DB01BA
:101F800014964D915C9115976D917C91DC01ED91CA
:101F9000FC910280F381E02D09946115710511F027
:101FA0000C948C0F90E080E00895DC01ED91FC91A1
:101FB0000190F081E02D0994DB01ED91FC911197E6
:101FC0000190F081E02DBC01CD0109946FE072E039
:101FD0000C948C0F0F931F93CF93DF93EC010E940F
:101FE0009B0F8C01CE010E94E60F800F911FDF91A5
:101FF000CF911F910F9108950F931F93CF93DF936C
:10200000EC010E94BF0F8C01CE010E94E60F800FF1
:10201000911FDF91CF911F910F9108950F931F93FF
:10202000CF93DF938C01D0E0C0E06115710519F00A
:102030000E948C0FEC01C8010E94E60F8C0F9D1FBF
:10204000DF91CF911F910F9108950F931F93CF931D
:10205000DF93EC010E94D50F8C01CE010E94E60FA8
:10206000800F911FDF91CF911F910F9108950F93D2
:102070001F93CF93DF93EC010E94DC0F8C01CE0104
:102080000E94E60F800F911FDF91CF911F910F915A
:1020900008958F929F92AF92BF92EF92FF920F930B
:1020A0001F93CF93DF93CDB7DEB7A1970FB6F89408
:1020B000DEBF0FBECDBF7C01FA01CB0119A22230D9
:1020C00008F42AE08E010F5D1F4F822E912CB12C57
:1020D000A12CBF01A50194010E941E17F901CA019C
:1020E0006A300CF5605DD8016E938D01232B242B93
:1020F000252B79F790E080E0109721F0BD01C70112
:102100000E948C0FA1960FB6F894DEBF0FBECDBF14
:10211000DF91CF911F910F91FF90EF90BF90AF9003
:102120009F908F900895695CDECFCF92DF92EF92FF
:10213000FF920F931F93CF93DF932115310581F405
:10214000DC01ED91FC910190F081E02D642FDF9195
:10215000CF911F910F91FF90EF90DF90CF90099456
:102160002A30310501F52AE077FF1DC06A017B01A5
:10217000EC016DE20E94D50F8C0144275527BA016E
:102180004C195D096E097F092AE0CE010E944910B1
:10219000800F911FDF91CF911F910F91FF90EF90D2
:1021A000DF90CF900895DF91CF911F910F91FF9015
:1021B000EF90DF90CF900C9449109A01AB01770F0C
:1021C000660B770B0C9495100F931F93CF93DF93AF
:1021D000EC010E94DD108C01CE010E94E60F800F01
:1021E000911FDF91CF911F910F9108950F931F932E
:1021F000CF93DF93EC010E9495108C01CE010E94D9
:10220000E60F800F911FDF91CF911F910F910895DD
:102210002115310541F4DC01ED91FC910190F08133
:10222000E02D642F09940C9449109A01462F50E038
:1022300070E060E00C9408110F931F93CF93DF932D
:10224000EC010E9415118C01CE010E94E60F800F57
:10225000911FDF91CF911F910F9108959A01AB01CA
:1022600070E060E00C9408110F931F93CF93DF93FD
:10227000EC010E942E118C01CE010E94E60F800F0E
:10228000911FDF91CF911F910F9108950F931F938D
:10229000CF93DF93EC010E9408118C01CE010E94C4
:1022A000E60F800F911FDF91CF911F910F9108953D
:1022B0002F923F924F925F926F927F928F929F9256
:1022C000AF92BF92CF92DF92EF92FF921F93CF9384
:1022D000DF93EC016A017B01722EAB019601CB0109
:1022E000B6010E94191762E172E0811126C0460111
:1022F0005701E894B7F82FEF3FEF4FE75FE7C501CD
:10230000B4010E94191781110CC02FEF3FEF4FE766
:102310005FE7C501B4010E944F1566E172E018162F
:1023200064F02FEF3FEF4FE75FE4C701B6010E9473
:10233000A7161816B4F46AE172E0CE01DF91CF91CE
:102340001F91FF90EF90DF90CF90BF90AF909F9044
:102350008F907F906F905F904F903F902F900C9454
:102360008C0F2FEF3FEF4FE75FECC701B6010E94E4
:102370004F1587FDE0CF20E030E0A901C701B6018D
:102380000E944F15312C212C87FF09C06DE2CE0130
:102390000E94D50F1C01F7FAF094F7F8F09410E0C2
:1023A00060E070E080E09FE3711641F020E030E0F3
:1023B00040E251E40E9454151F5FF6CFA701960139
:1023C0000E94E3142B013C010E94C6154B015C01E5
:1023D0002AE0BC01A401CE010E9449107C01E20C5C
:1023E000F31C1123B1F1C501B4010E94F5159B0145
:1023F000AC01C301B2010E94E2144B015C016EE228
:10240000CE010E94D50FE80EF91E115010F120E008
:1024100030E040E251E4C501B4010E94AC162B014A
:102420003C010E94C6154B014AE050E0CE010E94DB
:102430002E11E80EF91EB40190E080E00E94F5151F
:102440009B01AC01C301B2010E94E2144B015C018B
:10245000DCCFC701DF91CF911F91FF90EF90DF900C
:10246000CF90BF90AF909F908F907F906F905F9034
:102470004F903F902F9008950C9458110F931F93F5
:10248000CF93DF93EC010E9458118C01CE010E9482
:10249000E60F800F911FDF91CF911F910F9108954B
:1024A0001F920F920FB60F9211242F938F939F9329
:1024B000EF93FF93E0915E02F0915F028081E091E3
:1024C0006402F091650282FD1BC0908180916702D9
:1024D0008F5F8F7320916802821741F0E09167024D
:1024E000F0E0E25BFD4F958F80936702FF91EF91E3
:1024F0009F918F912F910F900FBE0F901F90189565
:102500008081F4CF1F920F920FB60F9211242F9358
:102510003F934F935F936F937F938F939F93AF936B
:10252000BF93EF93FF938EE492E00E94530EFF91CE
:10253000EF91BF91AF919F918F917F916F915F913B
:102540004F913F912F910F900FBE0F901F901895B4
:102550008EE492E00E94080E21E0892B09F420E02D
:10256000822F08958EBD00000DB407FEFDCF8EB5FD
:1025700008959CB59C7F282F2370922B9CBD9DB500
:1025800082FB222720F9892F8E7F822B8DBD089513
:1025900020914B02222381F03FB7F89420914B0207
:1025A000213069F42DB3209349024DB320914A02A2
:1025B000209524232DBB3FBF8CBD9DBD0895309336
:1025C0004902FACF80914B02882361F09FB7F894BB
:1025D00020914B0280914902213019F48DBB9FBF9D
:1025E00008958FBF08950E9488000E944F0A0E949C
:1025F000550A0E94780A0E94BB0A68E371E08EE4E3
:1026000092E00E940E100E942E0B0E94BF0CFBCF86
:102610002FEF3FEF49E050E066E070E086E392E0A4
:102620000E948A006AE085E292E00C947A05EEE46A
:10263000F2E01382128288EE93E0A0E0B0E084839F
:102640009583A683B78381E092E09183808385ECB4
:1026500090E09587848784EC90E09787868780EC6C
:1026600090E0918B808B81EC90E0938B828B82EC5D
:1026700090E0958B848B86EC90E0978B868B118E07
:10268000128E138E148E08958E3008F08E50209185
:10269000000190E4299F900111248770822B809380
:1026A0007C0080917A00806480937A0080917A0027
:1026B00086FDFCCF809178009091790008951F925B
:1026C0000F920FB60F9211242F933F938F939F93E6
:1026D000AF93BF938091EC029091ED02A091EE0236
:1026E000B091EF023091EB0223E0230F2D3758F524
:1026F0000196A11DB11D2093EB028093EC029093F3
:10270000ED02A093EE02B093EF028091F00290915F
:10271000F102A091F202B091F3020196A11DB11D48
:102720008093F0029093F102A093F202B093F3022F
:10273000BF91AF919F918F913F912F910F900FBEBD
:102740000F901F90189526E8230F0296A11DB11D2A
:10275000D2CF2FB7F8946091EC027091ED02809186
:10276000EE029091EF022FBF08953FB7F894809149
:10277000F0029091F102A091F202B091F30226B51D
:10278000A89B05C02F3F19F00196A11DB11D3FBFA9
:10279000BA2FA92F982F8827BC01CD01620F711D78
:1027A000811D911D42E0660F771F881F991F4A9572
:1027B000D1F708958F929F92AF92BF92CF92DF92FE
:1027C000EF92FF926B017C010E94B5134B015C01FB
:1027D000C114D104E104F104E9F00E944E140E94F6
:1027E000B513681979098A099B09683E7340810508
:1027F000910570F321E0C21AD108E108F10888EED2
:10280000880E83E0981EA11CB11CC114D104E10400
:10281000F10429F7FF90EF90DF90CF90BF90AF9039
:102820009F908F900895789484B5826084BD84B51C
:10283000816084BD85B5826085BD85B5816085BDBB
:10284000EEE6F0E0808181608083E1E8F0E01082D4
:10285000808182608083808181608083E0E8F0E015
:10286000808181608083E1EBF0E0808184608083FF
:10287000E0EBF0E0808181608083EAE7F0E0808136
:102880008460808380818260808380818160808396
:102890008081806880831092C100089508958330FC
:1028A00081F028F4813099F08230A9F008958730C2
:1028B000A9F08830C9F08430B1F4809180008F7D18
:1028C00003C0809180008F7780938000089584B545
:1028D0008F7784BD089584B58F7DFBCF8091B00044
:1028E0008F778093B00008958091B0008F7DF9CFED
:1028F000CF93DF9390E0FC01E458FF4F2491805781
:102900009F4FFC0184918823C9F090E0880F991FA4
:10291000FC01E255FF4FA591B491FC01EC55FF4F2E
:10292000C591D49161110DC09FB7F8948C912095F9
:1029300082238C938881282328839FBFDF91CF91A6
:102940000895623051F49FB7F8943C91822F80959E
:1029500083238C93E8812E2BEFCF8FB7F894EC91E3
:102960002E2B2C938FBFEACF1F93CF93DF93282F6B
:1029700030E0F901E859FF4F8491F901E458FF4F25
:10298000D491F901E057FF4FC491CC23A9F0162F41
:1029900081110E944F14EC2FF0E0EE0FFF1FEC5559
:1029A000FF4FA591B4918FB7F894EC91111108C025
:1029B000D095DE23DC938FBFDF91CF911F910895D7
:1029C000DE2BF8CF5058BB27AA270E94FA140C948C
:1029D0006D160E945F1638F00E94661620F039F4DA
:1029E0009F3F19F426F40C945C160EF4E095E7FB77
:1029F0000C945616E92F0E947E1658F3BA176207F8
:102A000073078407950720F079F4A6F50C94A016B7
:102A10000EF4E0950B2EBA2FA02D0B01B9019001F9
:102A20000C01CA01A0011124FF27591B99F0593F3D
:102A300050F4503E68F11A16F040A22F232F342F85
:102A40004427585FF3CF469537952795A795F040D3
:102A50005395C9F77EF41F16BA0B620B730B840BE8
:102A6000BAF09150A1F0FF0FBB1F661F771F881FA0
:102A7000C2F70EC0BA0F621F731F841F48F48795F8
:102A800077956795B795F7959E3F08F0B0CF9395EA
:102A9000880F08F09927EE0F9795879508950E9463
:102AA000321608F481E008950E9468150C946D16A2
:102AB0000E94661658F00E945F1640F029F45F3FAE
:102AC00029F00C94561651110C94A1160C945C1616
:102AD0000E947E1668F39923B1F3552391F3951B59
:102AE000550BBB27AA2762177307840738F09F5F2F
:102AF0005F4F220F331F441FAA1FA9F335D00E2E9C
:102B00003AF0E0E832D091505040E695001CCAF708
:102B10002BD0FE2F29D0660F771F881FBB1F2617CB
:102B200037074807AB07B0E809F0BB0B802DBF01A2
:102B3000FF2793585F4F3AF09E3F510578F00C9471
:102B400056160C94A1165F3FE4F3983ED4F3869595
:102B500077956795B795F7959F5FC9F7880F911D92
:102B60009695879597F90895E1E0660F771F881F7E
:102B7000BB1F621773078407BA0720F0621B730B31
:102B8000840BBA0BEE1F88F7E09508950E94861615
:102B900088F09F5798F0B92F9927B751B0F0E1F01E
:102BA000660F771F881F991F1AF0BA95C9F714C0CE
:102BB000B13091F00E94A016B1E008950C94A016D7
:102BC000672F782F8827B85F39F0B93FCCF3869507
:102BD00077956795B395D9F73EF490958095709564
:102BE00061957F4F8F4F9F4F0895E89409C097FBE1
:102BF0003EF490958095709561957F4F8F4F9F4FD4
:102C00009923A9F0F92F96E9BB279395F695879517
:102C100077956795B795F111F8CFFAF4BB0F11F4DA
:102C200060FF1BC06F5F7F4F8F4F9F4F16C0882381
:102C300011F096E911C0772321F09EE8872F762FB7
:102C400005C0662371F096E8862F70E060E02AF0F8
:102C50009A95660F771F881FDAF7880F96958795E4
:102C600097F90895990F0008550FAA0BE0E8FEEFB9
:102C700016161706E807F907C0F012161306E40740
:102C8000F50798F0621B730B840B950B39F40A2639
:102C900061F0232B242B252B21F408950A2609F417
:102CA000A140A6958FEF811D811D089597F99F671B
:102CB00080E870E060E008959FEF80EC08950024C4
:102CC0000A941616170618060906089500240A9491
:102CD00012161306140605060895092E0394000C17
:102CE00011F4882352F0BB0F40F4BF2B11F460FFA6
:102CF00004C06F5F7F4F8F4F9F4F089557FD9058CF
:102D0000440F551F59F05F3F71F04795880F97FBAF
:102D1000991F61F09F3F79F0879508951216130669
:102D20001406551FF2CF4695F1DF08C01616170698
:102D30001806991FF1CF86957105610508940895CD
:102D4000E894BB2766277727CB0197F908950E945F
:102D5000321608F48FEF08950E94BF160C946D167A
:102D60000E945F1638F00E94661620F0952311F03D
:102D70000C9456160C945C1611240C94A1160E9407
:102D80007E1670F3959FC1F3950F50E0551F629F1B
:102D9000F001729FBB27F00DB11D639FAA27F00DB4
:102DA000B11DAA1F649F6627B00DA11D661F829FDB
:102DB0002227B00DA11D621F739FB00DA11D621FC0
:102DC000839FA00D611D221F749F3327A00D611DDD
:102DD000231F849F600D211D822F762F6A2F1124BF
:102DE0009F5750409AF0F1F088234AF0EE0FFF1FF2
:102DF000BB1F661F771F881F91505040A9F79E3F49
:102E0000510580F00C9456160C94A1165F3FE4F324
:102E1000983ED4F3869577956795B795F795E7959E
:102E20009F5FC1F7FE2B880F911D9695879597F9A7
:102E300008950E943216880B990B0895A1E21A2E6C
:102E4000AA1BBB1BFD010DC0AA1FBB1FEE1FFF1F4E
:102E5000A217B307E407F50720F0A21BB30BE40B9E
:102E6000F50B661F771F881F991F1A9469F76095E5
:102E70007095809590959B01AC01BD01CF0108959F
:102E8000052E97FB1EF400940E94571757FD07D09C
:102E90000E941E1707FC03D04EF40C945717509550
:102EA0004095309521953F4F4F4F5F4F0895909536
:102EB0008095709561957F4F8F4F9F4F0895EE0FCE
:102EC000FF1F0590F491E02D0994AEE0B0E0EBE631
:102ED000F7E10C94141A0D891E8986E08C831A83FD
:102EE00009838FEF9FE79E838D83AE01475E5F4F1F
:102EF0006F89788DCE0101960E9488172F813885C1
:102F0000020F131FF80110822E96E4E00C94301A81
:102F1000ABE0B0E0EEE8F7E10C94061A7C013B016F
:102F20008A01FC0117821682838181FFC8C1CE010C
:102F300001965C01F7019381F30193FD859193FF65
:102F400081913F01882309F453C1853239F493FDFF
:102F5000859193FF81913F01853229F4B70190E07B
:102F60000E947819E7CF912C212C312CFFE1F31529
:102F700038F08B3211F190F4803209F1833229F16B
:102F800037FC3CC020ED280F2A3050F536FE20C01B
:102F90008AE0989E200D1124922E06C08D3291F069
:102FA000803371F7689430F8F30193FD859193FFB6
:102FB00081913F018111DACF21C0689431F8689482
:102FC00032F8F2CF689433F8EFCF689434F8ECCF4E
:102FD000EAE02E9E200D1124222E689435F8E4CFCD
:102FE0008E3229F436FC04C1689436F8DDCF8C3675
:102FF00019F4689437F8D8CF8836B1F2982F9F7DAE
:1030000095549330E0F08336A1F18337C1F18335D5
:1030100009F063C02801F2E04F0E511CF801C08096
:10302000D180692D70E036FC02C06FEF7FEFC601E2
:103030000E9462194C01689437F882010AC00C5F43
:103040001F4FFFE3F98388248394912C6501E89452
:1030500037F833FE2DC0522C8114910471F55520A0
:1030600009F468CFB70180E290E00E9478195A9481
:10307000F6CFF801808189830E5F1F4FE4CF2801CE
:10308000F2E04F0E511CF801C080D180692D70E034
:1030900036FC02C06FEF7FEFC6010E946D194C0134
:1030A0008201D5CFB70180E290E00E9478192A947E
:1030B0002814190409F0B0F7CECFF60137FC85913A
:1030C00037FE81916F01B70190E00E94781951108D
:1030D0005A94F1E08F1A9108BFCF843619F08936DF
:1030E00009F077C0F80137FE6BC060817181828181
:1030F00093810C5F1F4FF32DFF763F2E97FF09C082
:1031000090958095709561957F4F8F4F9F4F6894F4
:1031100037F82AE030E0A5010E94A819C82ECA1885
:103120008C2C432C36FE0CC0E89440F8C91440F4B3
:1031300034FE05C032FC03C0F32DFE7E4F2E892CD9
:1031400044FE95C0FE01EC0DF11D8081803309F035
:1031500087C0242D297E422E842D8870582E43FC52
:1031600095C040FE8FC09C2C821418F42C0C922C1D
:10317000981844FE91C0B70180E390E00E9478194E
:1031800042FE09C088E790E041FE02C088E590E079
:10319000B7010E947819C91408F48AC0CA94D12CC6
:1031A0009FEFC91AD90ACA0CDB1CF60182916F0184
:1031B000B70190E00E947819AC14BD04B1F74FCF6D
:1031C00060817181072E000C880B990B0E5F1F4FD9
:1031D00092CFD32CE894D4F82AE030E0853739F147
:1031E000232D297FD22E8F3601F148F48835A9F09E
:1031F000F701868197812B96E2E10C94221A8037A1
:1032000049F08837A9F7D4FE02C06894D2F820E1CB
:1032100030E00DC06894D4F8F6CF34FE03C0822F9E
:103220008660D82E20E132E002C028E030E0F801CC
:10323000D7FE0FC060817181828193810C5F1F4F27
:10324000A5010E94A819C82ECA183D2CE89437F889
:1032500067CF6081718190E080E00E5F1F4FF0CFFB
:1032600042FC02C0839478CF8394839475CF842DDD
:10327000867809F471CFF6CFB70180E290E00E9422
:10328000781983948214C0F3512C73CF522C5818A0
:10329000821408F46ECFF8CF842D867809F47BCFA2
:1032A0008BE241FE80E247FC8DE2B70190E071CFF6
:1032B000B70180E390E00E9478199A946CCF8FEF69
:1032C0009FEF99CFFC010590615070400110D8F735
:1032D000809590958E0F9F1F0895FC01615070405E
:1032E00001900110D8F7809590958E0F9F1F08953B
:1032F0000F931F93CF93DF93182F092FEB018B812F
:1033000081FD09C01FEF0FEF812F902FDF91CF912B
:103310001F910F91089582FF14C02E813F818C81EF
:103320009D81281739073CF4E881F981CF01019686
:103330009983888310838E819F8101969F838E83DA
:10334000E3CFE885F985812F0995892BA1F3DACFA1
:10335000FA01AA27283051F1203181F1E8946F93C6
:103360006E7F6E5F7F4F8F4F9F4FAF4FB1E03ED06C
:10337000B4E03CD0670F781F891F9A1FA11D680F0A
:10338000791F8A1F911DA11D6A0F711D811D911D3D
:10339000A11D20D009F468943F912AE0269F1124B2
:1033A0003019305D3193DEF6CF010895462F477016
:1033B000405D4193B3E00FD0C9F7F6CF462F4F7071
:1033C000405D4A3318F0495D31FD4052419302D0CF
:1033D000A9F7EACFB4E0A695979587957795679575
:1033E000BA95C9F700976105710508959B01AC0175
:1033F0000A2E06945795479537952795BA95C9F79C
:10340000620F731F841F951FA01D08952F923F9276
:103410004F925F926F927F928F929F92AF92BF92E4
:10342000CF92DF92EF92FF920F931F93CF93DF9390
:10343000CDB7DEB7CA1BDB0B0FB6F894DEBF0FBEED
:10344000CDBF09942A88398848885F846E847D843A
:103450008C849B84AA84B984C884DF80EE80FD803C
:103460000C811B81AA81B981CE0FD11D0FB6F894B2
:0E347000DEBF0FBECDBFED010895F894FFCF73
:10347E0001304050696E69745F73657269616C3AB0
:10348E00207061737300696E69745F63616E3A20B8
:10349E007265747279696E6700696E69745F6361D3
:1034AE006E3A2070617373005374656572696E674E
:1034BE0020696E697420636F6D706C657465006948
:1034CE006E697420436F6E74726F6C2043414E2090
:1034DE002D20004661756C74207265706F727420B9
:1034EE0072656365697665642066726F6D3A200059
:1034FE002020445443733A2000436F6E74726F6CF5
:10350E0020656E61626C656400436F6E74726F6CE1
:10351E002064697361626C656400546F72717565C5
:10352E00205369676E616C2056616C7320413A209E
:10353E00256420423A202564004261642076616C45
:10354E00756520726561642066726F6D20746F728E
:10355E007175652073656E736F72004F7065726161
:10356E00746F72206F766572726964650000000078
:10357E0000940E5F0F360E740E080E220E140E0DF2
:0E358E000A006E616E00696E66006F76660060
:00000001FF
