:100000000C9475010C94A6010C94A6010C94A60105
:100010000C94A6010C94A6010C94A6010C94A601C4
:100020000C94A6010C94A6010C94A6010C94A601B4
:100030000C94A6010C94A6010C94A6010C94A601A4
:100040000C94A6010C94A6010C94A6010C94A60194
:100050000C94A6010C94A6010C94A6010C9494098E
:100060000C94A6010C9411070C9447070C94A6015C
:100070000C94A6010C94A6010C94A6010C94A60164
:100080000C94A6010C94A6010C94A6010C94A60154
:100090000C94A6010C94A6010C94A6010C94A60144
:1000A0000C94A6010C94A6010C94A6010C94A60134
:1000B0000C94A6010C94A6010C94A6010C94A60124
:1000C0000C94A6010C94A6010C94A6010C94A60114
:1000D0000C94A6010C94A6010C94A6010C94A60104
:1000E0000C94A60101080408F307F707FD073B0875
:1000F00008080C08120816081A08200824082808FE
:100100003B082E0832083608F408F908FE080809EA
:1001100012098B091C0924092C09360940094A09CE
:10012000590963098B096D09770981090C942E0817
:100130000C9440090C9412090C9416080C940C08A9
:100140000C94F9080C949B050C94F3070C943E0650
:100150000C94B9070C94FD070C944A090C942C09D3
:100160000C943B080C9436080C94F7070C946D091A
:100170000C9424080C94BE050C9481050C94010881
:100180000C941A080C9432080C948B090C942008D7
:100190000C9471070C941C090C9463090C941208BC
:1001A0000C94FE080C94F4080C9459090C9436092C
:1001B0000C94AF050C9477090C941C060C9424093C
:1001C0000C9408080C9428080C9481090C940809D4
:1001D0000C948D050C9404080C94A1020C947B07DC
:1001E00000000A0B02090C0D0E08070304010000B1
:1001F00000000000000000000000000000000000FF
:1002000000000000000000000000000012111000BB
:1002100000000000000000000000000000000000DE
:1002200000000000000001021020200808102040FB
:1002300010204080020102010804020101020408AA
:100240001020408080402010080402018004020138
:100250008040201008040201080402010102040881
:10026000102040800102040810204080050505058B
:10027000070508080808020202020A0A080804041E
:10028000040401010101010101010303030303034C
:100290000303040707070C0C0C0C0C0C0C0C0202DB
:1002A000020206060606060606060B0B0B0B0B0BD8
:1002B0000B0B00002200250028002B002E0031002F
:1002C000340002010000050108010B0100002100BB
:1002D000240027002A002D00300033000101000017
:1002E000040107010A017B07B90711241FBECFEFE4
:1002F000D1E2DEBFCDBF00E00CBF12E0A0E0B2E073
:10030000E2E2FAE100E00BBF02C007900D92AE32CC
:10031000B107D9F722E0AEE2B2E001C01D92AB3FD7
:10032000B207E1F711E0C5E7D1E000E006C0219790
:100330000109802FFE010E94070DC337D10780E01D
:100340000807A9F70E94AA070C940F0D0C9400004F
:10035000BC01990F880B990B0E94BE0B27EC31E270
:1003600049E553E40E94A30A29E738EC4CEF53E433
:100370000E94140B089529E738EC4CEF53E40E94D7
:10038000730C27EC31E249E553E40E94A20A0E9473
:10039000860BCB010895BC01990F880B990B0E9425
:1003A000BE0B2AE038E240EA5BE30E94730C08953A
:1003B000CF93DF93EC01822F188219821A821B825D
:1003C0001C821D821E821F82688749872A8761E0FE
:1003D0000E943C0860E070E08A85DF91CF910C9428
:1003E000CD08CF92EF920F93CF93DF93EC01822F42
:1003F000188219821A821B821C821D821E821F8211
:100400001E861F86188A198A1A8A1B8A6887498756
:100410002A870B87EC86CD8660E00E94780860E032
:100420008B850E94780860E08C850E94780860E0E7
:100430008D850E94780861E08A850E943C0861E011
:100440008B850E943C0861E08C850E943C0861E03D
:100450008D85DF91CF910F91EF90CF900C943C0858
:10046000CF93DF93E1E9F0E08081887F8260808331
:10047000E1EAF0E08081887F8260808360E080E351
:100480000E94780861E080E30E943C0860E081E31C
:100490000E94780860E070E080914C020E94CD08D4
:1004A000CEE2D2E060E08C850E94780860E08D8525
:1004B0000E9478086AEF70E08A850E94CD086AEF92
:1004C00070E08B850E94CD0860E27EE480E090E0E1
:1004D0000E94030A60E070E08A850E94CD0860E017
:1004E00070E08B850E94CD0826E040E052EC61E090
:1004F00070E085E592E0DF91CF910C948506CF9373
:10050000DF9389E00E94A808EC0161E072E085E5D4
:1005100092E00E94FE02BE01DD0F880B990B0E9443
:10052000BE0B2AE038E240EA5BE30E94730CAB01A9
:10053000BC0122E030E085E592E0DF91CF910C94A0
:100540006F05CF92DF92EF92FF920F931F93CF939D
:10055000DF936C017A018B01C0E0D0E0CE15DF059E
:1005600089F0D8016D918D01D601ED91FC9101903A
:10057000F081E02DC6011995892B11F47E0102C08E
:100580002196ECCFC701DF91CF911F910F91FF9082
:10059000EF90DF90CF900895EF92FF920F931F930B
:1005A000CF93DF938C017B01C0E0D0E0F701EC0F2B
:1005B000FD1F6491662361F0D801ED91FC910190DB
:1005C000F081E02DC8011995892B11F02196EECF0D
:1005D000CE01DF91CF911F910F91FF90EF90089581
:1005E000DC01ED91FC91DB0114964D915C91159726
:1005F0006D917C910280F381E02D19940C94950704
:10060000DC01ED91FC910190F081E02D1994DB016A
:10061000ED91FC9111970190F081E02DBC01CD018D
:1006200019946CE072E00C9495070F931F93CF938D
:10063000DF93EC010E94CC028C01CE010E941103D9
:10064000800F911FDF91CF911F910F9108950F930C
:100650001F93CF93DF93EC010E94F0028C01CE0137
:100660000E941103800F911FDF91CF911F910F9175
:1006700008950F931F93CF93DF93EC010E9495078A
:100680008C01CE010E941103800F911FDF91CF9149
:100690001F910F9108950F931F93CF93DF93EC0158
:1006A0000E9400038C01CE010E941103800F911F54
:1006B000DF91CF911F910F9108950F931F93CF93C7
:1006C000DF93EC010E9407038C01CE010E9411030D
:1006D000800F911FDF91CF911F910F9108954F923D
:1006E0005F926F927F92EF92FF920F931F93CF933F
:1006F000DF93CDB7DEB7A1970FB6F894DEBF0FBE7C
:10070000CDBF7C01FA01CB0119A2223008F42AE006
:100710008E010F5D1F4F422E512C612C712CBF0199
:10072000A30192010E94E50CF901CA0101501109CF
:100730006A3014F4605D01C0695CD8016C93232BAE
:10074000242B252B61F7B801C7010E949507A196BC
:100750000FB6F894DEBF0FBECDBFDF91CF911F91D2
:100760000F91FF90EF907F906F905F904F90089562
:10077000CF92DF92EF92FF920F931F93CF93DF936D
:10078000EC016A017B012115310579F4E881F981D9
:100790000190F081E02D642FDF91CF911F910F9197
:1007A000FF90EF90DF90CF9019942A303105E9F453
:1007B00077FF1AC06DE20E9400038C014427552781
:1007C000BA014C195D096E097F092AE0CE010E9429
:1007D0006F03800F911FDF91CF911F910F91FF90B9
:1007E000EF90DF90CF9008952AE0B701A601CE01E7
:1007F000DF91CF911F910F91FF90EF90DF90CF90FD
:100800000C946F039A01AB01770F660B770B0C9476
:10081000B8030F931F93CF93DF93EC019A01AB01C1
:10082000770F660B770B0E94B8038C01CE010E94F4
:100830001103800F911FDF91CF911F910F910895A8
:100840000F931F93CF93DF93EC010E94B8038C01A9
:10085000CE010E941103800F911FDF91CF911F9154
:100860000F9108952115310541F4DC01ED91FC91C2
:100870000190F081E02D642F19940C946F039A017C
:10088000462F50E060E070E00C9432040F931F9309
:10089000CF93DF93EC019A01462F50E060E070E0C7
:1008A0000E9432048C01CE010E941103800F911F1F
:1008B000DF91CF911F910F9108959A01AB0160E0F4
:1008C00070E00C9432040F931F93CF93DF93EC01ED
:1008D0009A01AB0160E070E00E9432048C01CE010D
:1008E0000E941103800F911FDF91CF911F910F91F3
:1008F00008950F931F93CF93DF93EC010E9432046E
:100900008C01CE010E941103800F911FDF91CF91C6
:100910001F910F9108954F925F926F927F928F92E5
:100920009F92AF92BF92CF92DF92EF92FF92CF93BE
:10093000DF93EC016A017B01B22E9A01AB01C70182
:10094000B6010E94E00C882319F06FE072E027C026
:1009500026013701E89477F82FEF3FEF4FE75FE785
:10096000C301B2010E94E00C81110DC02FEF3FEFD7
:100970004FE75FE7C301B2010E940F0B18161CF48A
:1009800063E172E00CC02FEF3FEF4FE75FE4C70178
:10099000B6010E946E0C18169CF467E172E0CE015D
:1009A000DF91CF91FF90EF90DF90CF90BF90AF900D
:1009B0009F908F907F906F905F904F900C949507D1
:1009C0002FEF3FEF4FE75FECC701B6010E940F0B1F
:1009D00087FDE3CF20E030E0A901C701B6010E9406
:1009E0000F0B87FF0AC06DE2CE010E9400034C018D
:1009F000F7FAF094F7F8F09402C0812C912CA12C16
:100A000060E070E080E09FE3AB1441F020E030E074
:100A100040E251E40E94140BA394F6CF9B01AC0179
:100A2000C701B6010E94A30A2B013C010E948D0B55
:100A30006B017C010E94BC0B9B01AC01C301B201A4
:100A40000E94A20A2B013C012AE0B701A601CE01B7
:100A50000E946F037C01E80CF91CBB2031F06EE2B0
:100A6000CE010E940003E80EF91EDB2CDD2029F1E7
:100A700020E030E040E251E4C301B2010E94730C77
:100A80002B013C010E948D0B4B01A12CB12C2AE0C3
:100A9000B501A401CE010E946F03E80EF91EC50145
:100AA000B4010E94BC0B9B01AC01C301B2010E94C6
:100AB000A20A2B013C01DA94D9CFC701DF91CF9173
:100AC000FF90EF90DF90CF90BF90AF909F908F906E
:100AD0007F906F905F904F9008950C948B040F93CC
:100AE0001F93CF93DF93EC010E948B048C01CE0106
:100AF0000E941103800F911FDF91CF911F910F91E1
:100B00000895FC01918D228D892F90E0805C9F4F8C
:100B1000821B91098F7399270895FC01918D828D15
:100B2000981731F0828DE80FF11D858D90E00895C2
:100B30008FEF9FEF0895FC01918D828D981761F0E2
:100B4000828DDF01A80FB11D5D968C91928D9F5F04
:100B50009F73928F90E008958FEF9FEF0895FC01AF
:100B6000538D448D252F30E0842F90E0821B930B12
:100B7000541710F0CF9608950197089581E797E0F4
:100B8000892B41F080E090E0892B21F00E947107D1
:100B9000811125C080E090E0892B41F080E090E059
:100BA000892B21F00E94000081111CC080E090E0A0
:100BB000892B41F080E090E0892B21F00E94000019
:100BC000811113C080E090E0892BA1F080E090E0DB
:100BD000892B81F00E94000081110AC008950E94B3
:100BE0000000D8CF0E940000E1CF0E940000EACFB1
:100BF0000C9400000895FC01848DDF01A80FB11D45
:100C0000A35ABF4F2C91848D90E001968F73992742
:100C1000848FA689B7892C93A089B1898C9180642F
:100C20008C93938D848D981306C00288F389E02DF0
:100C300080818F7D80830895CF93DF93EC01888D31
:100C40008823C9F0EA89FB89808185FD05C0A889D0
:100C5000B9898C9186FD0FC00FB607FCF5CF808156
:100C600085FFF2CFA889B9898C9185FFEDCFCE01A0
:100C70000E94FB05E7CFDF91CF910895EF92FF929D
:100C80000F931F93CF93DF93EC0181E0888F9B8DAF
:100C90008C8D981305C0E889F989808185FD24C071
:100CA000F62E0B8D10E00F5F1F4F0F731127E02EF4
:100CB0008C8DE8120CC00FB607FCFACFE889F989D1
:100CC000808185FFF5CFCE010E94FB05F1CF8B8D92
:100CD000FE01E80FF11DE35AFF4FF0820B8FEA8906
:100CE000FB898081806207C0EE89FF896083E88983
:100CF000F98980818064808381E090E0DF91CF91E9
:100D00001F910F91FF90EF900895CF92DF92EF9295
:100D1000FF921F93CF93DF93EC016A017B01122FA7
:100D2000E889F98982E080834115514E610571059A
:100D3000B1F060E079E08DE390E0A70196010E94B8
:100D4000E50CDA01C9010197A109B109B695A7958A
:100D500097958795AC01411580E15807A8F0E8897F
:100D6000F989108260E874E88EE190E0A7019601AD
:100D70000E94E50CBA01A9014150510961097109AC
:100D80007695679557954795EC85FD855083EE855B
:100D9000FF854083188EEC89FD891083EA89FB89E1
:100DA000808180618083EA89FB898081886080837B
:100DB000EA89FB89808180688083EA89FB89808158
:100DC0008F7D8083DF91CF911F91FF90EF90DF9017
:100DD000CF900895CF93DF93EC01E881F9810680ED
:100DE000F781E02D1995EA89FB8980818F7E8083C8
:100DF000EA89FB898081877F8083EA89FB898081FA
:100E00008F778083EA89FB8980818F7D80838A8DBB
:100E1000898FDF91CF91089580E090E00895089543
:100E200008951F920F920FB60F9211240BB60F92D6
:100E30002F938F939F93EF93FF93E0916502F0912F
:100E400066028081E0916B02F0916C0282FD12C01B
:100E5000908180916E028F5F8F7320916F02821755
:100E600051F0E0916E02F0E0EB5AFD4F958F8093C8
:100E70006E0201C08081FF91EF919F918F912F9120
:100E80000F900BBE0F900FBE0F901F9018951F92E2
:100E90000F920FB60F9211240BB60F922F933F9320
:100EA0004F935F936F937F938F939F93AF93BF9372
:100EB000EF93FF9385E592E00E94FB05FF91EF9190
:100EC000BF91AF919F918F917F916F915F914F9162
:100ED0003F912F910F900BBE0F900FBE0F901F9060
:100EE000189585E592E00E94810521E0892B09F49F
:100EF00020E0822F0895CF92EF920F9322E04BE0F3
:100F00006AE082E492E00E94D80188E0C82E96E070
:100F1000E92E07E025E04DE06EE08EE292E00E94CF
:100F2000F1010F91EF90CF9008956115710579F05F
:100F3000FB0101900020E9F73197AF01461B570BE9
:100F4000DC01ED91FC910280F381E02D199480E0A9
:100F500090E008950E943F0A0E940F070E9430020D
:100F6000CEEBD5E00E947F022097E1F30E94BE0500
:100F7000F9CFE5E5F2E01382128288EE93E0A0E07B
:100F8000B0E084839583A683B7838FE192E0918359
:100F9000808385EC90E09587848784EC90E0978748
:100FA000868780EC90E0918B808B81EC90E0938B36
:100FB000828B82EC90E0958B848B86EC90E0978B13
:100FC000868B118E128E138E148E089590E0FC0184
:100FD0003197E231F10508F04EC08827EE58FF4FF7
:100FE0008F4F0C94070D809180008F7703C0809104
:100FF00080008F7D80938000089580918000877F9E
:10100000F9CF84B58F7702C084B58F7D84BD0895F4
:101010008091B0008F7703C08091B0008F7D809366
:10102000B0000895809190008F7707C08091900064
:101030008F7D03C080919000877F809390000895FA
:101040008091A0008F7707C08091A0008F7D03C0A2
:101050008091A000877F8093A00008958091200157
:101060008F7707C0809120018F7D03C08091200180
:10107000877F809320010895CF93DF9390E0FC0158
:10108000EA5DFD4F2491FC01E459FD4F84918823D2
:1010900061F190E0880F991FFC01E453FD4FC59169
:1010A000D491FC01EE54FD4FA591B491611109C09A
:1010B0009FB7F8948881209582238883EC912E2312
:1010C0000BC0623061F49FB7F8943881822F80950D
:1010D00083238883EC912E2B2C939FBF06C08FB760
:1010E000F894E8812E2B28838FBFDF91CF9108954C
:1010F0001F93CF93DF93282F30E0F901E052FE4F8A
:101100008491F901EA5DFD4FD491F901E459FD4F55
:10111000C491CC23C9F0162F81110E94E607EC2F51
:10112000F0E0EE0FFF1FEE54FD4FA591B4918FB785
:10113000F894111105C09C91ED2FE095E92302C0B0
:10114000EC91ED2BEC938FBFDF91CF911F91089520
:10115000863308F0865390917B00282F2870977F64
:10116000922B90937B0087702091000290E4299F3E
:1011700090011124822B80937C0080917A008064FE
:1011800080937A0080917A0086FDFCCF8091780070
:101190002091790090E0922B08951F93CF93DF93D5
:1011A000182FEB0161E00E943C08209711F460E0E9
:1011B00004C0CF3FD10529F461E0812F0E94780857
:1011C000AFC0E12FF0E0E052FE4FE4914E2F50E02F
:1011D000FA013197E231F10508F09DC08827EC57FC
:1011E000FF4F8F4F0C94070D84B5806884BDC7BD39
:1011F00097C084B5806284BDC8BD92C080918000D4
:10120000806880938000D0938900C093880088C054
:1012100080918000806280938000D0938B00C09387
:101220008A007EC080918000886080938000D09387
:101230008D00C0938C0074C08091B0008068809352
:10124000B000C093B3006CC08091B0008062809306
:10125000B000C093B40064C0809190008068809317
:101260009000D0939900C09398005AC0809190004C
:10127000806280939000D0939B00C0939A0050C0EE
:1012800080919000886080939000D0939D00C093DF
:101290009C0046C08091A00080688093A00080914F
:1012A000A0008F7B8093A000D093A900C093A800DA
:1012B00037C08091A00080628093A000D093AB00E3
:1012C000C093AA002DC08091A00088608093A000E8
:1012D000D093AD00C093AC0023C080912001806802
:1012E00080932001D0932901C093280119C08091D7
:1012F0002001806280932001D0932B01C0932A01AA
:101300000FC080912001886080932001D0932D012F
:10131000C0932C0105C0C038D1050CF04DCF47CF8C
:10132000DF91CF911F9108951F920F920FB60F92E8
:1013300011242F933F938F939F93AF93BF938091EB
:10134000F3029091F402A091F502B091F60230916F
:10135000F20223E0230F2D3720F40196A11DB11DC9
:1013600005C026E8230F0296A11DB11D2093F202AD
:101370008093F3029093F402A093F502B093F602E7
:101380008091F7029091F802A091F902B091FA02CF
:101390000196A11DB11D8093F7029093F802A093CE
:1013A000F902B093FA02BF91AF919F918F913F9153
:1013B0002F910F900FBE0F901F9018953FB7F89484
:1013C0008091F7029091F802A091F902B091FA028F
:1013D00026B5A89B05C02F3F19F00196A11DB11D90
:1013E0003FBFBA2FA92F982F8827820F911DA11DCB
:1013F000B11DBC01CD0142E0660F771F881F991F08
:101400004A95D1F708958F929F92AF92BF92CF9253
:10141000DF92EF92FF926B017C010E94DE094B018B
:101420005C01C114D104E104F10401F10E94A10A9C
:101430000E94DE09DC01CB0188199909AA09BB09C0
:10144000883E9340A105B10560F321E0C21AD1089E
:10145000E108F10888EE880E83E0981EA11CB11CFB
:10146000C114D104E104F10419F7DBCFFF90EF9030
:10147000DF90CF90BF90AF909F908F900895789419
:1014800084B5826084BD84B5816084BD85B5826089
:1014900085BD85B5816085BDEEE6F0E08081816027
:1014A0008083E1E8F0E01082808182608083808127
:1014B00081608083E0E8F0E0808181608083E1EBFF
:1014C000F0E0808184608083E0EBF0E080818160E7
:1014D0008083E1E9F0E080818260808380818160A7
:1014E0008083E0E9F0E0808181608083E1EAF0E0E0
:1014F000808182608083808181608083E0EAF0E087
:10150000808181608083E1E2F1E08081826080837C
:10151000808181608083E0E2F1E08081816080836E
:10152000EAE7F0E08081846080838081826080834C
:101530008081816080838081806880831092C10077
:10154000089508955058BB27AA270E94BA0A0C9400
:10155000340C0E94260C38F00E942D0C20F039F437
:101560009F3F19F426F40C94230C0EF4E095E7FB4E
:101570000C941D0CE92F0E94450C58F3BA17620712
:1015800073078407950720F079F4A6F50C94670C8F
:101590000EF4E0950B2EBA2FA02D0B01B90190018E
:1015A0000C01CA01A0011124FF27591B99F0593FD2
:1015B00050F4503E68F11A16F040A22F232F342F1A
:1015C0004427585FF3CF469537952795A795F04068
:1015D0005395C9F77EF41F16BA0B620B730B840B7D
:1015E000BAF09150A1F0FF0FBB1F661F771F881F35
:1015F000C2F70EC0BA0F621F731F841F48F487958D
:1016000077956795B795F7959E3F08F0B0CF93957E
:10161000880F08F09927EE0F9795879508950E94F7
:10162000F90B08F481E008950E94280B0C94340C07
:101630000E942D0C58F00E94260C40F029F45F3FC8
:1016400029F00C941D0C51110C94680C0C94230C73
:101650000E94450C68F39923B1F3552391F3951B30
:10166000550BBB27AA2762177307840738F09F5FC3
:101670005F4F220F331F441FAA1FA9F335D00E2E30
:101680003AF0E0E832D091505040E695001CCAF79D
:101690002BD0FE2F29D0660F771F881FBB1F261760
:1016A00037074807AB07B0E809F0BB0B802DBF0137
:1016B000FF2793585F4F3AF09E3F510578F00C9406
:1016C0001D0C0C94680C5F3FE4F3983ED4F38695B0
:1016D00077956795B795F7959F5FC9F7880F911D27
:1016E0009695879597F90895E1E0660F771F881F13
:1016F000BB1F621773078407BA0720F0621B730BC6
:10170000840BBA0BEE1F88F7E09508950E948D0BAD
:101710006894B1110C94680C08950E944D0C88F0E7
:101720009F5798F0B92F9927B751B0F0E1F0660FA5
:10173000771F881F991F1AF0BA95C9F714C0B130E6
:1017400091F00E94670CB1E008950C94670C672F2C
:10175000782F8827B85F39F0B93FCCF38695779515
:101760006795B395D9F73EF49095809570956195FE
:101770007F4F8F4F9F4F0895E89409C097FB3EF429
:1017800090958095709561957F4F8F4F9F4F9923CE
:10179000A9F0F92F96E9BB279395F695879577954C
:1017A0006795B795F111F8CFFAF4BB0F11F460FF0C
:1017B0001BC06F5F7F4F8F4F9F4F16C0882311F064
:1017C00096E911C0772321F09EE8872F762F05C078
:1017D000662371F096E8862F70E060E02AF09A9513
:1017E000660F771F881FDAF7880F9695879597F908
:1017F0000895990F0008550FAA0BE0E8FEEF1616A2
:101800001706E807F907C0F012161306E407F507F4
:1018100098F0621B730B840B950B39F40A2661F068
:10182000232B242B252B21F408950A2609F4A1400B
:10183000A6958FEF811D811D089597F99F6780E818
:1018400070E060E008959FEF80EC089500240A9412
:101850001616170618060906089500240A9412168B
:101860001306140605060895092E0394000C11F4BE
:10187000882352F0BB0F40F4BF2B11F460FF04C06B
:101880006F5F7F4F8F4F9F4F089557FD9058440FC4
:10189000551F59F05F3F71F04795880F97FB991FCF
:1018A00061F09F3F79F0879508951216130614068C
:1018B000551FF2CF4695F1DF08C016161706180619
:1018C000991FF1CF86957105610508940895E894F4
:1018D000BB2766277727CB0197F908950E94F90B5C
:1018E00008F48FEF08950E94860C0C94340C0E942B
:1018F000260C38F00E942D0C20F0952311F00C944A
:101900001D0C0C94230C11240C94680C0E94450CA3
:1019100070F3959FC1F3950F50E0551F629FF00142
:10192000729FBB27F00DB11D639FAA27F00DB11D5B
:10193000AA1F649F6627B00DA11D661F829F2227E4
:10194000B00DA11D621F739FB00DA11D621F839F6B
:10195000A00D611D221F749F3327A00D611D231F41
:10196000849F600D211D822F762F6A2F11249F578F
:1019700050409AF0F1F088234AF0EE0FFF1FBB1F92
:10198000661F771F881F91505040A9F79E3F510551
:1019900080F00C941D0C0C94680C5F3FE4F3983EAF
:1019A000D4F3869577956795B795F795E7959F5FFB
:1019B000C1F7FE2B880F911D9695879597F908958D
:1019C0000E94F90B880B990B0895A1E21A2EAA1B0D
:1019D000BB1BFD010DC0AA1FBB1FEE1FFF1FA217DF
:1019E000B307E407F50720F0A21BB30BE40BF50BDC
:1019F000661F771F881F991F1A9469F76095709565
:101A0000809590959B01AC01BD01CF010895EE0F2B
:101A1000FF1F881F8BBF0790F691E02D1994F89453
:021A2000FFCFF6
:101A22000170726573737572653A20000D0A006E5B
:101A3200616E00696E66006F766600000000003E0F
:0E1A420006A102AF051C0681059B058D05005F
:00000001FF
